{
  "contractName": "KSTToken",
  "abi": [
    {
      "inputs": [
        {
          "internalType": "address",
          "name": "owner_",
          "type": "address"
        },
        {
          "internalType": "address",
          "name": "minter_",
          "type": "address"
        },
        {
          "internalType": "address[]",
          "name": "investors",
          "type": "address[]"
        }
      ],
      "stateMutability": "nonpayable",
      "type": "constructor"
    },
    {
      "anonymous": false,
      "inputs": [
        {
          "indexed": true,
          "internalType": "address",
          "name": "owner",
          "type": "address"
        },
        {
          "indexed": true,
          "internalType": "address",
          "name": "spender",
          "type": "address"
        },
        {
          "indexed": false,
          "internalType": "uint256",
          "name": "value",
          "type": "uint256"
        }
      ],
      "name": "Approval",
      "type": "event"
    },
    {
      "anonymous": false,
      "inputs": [
        {
          "indexed": true,
          "internalType": "address",
          "name": "delegator",
          "type": "address"
        },
        {
          "indexed": true,
          "internalType": "address",
          "name": "fromDelegate",
          "type": "address"
        },
        {
          "indexed": true,
          "internalType": "address",
          "name": "toDelegate",
          "type": "address"
        }
      ],
      "name": "DelegateChanged",
      "type": "event"
    },
    {
      "anonymous": false,
      "inputs": [
        {
          "indexed": true,
          "internalType": "address",
          "name": "delegate",
          "type": "address"
        },
        {
          "indexed": false,
          "internalType": "uint256",
          "name": "previousBalance",
          "type": "uint256"
        },
        {
          "indexed": false,
          "internalType": "uint256",
          "name": "newBalance",
          "type": "uint256"
        }
      ],
      "name": "DelegateVotesChanged",
      "type": "event"
    },
    {
      "anonymous": false,
      "inputs": [
        {
          "indexed": true,
          "internalType": "address",
          "name": "previousOwner",
          "type": "address"
        },
        {
          "indexed": true,
          "internalType": "address",
          "name": "newOwner",
          "type": "address"
        }
      ],
      "name": "OwnershipTransferred",
      "type": "event"
    },
    {
      "anonymous": false,
      "inputs": [
        {
          "indexed": true,
          "internalType": "address",
          "name": "from",
          "type": "address"
        },
        {
          "indexed": true,
          "internalType": "address",
          "name": "to",
          "type": "address"
        },
        {
          "indexed": false,
          "internalType": "uint256",
          "name": "value",
          "type": "uint256"
        }
      ],
      "name": "Transfer",
      "type": "event"
    },
    {
      "inputs": [],
      "name": "DOMAIN_SEPARATOR",
      "outputs": [
        {
          "internalType": "bytes32",
          "name": "",
          "type": "bytes32"
        }
      ],
      "stateMutability": "view",
      "type": "function",
      "constant": true
    },
    {
      "inputs": [],
      "name": "TOKENS_PER_INVESTOR",
      "outputs": [
        {
          "internalType": "uint256",
          "name": "",
          "type": "uint256"
        }
      ],
      "stateMutability": "view",
      "type": "function",
      "constant": true
    },
    {
      "inputs": [
        {
          "internalType": "address",
          "name": "owner",
          "type": "address"
        },
        {
          "internalType": "address",
          "name": "spender",
          "type": "address"
        }
      ],
      "name": "allowance",
      "outputs": [
        {
          "internalType": "uint256",
          "name": "",
          "type": "uint256"
        }
      ],
      "stateMutability": "view",
      "type": "function",
      "constant": true
    },
    {
      "inputs": [
        {
          "internalType": "address",
          "name": "spender",
          "type": "address"
        },
        {
          "internalType": "uint256",
          "name": "amount",
          "type": "uint256"
        }
      ],
      "name": "approve",
      "outputs": [
        {
          "internalType": "bool",
          "name": "",
          "type": "bool"
        }
      ],
      "stateMutability": "nonpayable",
      "type": "function"
    },
    {
      "inputs": [
        {
          "internalType": "address",
          "name": "account",
          "type": "address"
        }
      ],
      "name": "balanceOf",
      "outputs": [
        {
          "internalType": "uint256",
          "name": "",
          "type": "uint256"
        }
      ],
      "stateMutability": "view",
      "type": "function",
      "constant": true
    },
    {
      "inputs": [
        {
          "internalType": "address",
          "name": "account",
          "type": "address"
        },
        {
          "internalType": "uint32",
          "name": "pos",
          "type": "uint32"
        }
      ],
      "name": "checkpoints",
      "outputs": [
        {
          "components": [
            {
              "internalType": "uint32",
              "name": "fromBlock",
              "type": "uint32"
            },
            {
              "internalType": "uint224",
              "name": "votes",
              "type": "uint224"
            }
          ],
          "internalType": "struct ERC20Votes.Checkpoint",
          "name": "",
          "type": "tuple"
        }
      ],
      "stateMutability": "view",
      "type": "function",
      "constant": true
    },
    {
      "inputs": [],
      "name": "decimals",
      "outputs": [
        {
          "internalType": "uint8",
          "name": "",
          "type": "uint8"
        }
      ],
      "stateMutability": "view",
      "type": "function",
      "constant": true
    },
    {
      "inputs": [
        {
          "internalType": "address",
          "name": "spender",
          "type": "address"
        },
        {
          "internalType": "uint256",
          "name": "subtractedValue",
          "type": "uint256"
        }
      ],
      "name": "decreaseAllowance",
      "outputs": [
        {
          "internalType": "bool",
          "name": "",
          "type": "bool"
        }
      ],
      "stateMutability": "nonpayable",
      "type": "function"
    },
    {
      "inputs": [
        {
          "internalType": "address",
          "name": "delegatee",
          "type": "address"
        }
      ],
      "name": "delegate",
      "outputs": [],
      "stateMutability": "nonpayable",
      "type": "function"
    },
    {
      "inputs": [
        {
          "internalType": "address",
          "name": "delegatee",
          "type": "address"
        },
        {
          "internalType": "uint256",
          "name": "nonce",
          "type": "uint256"
        },
        {
          "internalType": "uint256",
          "name": "expiry",
          "type": "uint256"
        },
        {
          "internalType": "uint8",
          "name": "v",
          "type": "uint8"
        },
        {
          "internalType": "bytes32",
          "name": "r",
          "type": "bytes32"
        },
        {
          "internalType": "bytes32",
          "name": "s",
          "type": "bytes32"
        }
      ],
      "name": "delegateBySig",
      "outputs": [],
      "stateMutability": "nonpayable",
      "type": "function"
    },
    {
      "inputs": [
        {
          "internalType": "address",
          "name": "account",
          "type": "address"
        }
      ],
      "name": "delegates",
      "outputs": [
        {
          "internalType": "address",
          "name": "",
          "type": "address"
        }
      ],
      "stateMutability": "view",
      "type": "function",
      "constant": true
    },
    {
      "inputs": [
        {
          "internalType": "uint256",
          "name": "blockNumber",
          "type": "uint256"
        }
      ],
      "name": "getPastTotalSupply",
      "outputs": [
        {
          "internalType": "uint256",
          "name": "",
          "type": "uint256"
        }
      ],
      "stateMutability": "view",
      "type": "function",
      "constant": true
    },
    {
      "inputs": [
        {
          "internalType": "address",
          "name": "account",
          "type": "address"
        },
        {
          "internalType": "uint256",
          "name": "blockNumber",
          "type": "uint256"
        }
      ],
      "name": "getPastVotes",
      "outputs": [
        {
          "internalType": "uint256",
          "name": "",
          "type": "uint256"
        }
      ],
      "stateMutability": "view",
      "type": "function",
      "constant": true
    },
    {
      "inputs": [
        {
          "internalType": "address",
          "name": "account",
          "type": "address"
        }
      ],
      "name": "getVotes",
      "outputs": [
        {
          "internalType": "uint256",
          "name": "",
          "type": "uint256"
        }
      ],
      "stateMutability": "view",
      "type": "function",
      "constant": true
    },
    {
      "inputs": [
        {
          "internalType": "address",
          "name": "spender",
          "type": "address"
        },
        {
          "internalType": "uint256",
          "name": "addedValue",
          "type": "uint256"
        }
      ],
      "name": "increaseAllowance",
      "outputs": [
        {
          "internalType": "bool",
          "name": "",
          "type": "bool"
        }
      ],
      "stateMutability": "nonpayable",
      "type": "function"
    },
    {
      "inputs": [],
      "name": "minter",
      "outputs": [
        {
          "internalType": "address",
          "name": "",
          "type": "address"
        }
      ],
      "stateMutability": "view",
      "type": "function",
      "constant": true
    },
    {
      "inputs": [],
      "name": "name",
      "outputs": [
        {
          "internalType": "string",
          "name": "",
          "type": "string"
        }
      ],
      "stateMutability": "view",
      "type": "function",
      "constant": true
    },
    {
      "inputs": [
        {
          "internalType": "address",
          "name": "owner",
          "type": "address"
        }
      ],
      "name": "nonces",
      "outputs": [
        {
          "internalType": "uint256",
          "name": "",
          "type": "uint256"
        }
      ],
      "stateMutability": "view",
      "type": "function",
      "constant": true
    },
    {
      "inputs": [
        {
          "internalType": "address",
          "name": "account",
          "type": "address"
        }
      ],
      "name": "numCheckpoints",
      "outputs": [
        {
          "internalType": "uint32",
          "name": "",
          "type": "uint32"
        }
      ],
      "stateMutability": "view",
      "type": "function",
      "constant": true
    },
    {
      "inputs": [],
      "name": "owner",
      "outputs": [
        {
          "internalType": "address",
          "name": "",
          "type": "address"
        }
      ],
      "stateMutability": "view",
      "type": "function",
      "constant": true
    },
    {
      "inputs": [
        {
          "internalType": "address",
          "name": "owner",
          "type": "address"
        },
        {
          "internalType": "address",
          "name": "spender",
          "type": "address"
        },
        {
          "internalType": "uint256",
          "name": "value",
          "type": "uint256"
        },
        {
          "internalType": "uint256",
          "name": "deadline",
          "type": "uint256"
        },
        {
          "internalType": "uint8",
          "name": "v",
          "type": "uint8"
        },
        {
          "internalType": "bytes32",
          "name": "r",
          "type": "bytes32"
        },
        {
          "internalType": "bytes32",
          "name": "s",
          "type": "bytes32"
        }
      ],
      "name": "permit",
      "outputs": [],
      "stateMutability": "nonpayable",
      "type": "function"
    },
    {
      "inputs": [],
      "name": "renounceOwnership",
      "outputs": [],
      "stateMutability": "nonpayable",
      "type": "function"
    },
    {
      "inputs": [],
      "name": "symbol",
      "outputs": [
        {
          "internalType": "string",
          "name": "",
          "type": "string"
        }
      ],
      "stateMutability": "view",
      "type": "function",
      "constant": true
    },
    {
      "inputs": [],
      "name": "totalSupply",
      "outputs": [
        {
          "internalType": "uint256",
          "name": "",
          "type": "uint256"
        }
      ],
      "stateMutability": "view",
      "type": "function",
      "constant": true
    },
    {
      "inputs": [
        {
          "internalType": "address",
          "name": "recipient",
          "type": "address"
        },
        {
          "internalType": "uint256",
          "name": "amount",
          "type": "uint256"
        }
      ],
      "name": "transfer",
      "outputs": [
        {
          "internalType": "bool",
          "name": "",
          "type": "bool"
        }
      ],
      "stateMutability": "nonpayable",
      "type": "function"
    },
    {
      "inputs": [
        {
          "internalType": "address",
          "name": "sender",
          "type": "address"
        },
        {
          "internalType": "address",
          "name": "recipient",
          "type": "address"
        },
        {
          "internalType": "uint256",
          "name": "amount",
          "type": "uint256"
        }
      ],
      "name": "transferFrom",
      "outputs": [
        {
          "internalType": "bool",
          "name": "",
          "type": "bool"
        }
      ],
      "stateMutability": "nonpayable",
      "type": "function"
    },
    {
      "inputs": [
        {
          "internalType": "address",
          "name": "newOwner",
          "type": "address"
        }
      ],
      "name": "transferOwnership",
      "outputs": [],
      "stateMutability": "nonpayable",
      "type": "function"
    },
    {
      "inputs": [
        {
          "internalType": "address",
          "name": "_to",
          "type": "address"
        },
        {
          "internalType": "uint256",
          "name": "_amount",
          "type": "uint256"
        }
      ],
      "name": "mint",
      "outputs": [],
      "stateMutability": "nonpayable",
      "type": "function"
    }
  ],
  "bytecode": "0x6101406040527f6e71edae12b1b97f4d1f60370fef10105fa2faae0126114a169c64845d6126c96101205269d3c21bcecceda1000000600b553480156200004557600080fd5b5060405162002fe538038062002fe58339810160408190526200006891620009d5565b6040518060400160405280600d81526020016c25a9ba30b13632902a37b5b2b760991b81525080604051806040016040528060018152602001603160f81b8152506040518060400160405280600d81526020016c25a9ba30b13632902a37b5b2b760991b8152506040518060400160405280600381526020016212d4d560ea1b81525081600390805190602001906200010392919062000917565b5080516200011990600490602084019062000917565b5050825160208085019190912083519184019190912060c082905260e08190524660a0529091507f8b73c3c69bb8fe3d512ecc4cf759cc79239f7b179b0ffacaa9a75d522b39400f6200016e818484620002aa565b60805261010052506200019193506200018b925050620002e69050565b620002ea565b8051600a14620001be5760405162461bcd60e51b8152600401620001b59062000af7565b60405180910390fd5b816001600160a01b0316836001600160a01b03161415620001f35760405162461bcd60e51b8152600401620001b59062000b2e565b6001600160a01b0382166200021c5760405162461bcd60e51b8152600401620001b59062000bab565b62000227836200033c565b600a80546001600160a01b0319166001600160a01b03841617905560005b600a811015620002a0576200028b8282815181106200027457634e487b7160e01b600052603260045260246000fd5b6020026020010151600b54620003b960201b60201c565b80620002978162000db4565b91505062000245565b5050505062000dfe565b60008383834630604051602001620002c795949392919062000acb565b6040516020818303038152906040528051906020012090509392505050565b3390565b600980546001600160a01b038381166001600160a01b0319831681179093556040519116919082907f8be0079c531659141344cd1fd0a4f28419497f9722a3daafe3b4186f6b6457e090600090a35050565b62000346620002e6565b6001600160a01b03166200035962000433565b6001600160a01b031614620003825760405162461bcd60e51b8152600401620001b59062000c32565b6001600160a01b038116620003ab5760405162461bcd60e51b8152600401620001b59062000b65565b620003b681620002ea565b50565b620003d082826200044260201b62000b631760201c565b620003da6200051b565b6001600160e01b0316620003f36200052660201b60201c565b1115620004145760405162461bcd60e51b8152600401620001b59062000be2565b6200042d600862000c2b6200052c60201b178362000541565b50505050565b6009546001600160a01b031690565b6001600160a01b0382166200046b5760405162461bcd60e51b8152600401620001b59062000cf4565b620004796000838362000725565b80600260008282546200048d919062000d42565b90915550506001600160a01b03821660009081526020819052604081208054839290620004bc90849062000d42565b90915550506040516001600160a01b038316906000907fddf252ad1be2c89b69c2b068fc378daa952ba7f163c4a11628f55a4df523b3ef906200050190859062000d2b565b60405180910390a362000517600083836200072a565b5050565b6001600160e01b0390565b60025490565b60006200053a828462000d42565b9392505050565b8254600090819080156200059f57856200055d60018362000d5d565b815481106200057c57634e487b7160e01b600052603260045260246000fd5b60009182526020909120015464010000000090046001600160e01b0316620005a2565b60005b6001600160e01b03169250620005b983858760201c565b91506000811180156200060957504386620005d660018462000d5d565b81548110620005f557634e487b7160e01b600052603260045260246000fd5b60009182526020909120015463ffffffff16145b15620006895762000625826200076360201b62000c371760201c565b866200063360018462000d5d565b815481106200065257634e487b7160e01b600052603260045260246000fd5b9060005260206000200160000160046101000a8154816001600160e01b0302191690836001600160e01b031602179055506200071c565b856040518060400160405280620006ab436200079760201b62000c641760201c565b63ffffffff168152602001620006cc856200076360201b62000c371760201c565b6001600160e01b039081169091528254600181018455600093845260209384902083519101805493909401519091166401000000000263ffffffff91821663ffffffff1990931692909217161790555b50935093915050565b505050565b620007428383836200072560201b62000c8a1760201c565b620007256200075184620007c0565b6200075c84620007c0565b83620007de565b60006001600160e01b038211156200078f5760405162461bcd60e51b8152600401620001b59062000c67565b50805b919050565b600063ffffffff8211156200078f5760405162461bcd60e51b8152600401620001b59062000cae565b6001600160a01b039081166000908152600660205260409020541690565b816001600160a01b0316836001600160a01b031614158015620008015750600081115b1562000725576001600160a01b0383161562000886576001600160a01b0383166000908152600760209081526040822082916200084b919062000909901b62000c8f178562000541565b91509150846001600160a01b031660008051602062002fc583398151915283836040516200087b92919062000d34565b60405180910390a250505b6001600160a01b0382161562000725576001600160a01b038216600090815260076020908152604082208291620008ca91906200052c901b62000c2b178562000541565b91509150836001600160a01b031660008051602062002fc58339815191528383604051620008fa92919062000d34565b60405180910390a25050505050565b60006200053a828462000d5d565b828054620009259062000d77565b90600052602060002090601f01602090048101928262000949576000855562000994565b82601f106200096457805160ff191683800117855562000994565b8280016001018555821562000994579182015b828111156200099457825182559160200191906001019062000977565b50620009a2929150620009a6565b5090565b5b80821115620009a25760008155600101620009a7565b80516001600160a01b03811681146200079257600080fd5b600080600060608486031215620009ea578283fd5b620009f584620009bd565b9250602062000a06818601620009bd565b60408601519093506001600160401b038082111562000a23578384fd5b818701915087601f83011262000a37578384fd5b81518181111562000a4c5762000a4c62000de8565b8381026040518582820101818110858211171562000a6e5762000a6e62000de8565b604052828152858101935084860182860187018c101562000a8d578788fd5b8795505b8386101562000aba5762000aa581620009bd565b85526001959095019493860193860162000a91565b508096505050505050509250925092565b9485526020850193909352604084019190915260608301526001600160a01b0316608082015260a00190565b6020808252601d908201527f6f6e6c79206861766520313020696e766573746f722061646472657373000000604082015260600190565b60208082526016908201527f6f776e65722063616e2774206265206d696e7465722e00000000000000000000604082015260600190565b60208082526026908201527f4f776e61626c653a206e6577206f776e657220697320746865207a65726f206160408201526564647265737360d01b606082015260800190565b6020808252601a908201527f6d696e7465725f2063616e277420626520302061646472657373000000000000604082015260600190565b60208082526030908201527f4552433230566f7465733a20746f74616c20737570706c79207269736b73206f60408201526f766572666c6f77696e6720766f74657360801b606082015260800190565b6020808252818101527f4f776e61626c653a2063616c6c6572206973206e6f7420746865206f776e6572604082015260600190565b60208082526027908201527f53616665436173743a2076616c756520646f65736e27742066697420696e20326040820152663234206269747360c81b606082015260800190565b60208082526026908201527f53616665436173743a2076616c756520646f65736e27742066697420696e203360408201526532206269747360d01b606082015260800190565b6020808252601f908201527f45524332303a206d696e7420746f20746865207a65726f206164647265737300604082015260600190565b90815260200190565b918252602082015260400190565b6000821982111562000d585762000d5862000dd2565b500190565b60008282101562000d725762000d7262000dd2565b500390565b60028104600182168062000d8c57607f821691505b6020821081141562000dae57634e487b7160e01b600052602260045260246000fd5b50919050565b600060001982141562000dcb5762000dcb62000dd2565b5060010190565b634e487b7160e01b600052601160045260246000fd5b634e487b7160e01b600052604160045260246000fd5b60805160a05160c05160e051610100516101205161217762000e4e600039600061098001526000610ed301526000610f1501526000610ef401526000610e8101526000610eaa01526121776000f3fe608060405234801561001057600080fd5b50600436106101c45760003560e01c8063715018a6116100f9578063a9059cbb11610097578063d6b9a59711610071578063d6b9a59714610392578063dd62ed3e1461039a578063f1127ed8146103ad578063f2fde38b146103cd576101c4565b8063a9059cbb14610359578063c3cda5201461036c578063d505accf1461037f576101c4565b80638e539e8c116100d35780638e539e8c1461031857806395d89b411461032b5780639ab24eb014610333578063a457c2d714610346576101c4565b8063715018a6146102f55780637ecebe00146102fd5780638da5cb5b14610310576101c4565b80633950935111610166578063587cde1e11610140578063587cde1e1461029c5780635c19a95c146102af5780636fcfff45146102c257806370a08231146102e2576101c4565b806339509351146102615780633a46b1a81461027457806340c10f1914610287576101c4565b806318160ddd116101a257806318160ddd1461021c57806323b872dd14610231578063313ce567146102445780633644e51514610259576101c4565b806306fdde03146101c957806307546172146101e7578063095ea7b3146101fc575b600080fd5b6101d16103e0565b6040516101de9190611a40565b60405180910390f35b6101ef610473565b6040516101de9190611976565b61020f61020a366004611885565b610482565b6040516101de919061198a565b61022461049f565b6040516101de9190611995565b61020f61023f3660046117e1565b6104a5565b61024c61053e565b6040516101de9190612099565b610224610543565b61020f61026f366004611885565b610552565b610224610282366004611885565b6105a6565b61029a610295366004611885565b6105f0565b005b6101ef6102aa366004611795565b61064e565b61029a6102bd366004611795565b61066f565b6102d56102d0366004611795565b610683565b6040516101de9190612088565b6102246102f0366004611795565b6106ab565b61029a6106c6565b61022461030b366004611795565b610711565b6101ef610732565b610224610326366004611943565b610741565b6101d161076d565b610224610341366004611795565b61077c565b61020f610354366004611885565b610811565b61020f610367366004611885565b61088a565b61029a61037a3660046118ae565b61089e565b61029a61038d36600461181c565b61095c565b610224610a3e565b6102246103a83660046117af565b610a44565b6103c06103bb366004611905565b610a6f565b6040516101de9190612054565b61029a6103db366004611795565b610af5565b6060600380546103ef906120f6565b80601f016020809104026020016040519081016040528092919081815260200182805461041b906120f6565b80156104685780601f1061043d57610100808354040283529160200191610468565b820191906000526020600020905b81548152906001019060200180831161044b57829003601f168201915b505050505090505b90565b600a546001600160a01b031681565b600061049661048f610c9b565b8484610c9f565b50600192915050565b60025490565b60006104b2848484610d53565b6001600160a01b0384166000908152600160205260408120816104d3610c9b565b6001600160a01b03166001600160a01b031681526020019081526020016000205490508281101561051f5760405162461bcd60e51b815260040161051690611df5565b60405180910390fd5b6105338561052b610c9b565b858403610c9f565b506001949350505050565b601290565b600061054d610e7d565b905090565b600061049661055f610c9b565b84846001600061056d610c9b565b6001600160a01b03908116825260208083019390935260409182016000908120918b16815292529020546105a191906120a7565b610c9f565b60004382106105c75760405162461bcd60e51b815260040161051690611b0d565b6001600160a01b03831660009081526007602052604090206105e99083610f40565b9392505050565b600a546001600160a01b0316331461061a5760405162461bcd60e51b815260040161051690611ba1565b6001600160a01b0382166106405760405162461bcd60e51b815260040161051690611b44565b61064a8282611019565b5050565b6001600160a01b03808216600090815260066020526040902054165b919050565b61068061067a610c9b565b82611068565b50565b6001600160a01b0381166000908152600760205260408120546106a590610c64565b92915050565b6001600160a01b031660009081526020819052604090205490565b6106ce610c9b565b6001600160a01b03166106df610732565b6001600160a01b0316146107055760405162461bcd60e51b815260040161051690611e8d565b61070f60006110e8565b565b6001600160a01b03811660009081526005602052604081206106a59061113a565b6009546001600160a01b031690565b60004382106107625760405162461bcd60e51b815260040161051690611b0d565b6106a5600883610f40565b6060600480546103ef906120f6565b6001600160a01b03811660009081526007602052604081205480156107fe576001600160a01b03831660009081526007602052604090206107be6001836120df565b815481106107dc57634e487b7160e01b600052603260045260246000fd5b60009182526020909120015464010000000090046001600160e01b0316610801565b60005b6001600160e01b03169392505050565b60008060016000610820610c9b565b6001600160a01b039081168252602080830193909352604091820160009081209188168152925290205490508281101561086c5760405162461bcd60e51b815260040161051690611fd8565b610880610877610c9b565b85858403610c9f565b5060019392505050565b6000610496610897610c9b565b8484610d53565b834211156108be5760405162461bcd60e51b815260040161051690611b6a565b60006109206109187fe48329057bfd03d55e49b547132e39cffd9c1820ad7b9d4c5307691425d15adf8989896040516020016108fd94939291906119d2565b6040516020818303038152906040528051906020012061113e565b858585611151565b905061092b81611179565b86146109495760405162461bcd60e51b815260040161051690611bfe565b6109538188611068565b50505050505050565b8342111561097c5760405162461bcd60e51b815260040161051690611cbd565b60007f00000000000000000000000000000000000000000000000000000000000000008888886109ab8c611179565b896040516020016109c19695949392919061199e565b60405160208183030381529060405280519060200120905060006109e48261113e565b905060006109f482878787611151565b9050896001600160a01b0316816001600160a01b031614610a275760405162461bcd60e51b815260040161051690611dbe565b610a328a8a8a610c9f565b50505050505050505050565b600b5481565b6001600160a01b03918216600090815260016020908152604080832093909416825291909152205490565b610a77611756565b6001600160a01b0383166000908152600760205260409020805463ffffffff8416908110610ab557634e487b7160e01b600052603260045260246000fd5b60009182526020918290206040805180820190915291015463ffffffff8116825264010000000090046001600160e01b0316918101919091529392505050565b610afd610c9b565b6001600160a01b0316610b0e610732565b6001600160a01b031614610b345760405162461bcd60e51b815260040161051690611e8d565b6001600160a01b038116610b5a5760405162461bcd60e51b815260040161051690611c35565b610680816110e8565b6001600160a01b038216610b895760405162461bcd60e51b81526004016105169061201d565b610b9560008383610c8a565b8060026000828254610ba791906120a7565b90915550506001600160a01b03821660009081526020819052604081208054839290610bd49084906120a7565b90915550506040516001600160a01b038316906000907fddf252ad1be2c89b69c2b068fc378daa952ba7f163c4a11628f55a4df523b3ef90610c17908590611995565b60405180910390a361064a600083836111ab565b60006105e982846120a7565b60006001600160e01b03821115610c605760405162461bcd60e51b815260040161051690611ec2565b5090565b600063ffffffff821115610c605760405162461bcd60e51b815260040161051690611f4e565b505050565b60006105e982846120df565b3390565b6001600160a01b038316610cc55760405162461bcd60e51b815260040161051690611f94565b6001600160a01b038216610ceb5760405162461bcd60e51b815260040161051690611c7b565b6001600160a01b0380841660008181526001602090815260408083209487168084529490915290819020849055517f8c5be1e5ebec7d5bd14f71427d1e84f3dd0314c0f7b2291e5b200ac8c7c3b92590610d46908590611995565b60405180910390a3505050565b6001600160a01b038316610d795760405162461bcd60e51b815260040161051690611f09565b6001600160a01b038216610d9f5760405162461bcd60e51b815260040161051690611aca565b610daa838383610c8a565b6001600160a01b03831660009081526020819052604090205481811015610de35760405162461bcd60e51b815260040161051690611cf4565b6001600160a01b03808516600090815260208190526040808220858503905591851681529081208054849290610e1a9084906120a7565b92505081905550826001600160a01b0316846001600160a01b03167fddf252ad1be2c89b69c2b068fc378daa952ba7f163c4a11628f55a4df523b3ef84604051610e649190611995565b60405180910390a3610e778484846111ab565b50505050565b60007f0000000000000000000000000000000000000000000000000000000000000000461415610ece57507f0000000000000000000000000000000000000000000000000000000000000000610470565b610f397f00000000000000000000000000000000000000000000000000000000000000007f00000000000000000000000000000000000000000000000000000000000000007f00000000000000000000000000000000000000000000000000000000000000006111d1565b9050610470565b8154600090815b81811015610fb2576000610f5b828461120b565b905084868281548110610f7e57634e487b7160e01b600052603260045260246000fd5b60009182526020909120015463ffffffff161115610f9e57809250610fac565b610fa98160016120a7565b91505b50610f47565b81156110045784610fc46001846120df565b81548110610fe257634e487b7160e01b600052603260045260246000fd5b60009182526020909120015464010000000090046001600160e01b0316611007565b60005b6001600160e01b031695945050505050565b6110238282610b63565b61102b611226565b6001600160e01b031661103c61049f565b111561105a5760405162461bcd60e51b815260040161051690611e3d565b610e776008610c2b83611231565b60006110738361064e565b90506000611080846106ab565b6001600160a01b0385811660008181526006602052604080822080546001600160a01b031916898616908117909155905194955093928616927f3134e8a2e6d97e929a7e54011ea5485d7d196dd5f0ba4d4ef95803e8e3fc257f9190a4610e778284836113e2565b600980546001600160a01b038381166001600160a01b0319831681179093556040519116919082907f8be0079c531659141344cd1fd0a4f28419497f9722a3daafe3b4186f6b6457e090600090a35050565b5490565b60006106a561114b610e7d565b8361150d565b600080600061116287878787611540565b9150915061116f81611620565b5095945050505050565b6001600160a01b038116600090815260056020526040812061119a8161113a565b91506111a58161174d565b50919050565b6111b6838383610c8a565b610c8a6111c28461064e565b6111cb8461064e565b836113e2565b600083838346306040516020016111ec9594939291906119f6565b6040516020818303038152906040528051906020012090509392505050565b600061121a60028484186120bf565b6105e9908484166120a7565b6001600160e01b0390565b82546000908190801561128a578561124a6001836120df565b8154811061126857634e487b7160e01b600052603260045260246000fd5b60009182526020909120015464010000000090046001600160e01b031661128d565b60005b6001600160e01b031692506112a683858763ffffffff16565b91506000811180156112f2575043866112c06001846120df565b815481106112de57634e487b7160e01b600052603260045260246000fd5b60009182526020909120015463ffffffff16145b156113605761130082610c37565b8661130c6001846120df565b8154811061132a57634e487b7160e01b600052603260045260246000fd5b9060005260206000200160000160046101000a8154816001600160e01b0302191690836001600160e01b031602179055506113d9565b85604051806040016040528061137543610c64565b63ffffffff16815260200161138985610c37565b6001600160e01b039081169091528254600181018455600093845260209384902083519101805493909401519091166401000000000263ffffffff91821663ffffffff1990931692909217161790555b50935093915050565b816001600160a01b0316836001600160a01b0316141580156114045750600081115b15610c8a576001600160a01b03831615611489576001600160a01b0383166000908152600760205260408120819061143f90610c8f85611231565b91509150846001600160a01b03167fdec2bacdd2f05b59de34da9b523dff8be42e5e38e818c82fdb0bae774387a724838360405161147e92919061207a565b60405180910390a250505b6001600160a01b03821615610c8a576001600160a01b038216600090815260076020526040812081906114bf90610c2b85611231565b91509150836001600160a01b03167fdec2bacdd2f05b59de34da9b523dff8be42e5e38e818c82fdb0bae774387a72483836040516114fe92919061207a565b60405180910390a25050505050565b6000828260405160200161152292919061195b565b60405160208183030381529060405280519060200120905092915050565b6000807f7fffffffffffffffffffffffffffffff5d576e7357a4501ddfe92f46681b20a08311156115775750600090506003611617565b8460ff16601b1415801561158f57508460ff16601c14155b156115a05750600090506004611617565b6000600187878787604051600081526020016040526040516115c59493929190611a22565b6020604051602081039080840390855afa1580156115e7573d6000803e3d6000fd5b5050604051601f1901519150506001600160a01b03811661161057600060019250925050611617565b9150600090505b94509492505050565b600081600481111561164257634e487b7160e01b600052602160045260246000fd5b141561164d57610680565b600181600481111561166f57634e487b7160e01b600052602160045260246000fd5b141561168d5760405162461bcd60e51b815260040161051690611a93565b60028160048111156116af57634e487b7160e01b600052602160045260246000fd5b14156116cd5760405162461bcd60e51b815260040161051690611bc7565b60038160048111156116ef57634e487b7160e01b600052602160045260246000fd5b141561170d5760405162461bcd60e51b815260040161051690611d3a565b600481600481111561172f57634e487b7160e01b600052602160045260246000fd5b14156106805760405162461bcd60e51b815260040161051690611d7c565b80546001019055565b604080518082019091526000808252602082015290565b80356001600160a01b038116811461066a57600080fd5b803560ff8116811461066a57600080fd5b6000602082840312156117a6578081fd5b6105e98261176d565b600080604083850312156117c1578081fd5b6117ca8361176d565b91506117d86020840161176d565b90509250929050565b6000806000606084860312156117f5578081fd5b6117fe8461176d565b925061180c6020850161176d565b9150604084013590509250925092565b600080600080600080600060e0888a031215611836578283fd5b61183f8861176d565b965061184d6020890161176d565b9550604088013594506060880135935061186960808901611784565b925060a0880135915060c0880135905092959891949750929550565b60008060408385031215611897578182fd5b6118a08361176d565b946020939093013593505050565b60008060008060008060c087890312156118c6578182fd5b6118cf8761176d565b955060208701359450604087013593506118eb60608801611784565b92506080870135915060a087013590509295509295509295565b60008060408385031215611917578182fd5b6119208361176d565b9150602083013563ffffffff81168114611938578182fd5b809150509250929050565b600060208284031215611954578081fd5b5035919050565b61190160f01b81526002810192909252602282015260420190565b6001600160a01b0391909116815260200190565b901515815260200190565b90815260200190565b9586526001600160a01b0394851660208701529290931660408501526060840152608083019190915260a082015260c00190565b9384526001600160a01b039290921660208401526040830152606082015260800190565b9485526020850193909352604084019190915260608301526001600160a01b0316608082015260a00190565b93845260ff9290921660208401526040830152606082015260800190565b6000602080835283518082850152825b81811015611a6c57858101830151858201604001528201611a50565b81811115611a7d5783604083870101525b50601f01601f1916929092016040019392505050565b60208082526018908201527f45434453413a20696e76616c6964207369676e61747572650000000000000000604082015260600190565b60208082526023908201527f45524332303a207472616e7366657220746f20746865207a65726f206164647260408201526265737360e81b606082015260800190565b6020808252601f908201527f4552433230566f7465733a20626c6f636b206e6f7420796574206d696e656400604082015260600190565b6020808252600c908201526b6e6f2030206164647265737360a01b604082015260600190565b6020808252601d908201527f4552433230566f7465733a207369676e61747572652065787069726564000000604082015260600190565b6020808252600c908201526b37b7363c9036b4b73a32b91760a11b604082015260600190565b6020808252601f908201527f45434453413a20696e76616c6964207369676e6174757265206c656e67746800604082015260600190565b60208082526019908201527f4552433230566f7465733a20696e76616c6964206e6f6e636500000000000000604082015260600190565b60208082526026908201527f4f776e61626c653a206e6577206f776e657220697320746865207a65726f206160408201526564647265737360d01b606082015260800190565b60208082526022908201527f45524332303a20617070726f766520746f20746865207a65726f206164647265604082015261737360f01b606082015260800190565b6020808252601d908201527f45524332305065726d69743a206578706972656420646561646c696e65000000604082015260600190565b60208082526026908201527f45524332303a207472616e7366657220616d6f756e7420657863656564732062604082015265616c616e636560d01b606082015260800190565b60208082526022908201527f45434453413a20696e76616c6964207369676e6174757265202773272076616c604082015261756560f01b606082015260800190565b60208082526022908201527f45434453413a20696e76616c6964207369676e6174757265202776272076616c604082015261756560f01b606082015260800190565b6020808252601e908201527f45524332305065726d69743a20696e76616c6964207369676e61747572650000604082015260600190565b60208082526028908201527f45524332303a207472616e7366657220616d6f756e74206578636565647320616040820152676c6c6f77616e636560c01b606082015260800190565b60208082526030908201527f4552433230566f7465733a20746f74616c20737570706c79207269736b73206f60408201526f766572666c6f77696e6720766f74657360801b606082015260800190565b6020808252818101527f4f776e61626c653a2063616c6c6572206973206e6f7420746865206f776e6572604082015260600190565b60208082526027908201527f53616665436173743a2076616c756520646f65736e27742066697420696e20326040820152663234206269747360c81b606082015260800190565b60208082526025908201527f45524332303a207472616e736665722066726f6d20746865207a65726f206164604082015264647265737360d81b606082015260800190565b60208082526026908201527f53616665436173743a2076616c756520646f65736e27742066697420696e203360408201526532206269747360d01b606082015260800190565b60208082526024908201527f45524332303a20617070726f76652066726f6d20746865207a65726f206164646040820152637265737360e01b606082015260800190565b60208082526025908201527f45524332303a2064656372656173656420616c6c6f77616e63652062656c6f77604082015264207a65726f60d81b606082015260800190565b6020808252601f908201527f45524332303a206d696e7420746f20746865207a65726f206164647265737300604082015260600190565b815163ffffffff1681526020918201516001600160e01b03169181019190915260400190565b918252602082015260400190565b63ffffffff91909116815260200190565b60ff91909116815260200190565b600082198211156120ba576120ba61212b565b500190565b6000826120da57634e487b7160e01b81526012600452602481fd5b500490565b6000828210156120f1576120f161212b565b500390565b60028104600182168061210a57607f821691505b602082108114156111a557634e487b7160e01b600052602260045260246000fd5b634e487b7160e01b600052601160045260246000fdfea26469706673582212208a9c2dc417ea0a4f3ec010a223c9490baccc7f8efc271609af4d70e5a86712ef64736f6c63430008000033dec2bacdd2f05b59de34da9b523dff8be42e5e38e818c82fdb0bae774387a724",
  "immutableReferences": {
    "4206": [
      {
        "length": 32,
        "start": 2432
      }
    ],
    "4852": [
      {
        "length": 32,
        "start": 3754
      }
    ],
    "4854": [
      {
        "length": 32,
        "start": 3713
      }
    ],
    "4856": [
      {
        "length": 32,
        "start": 3828
      }
    ],
    "4858": [
      {
        "length": 32,
        "start": 3861
      }
    ],
    "4860": [
      {
        "length": 32,
        "start": 3795
      }
    ]
  },
  "source": "// SPDX-License-Identifier: MIT\n\npragma solidity ^0.8.0;\n\nimport \"@openzeppelin/contracts/token/ERC20/extensions/ERC20Votes.sol\";\nimport \"@openzeppelin/contracts/token/ERC20/extensions/draft-ERC20Permit.sol\";\nimport \"@openzeppelin/contracts/token/ERC20/ERC20.sol\";\nimport \"@openzeppelin/contracts/access/Ownable.sol\";\n\n/// @title KSTToken with Governance.\ncontract KSTToken is ERC20Votes, Ownable {\n    address public minter;\n\n    uint256 public TOKENS_PER_INVESTOR = 1_000_000 ether;\n\n    constructor(\n        address owner_,\n        address minter_,\n        address[] memory investors\n    ) ERC20(\"KStable Token\", \"KST\") ERC20Permit(\"KStable Token\") {\n        require(investors.length == 10, \"only have 10 investor address\");\n        require(owner_ != minter_, \"owner can't be minter.\");\n        require(minter_ != address(0), \"minter_ can't be 0 address\");\n        transferOwnership(owner_);\n        minter = minter_;\n        for (uint256 i = 0; i < 10; i++) {\n            _mint(investors[i], TOKENS_PER_INVESTOR);\n        }\n    }\n\n    /// @notice Creates `_amount` token to `_to`.\n    function mint(address _to, uint256 _amount) public {\n        require(msg.sender == minter, \"only minter.\");\n        require(_to != address(0), \"no 0 address\");\n        _mint(_to, _amount);\n    }\n}\n",
  "sourcePath": "/Users/zhangleping/github.com/0x5dA1/kstable-contracts/contracts/KSTToken.sol",
  "compiler": {
    "name": "solc",
    "version": "0.8.0+commit.c7dfd78e.Emscripten.clang"
  },
  "schemaVersion": "3.4.1",
  "updatedAt": "2022-05-24T08:14:59.612Z",
  "networkType": "ethereum",
  "devdoc": {
    "kind": "dev",
    "methods": {
      "DOMAIN_SEPARATOR()": {
        "details": "See {IERC20Permit-DOMAIN_SEPARATOR}."
      },
      "allowance(address,address)": {
        "details": "See {IERC20-allowance}."
      },
      "approve(address,uint256)": {
        "details": "See {IERC20-approve}. Requirements: - `spender` cannot be the zero address."
      },
      "balanceOf(address)": {
        "details": "See {IERC20-balanceOf}."
      },
      "checkpoints(address,uint32)": {
        "details": "Get the `pos`-th checkpoint for `account`."
      },
      "decimals()": {
        "details": "Returns the number of decimals used to get its user representation. For example, if `decimals` equals `2`, a balance of `505` tokens should be displayed to a user as `5.05` (`505 / 10 ** 2`). Tokens usually opt for a value of 18, imitating the relationship between Ether and Wei. This is the value {ERC20} uses, unless this function is overridden; NOTE: This information is only used for _display_ purposes: it in no way affects any of the arithmetic of the contract, including {IERC20-balanceOf} and {IERC20-transfer}."
      },
      "decreaseAllowance(address,uint256)": {
        "details": "Atomically decreases the allowance granted to `spender` by the caller. This is an alternative to {approve} that can be used as a mitigation for problems described in {IERC20-approve}. Emits an {Approval} event indicating the updated allowance. Requirements: - `spender` cannot be the zero address. - `spender` must have allowance for the caller of at least `subtractedValue`."
      },
      "delegate(address)": {
        "details": "Delegate votes from the sender to `delegatee`."
      },
      "delegateBySig(address,uint256,uint256,uint8,bytes32,bytes32)": {
        "details": "Delegates votes from signer to `delegatee`"
      },
      "delegates(address)": {
        "details": "Get the address `account` is currently delegating to."
      },
      "getPastTotalSupply(uint256)": {
        "details": "Retrieve the `totalSupply` at the end of `blockNumber`. Note, this value is the sum of all balances. It is but NOT the sum of all the delegated votes! Requirements: - `blockNumber` must have been already mined"
      },
      "getPastVotes(address,uint256)": {
        "details": "Retrieve the number of votes for `account` at the end of `blockNumber`. Requirements: - `blockNumber` must have been already mined"
      },
      "getVotes(address)": {
        "details": "Gets the current votes balance for `account`"
      },
      "increaseAllowance(address,uint256)": {
        "details": "Atomically increases the allowance granted to `spender` by the caller. This is an alternative to {approve} that can be used as a mitigation for problems described in {IERC20-approve}. Emits an {Approval} event indicating the updated allowance. Requirements: - `spender` cannot be the zero address."
      },
      "name()": {
        "details": "Returns the name of the token."
      },
      "nonces(address)": {
        "details": "See {IERC20Permit-nonces}."
      },
      "numCheckpoints(address)": {
        "details": "Get number of checkpoints for `account`."
      },
      "owner()": {
        "details": "Returns the address of the current owner."
      },
      "permit(address,address,uint256,uint256,uint8,bytes32,bytes32)": {
        "details": "See {IERC20Permit-permit}."
      },
      "renounceOwnership()": {
        "details": "Leaves the contract without owner. It will not be possible to call `onlyOwner` functions anymore. Can only be called by the current owner. NOTE: Renouncing ownership will leave the contract without an owner, thereby removing any functionality that is only available to the owner."
      },
      "symbol()": {
        "details": "Returns the symbol of the token, usually a shorter version of the name."
      },
      "totalSupply()": {
        "details": "See {IERC20-totalSupply}."
      },
      "transfer(address,uint256)": {
        "details": "See {IERC20-transfer}. Requirements: - `recipient` cannot be the zero address. - the caller must have a balance of at least `amount`."
      },
      "transferFrom(address,address,uint256)": {
        "details": "See {IERC20-transferFrom}. Emits an {Approval} event indicating the updated allowance. This is not required by the EIP. See the note at the beginning of {ERC20}. Requirements: - `sender` and `recipient` cannot be the zero address. - `sender` must have a balance of at least `amount`. - the caller must have allowance for ``sender``'s tokens of at least `amount`."
      },
      "transferOwnership(address)": {
        "details": "Transfers ownership of the contract to a new account (`newOwner`). Can only be called by the current owner."
      }
    },
    "title": "KSTToken with Governance.",
    "version": 1
  },
  "userdoc": {
    "kind": "user",
    "methods": {
      "mint(address,uint256)": {
        "notice": "Creates `_amount` token to `_to`."
      }
    },
    "version": 1
  }
}