{
  "contractName": "Refund",
  "abi": [
    {
      "inputs": [
        {
          "internalType": "address",
          "name": "_owner",
          "type": "address"
        },
        {
          "internalType": "address",
          "name": "_token",
          "type": "address"
        }
      ],
      "stateMutability": "nonpayable",
      "type": "constructor"
    },
    {
      "anonymous": false,
      "inputs": [
        {
          "indexed": false,
          "internalType": "address",
          "name": "_user",
          "type": "address"
        },
        {
          "indexed": false,
          "internalType": "uint256",
          "name": "_fund",
          "type": "uint256"
        },
        {
          "indexed": false,
          "internalType": "uint256",
          "name": "_totalFund",
          "type": "uint256"
        }
      ],
      "name": "AddUser",
      "type": "event"
    },
    {
      "anonymous": false,
      "inputs": [
        {
          "indexed": true,
          "internalType": "address",
          "name": "previousOwner",
          "type": "address"
        },
        {
          "indexed": true,
          "internalType": "address",
          "name": "newOwner",
          "type": "address"
        }
      ],
      "name": "OwnershipTransferred",
      "type": "event"
    },
    {
      "inputs": [],
      "name": "TOTAL_FUND",
      "outputs": [
        {
          "internalType": "uint256",
          "name": "",
          "type": "uint256"
        }
      ],
      "stateMutability": "view",
      "type": "function",
      "constant": true
    },
    {
      "inputs": [],
      "name": "owner",
      "outputs": [
        {
          "internalType": "address",
          "name": "",
          "type": "address"
        }
      ],
      "stateMutability": "view",
      "type": "function",
      "constant": true
    },
    {
      "inputs": [],
      "name": "renounceOwnership",
      "outputs": [],
      "stateMutability": "nonpayable",
      "type": "function"
    },
    {
      "inputs": [],
      "name": "token",
      "outputs": [
        {
          "internalType": "address",
          "name": "",
          "type": "address"
        }
      ],
      "stateMutability": "view",
      "type": "function",
      "constant": true
    },
    {
      "inputs": [],
      "name": "totalFund",
      "outputs": [
        {
          "internalType": "uint256",
          "name": "",
          "type": "uint256"
        }
      ],
      "stateMutability": "view",
      "type": "function",
      "constant": true
    },
    {
      "inputs": [
        {
          "internalType": "address",
          "name": "newOwner",
          "type": "address"
        }
      ],
      "name": "transferOwnership",
      "outputs": [],
      "stateMutability": "nonpayable",
      "type": "function"
    },
    {
      "inputs": [
        {
          "internalType": "address",
          "name": "",
          "type": "address"
        }
      ],
      "name": "userExists",
      "outputs": [
        {
          "internalType": "bool",
          "name": "",
          "type": "bool"
        }
      ],
      "stateMutability": "view",
      "type": "function",
      "constant": true
    },
    {
      "inputs": [
        {
          "internalType": "address",
          "name": "",
          "type": "address"
        }
      ],
      "name": "userInfo",
      "outputs": [
        {
          "internalType": "uint256",
          "name": "fund",
          "type": "uint256"
        },
        {
          "internalType": "bool",
          "name": "refundable",
          "type": "bool"
        }
      ],
      "stateMutability": "view",
      "type": "function",
      "constant": true
    },
    {
      "inputs": [
        {
          "internalType": "address",
          "name": "_user",
          "type": "address"
        },
        {
          "internalType": "uint256",
          "name": "_fund",
          "type": "uint256"
        }
      ],
      "name": "add",
      "outputs": [],
      "stateMutability": "nonpayable",
      "type": "function"
    },
    {
      "inputs": [
        {
          "internalType": "uint256",
          "name": "_fund",
          "type": "uint256"
        }
      ],
      "name": "fillFunds",
      "outputs": [],
      "stateMutability": "nonpayable",
      "type": "function"
    },
    {
      "inputs": [],
      "name": "withdraw",
      "outputs": [],
      "stateMutability": "nonpayable",
      "type": "function"
    },
    {
      "inputs": [],
      "name": "withdrawAll",
      "outputs": [],
      "stateMutability": "nonpayable",
      "type": "function"
    }
  ],
  "bytecode": "0x60806040526824fbfe883702cf5e006003553480156200001e57600080fd5b506040516200115338038062001153833981810160405260408110156200004457600080fd5b5080516020909101516000620000626001600160e01b036200018516565b600080546001600160a01b0319166001600160a01b03831690811782556040519293509160008051602062001133833981519152908290a350600180556001600160a01b038216620000fb576040805162461bcd60e51b815260206004820152601960248201527f5f6f776e65722063616e27742062652030206164647265737300000000000000604482015290519081900360640190fd5b6001600160a01b03811662000157576040805162461bcd60e51b815260206004820152601960248201527f5f746f6b656e2063616e27742062652030206164647265737300000000000000604482015290519081900360640190fd5b600280546001600160a01b0319166001600160a01b0383161790556200017d8262000189565b5050620002b4565b3390565b6200019c6001600160e01b036200018516565b6001600160a01b0316620001b86001600160e01b03620002a516565b6001600160a01b03161462000214576040805162461bcd60e51b815260206004820181905260248201527f4f776e61626c653a2063616c6c6572206973206e6f7420746865206f776e6572604482015290519081900360640190fd5b6001600160a01b0381166200025b5760405162461bcd60e51b81526004018080602001828103825260268152602001806200110d6026913960400191505060405180910390fd5b600080546040516001600160a01b03808516939216916000805160206200113383398151915291a3600080546001600160a01b0319166001600160a01b0392909216919091179055565b6000546001600160a01b031690565b610e4980620002c46000396000f3fe608060405234801561001057600080fd5b50600436106100b45760003560e01c8063715018a611610071578063715018a61461017b578063853828b6146101835780638da5cb5b1461018b578063f2fde38b146101af578063f5d82b6b146101d5578063fc0c546a14610201576100b4565b806303f07e37146100b95780630e666e49146100d8578063100aca47146101125780631959a0021461012c5780631f9ad4c41461016b5780633ccfd60b14610173575b600080fd5b6100d6600480360360208110156100cf57600080fd5b5035610209565b005b6100fe600480360360208110156100ee57600080fd5b50356001600160a01b0316610309565b604080519115158252519081900360200190f35b61011a61031e565b60408051918252519081900360200190f35b6101526004803603602081101561014257600080fd5b50356001600160a01b0316610324565b6040805192835290151560208301528051918290030190f35b61011a610340565b6100d6610346565b6100d661054b565b6100d66105f7565b6101936106ed565b604080516001600160a01b039092168252519081900360200190f35b6100d6600480360360208110156101c557600080fd5b50356001600160a01b03166106fc565b6100d6600480360360408110156101eb57600080fd5b506001600160a01b0381351690602001356107fe565b610193610a6e565b600254604080516370a0823160e01b815230600482015290516000926102959285926001600160a01b03909216916370a0823191602480820192602092909190829003018186803b15801561025d57600080fd5b505afa158015610271573d6000803e3d6000fd5b505050506040513d602081101561028757600080fd5b50519063ffffffff610a7d16565b905080600354146102ed576040805162461bcd60e51b815260206004820152601c60248201527f6d6f7265206f72206c657373207468656e20544f54414c5f46554e4400000000604482015290519081900360640190fd5b600254610305906001600160a01b0316333085610ade565b5050565b60056020526000908152604090205460ff1681565b60065481565b6004602052600090815260409020805460019091015460ff1682565b60035481565b6002600154141561039e576040805162461bcd60e51b815260206004820152601f60248201527f5265656e7472616e637947756172643a207265656e7472616e742063616c6c00604482015290519081900360640190fd5b60026001553360009081526005602052604090205460ff166103f9576040805162461bcd60e51b815260206004820152600f60248201526e3ab9b2b91037379032bc34b9ba399760891b604482015290519081900360640190fd5b336000908152600460205260409020600181015460ff16610457576040805162461bcd60e51b81526020600482015260136024820152722fbab9b2b91031b0b713ba103932b33ab7321760691b604482015290519081900360640190fd5b60018101805460ff19169055600254604080516370a0823160e01b815230600482015290516000926001600160a01b0316916370a08231916024808301926020929190829003018186803b1580156104ae57600080fd5b505afa1580156104c2573d6000803e3d6000fd5b505050506040513d60208110156104d857600080fd5b50518254909150811015610529576040805162461bcd60e51b815260206004820152601360248201527234b739bab33334b1b4b2b73a10333ab732399760691b604482015290519081900360640190fd5b6002548254610543916001600160a01b0316903390610c3b565b505060018055565b610553610da5565b6001600160a01b03166105646106ed565b6001600160a01b0316146105ad576040805162461bcd60e51b81526020600482018190526024820152600080516020610dd0833981519152604482015290519081900360640190fd5b600080546040516001600160a01b03909116907f8be0079c531659141344cd1fd0a4f28419497f9722a3daafe3b4186f6b6457e0908390a3600080546001600160a01b0319169055565b6105ff610da5565b6001600160a01b03166106106106ed565b6001600160a01b031614610659576040805162461bcd60e51b81526020600482018190526024820152600080516020610dd0833981519152604482015290519081900360640190fd5b600254604080516370a0823160e01b815230600482015290516000926001600160a01b0316916370a08231916024808301926020929190829003018186803b1580156106a457600080fd5b505afa1580156106b8573d6000803e3d6000fd5b505050506040513d60208110156106ce57600080fd5b50516002549091506106ea906001600160a01b03163383610c3b565b50565b6000546001600160a01b031690565b610704610da5565b6001600160a01b03166107156106ed565b6001600160a01b03161461075e576040805162461bcd60e51b81526020600482018190526024820152600080516020610dd0833981519152604482015290519081900360640190fd5b6001600160a01b0381166107a35760405162461bcd60e51b8152600401808060200182810382526026815260200180610daa6026913960400191505060405180910390fd5b600080546040516001600160a01b03808516939216917f8be0079c531659141344cd1fd0a4f28419497f9722a3daafe3b4186f6b6457e091a3600080546001600160a01b0319166001600160a01b0392909216919091179055565b610806610da5565b6001600160a01b03166108176106ed565b6001600160a01b031614610860576040805162461bcd60e51b81526020600482018190526024820152600080516020610dd0833981519152604482015290519081900360640190fd5b6001600160a01b0382166108bb576040805162461bcd60e51b815260206004820152601860248201527f5f757365722063616e2774206265203020616464726573730000000000000000604482015290519081900360640190fd5b8061090d576040805162461bcd60e51b815260206004820152601860248201527f5f66756e642063616e2774206265203020616464726573730000000000000000604482015290519081900360640190fd5b6001600160a01b03821660009081526005602052604090205460ff161561096b576040805162461bcd60e51b815260206004820152600d60248201526c2fbab9b2b91032bc39b4ba399760991b604482015290519081900360640190fd5b6001600160a01b0382166000908152600560205260408120805460ff191660011790556006546109a1908363ffffffff610a7d16565b90506003548111156109fa576040805162461bcd60e51b815260206004820152601860248201527f757365722069732066756c6c20666f7220726566756e642e0000000000000000604482015290519081900360640190fd5b6001600160a01b0383166000818152600460209081526040918290208581556001908101805460ff19169091179055600684905581519283528201849052818101839052517f0277aadb9de95abc9eefcd360ccf3ade30d6afe3e0ab210c9ba671ee90f803e29181900360600190a1505050565b6002546001600160a01b031681565b600082820183811015610ad7576040805162461bcd60e51b815260206004820152601b60248201527f536166654d6174683a206164646974696f6e206f766572666c6f770000000000604482015290519081900360640190fd5b9392505050565b604080516001600160a01b0385811660248301528481166044830152606480830185905283518084039091018152608490920183526020820180516001600160e01b03166323b872dd60e01b17815292518251600094606094938a169392918291908083835b60208310610b635780518252601f199092019160209182019101610b44565b6001836020036101000a0380198251168184511680821785525050505050509050019150506000604051808303816000865af19150503d8060008114610bc5576040519150601f19603f3d011682016040523d82523d6000602084013e610bca565b606091505b5091509150818015610bf8575080511580610bf85750808060200190516020811015610bf557600080fd5b50515b610c335760405162461bcd60e51b8152600401808060200182810382526024815260200180610df06024913960400191505060405180910390fd5b505050505050565b604080516001600160a01b038481166024830152604480830185905283518084039091018152606490920183526020820180516001600160e01b031663a9059cbb60e01b178152925182516000946060949389169392918291908083835b60208310610cb85780518252601f199092019160209182019101610c99565b6001836020036101000a0380198251168184511680821785525050505050509050019150506000604051808303816000865af19150503d8060008114610d1a576040519150601f19603f3d011682016040523d82523d6000602084013e610d1f565b606091505b5091509150818015610d4d575080511580610d4d5750808060200190516020811015610d4a57600080fd5b50515b610d9e576040805162461bcd60e51b815260206004820152601f60248201527f5472616e7366657248656c7065723a205452414e534645525f4641494c454400604482015290519081900360640190fd5b5050505050565b339056fe4f776e61626c653a206e6577206f776e657220697320746865207a65726f20616464726573734f776e61626c653a2063616c6c6572206973206e6f7420746865206f776e65725472616e7366657248656c7065723a205452414e534645525f46524f4d5f4641494c4544a2646970667358221220b0d2ea53fc4a1a1ba3bd95dbc3269a4c57a6cd8157217d13aad7d3622ee090a164736f6c634300060600334f776e61626c653a206e6577206f776e657220697320746865207a65726f20616464726573738be0079c531659141344cd1fd0a4f28419497f9722a3daafe3b4186f6b6457e0",
  "immutableReferences": {},
  "source": "// SPDX-License-Identifier: MIT\n\npragma solidity ^0.6.0;\n\nimport \"./interfaces/IBEP20.sol\";\nimport \"@openzeppelin/contracts/math/SafeMath.sol\";\nimport \"@openzeppelin/contracts/access/Ownable.sol\";\nimport \"./lib/TransferHelper.sol\";\nimport \"@openzeppelin/contracts/utils/ReentrancyGuard.sol\";\n\ncontract Refund is Ownable, ReentrancyGuard {\n    using SafeMath for uint256;\n\n    address public token;\n\n    uint256 public TOTAL_FUND = 682_240_887_171_000_000_000;\n\n    struct UserInfo {\n        uint256 fund; // user's volume\n        bool refundable; // Last transaction block\n    }\n\n    mapping(address => UserInfo) public userInfo;\n    mapping(address => bool) public userExists;\n\n    uint256 public totalFund;\n\n    event AddUser(address _user, uint256 _fund, uint256 _totalFund);\n\n    constructor(address _owner, address _token) public {\n        require(_owner != address(0), \"_owner can't be 0 address\");\n        require(_token != address(0), \"_token can't be 0 address\");\n        token = _token;\n        transferOwnership(_owner);\n    }\n\n    function add(address _user, uint256 _fund) external onlyOwner {\n        require(_user != address(0), \"_user can't be 0 address\");\n        require(_fund != 0, \"_fund can't be 0 address\");\n        require(!userExists[_user], \"_user exsits.\");\n        userExists[_user] = true;\n        uint256 _totalFund = totalFund.add(_fund);\n        require(_totalFund <= TOTAL_FUND, \"user is full for refund.\");\n        userInfo[_user].fund = _fund;\n        userInfo[_user].refundable = true;\n        totalFund = _totalFund;\n        emit AddUser(_user, _fund, _totalFund);\n    }\n\n    function fillFunds(uint256 _fund) external {\n        uint256 _bal = IBEP20(token).balanceOf(address(this)).add(_fund);\n        require(TOTAL_FUND == _bal, \"more or less then TOTAL_FUND\");\n        TransferHelper.safeTransferFrom(\n            token,\n            msg.sender,\n            address(this),\n            _fund\n        );\n    }\n\n    function withdraw() external nonReentrant {\n        require(userExists[msg.sender], \"user no exists.\");\n        UserInfo storage _user = userInfo[msg.sender];\n        require(_user.refundable, \"_user can't refund.\");\n        _user.refundable = false;\n        uint256 bal = IBEP20(token).balanceOf(address(this));\n        require(bal >= _user.fund, \"insufficient funds.\");\n        TransferHelper.safeTransfer(token, msg.sender, _user.fund);\n    }\n\n    function withdrawAll() external onlyOwner {\n        uint256 bal = IBEP20(token).balanceOf(address(this));\n        TransferHelper.safeTransfer(token, msg.sender, bal);\n    }\n}\n",
  "sourcePath": "/Users/zhangleping/github.com/0xa8c81519/contracts-210510/contracts/Refund.sol",
  "compiler": {
    "name": "solc",
    "version": "0.6.6+commit.6c089d02.Emscripten.clang"
  },
  "schemaVersion": "3.4.1",
  "updatedAt": "2021-06-24T05:35:49.057Z",
  "networkType": "ethereum",
  "devdoc": {
    "methods": {
      "owner()": {
        "details": "Returns the address of the current owner."
      },
      "renounceOwnership()": {
        "details": "Leaves the contract without owner. It will not be possible to call `onlyOwner` functions anymore. Can only be called by the current owner.     * NOTE: Renouncing ownership will leave the contract without an owner, thereby removing any functionality that is only available to the owner."
      },
      "transferOwnership(address)": {
        "details": "Transfers ownership of the contract to a new account (`newOwner`). Can only be called by the current owner."
      }
    }
  },
  "userdoc": {
    "methods": {}
  }
}