{
  "contractName": "BStableTokenV2",
  "abi": [
    {
      "inputs": [
        {
          "internalType": "address",
          "name": "owner",
          "type": "address"
        },
        {
          "internalType": "address",
          "name": "minter_",
          "type": "address"
        },
        {
          "internalType": "address[]",
          "name": "investors",
          "type": "address[]"
        }
      ],
      "stateMutability": "nonpayable",
      "type": "constructor"
    },
    {
      "anonymous": false,
      "inputs": [
        {
          "indexed": true,
          "internalType": "address",
          "name": "owner",
          "type": "address"
        },
        {
          "indexed": true,
          "internalType": "address",
          "name": "spender",
          "type": "address"
        },
        {
          "indexed": false,
          "internalType": "uint256",
          "name": "value",
          "type": "uint256"
        }
      ],
      "name": "Approval",
      "type": "event"
    },
    {
      "anonymous": false,
      "inputs": [
        {
          "indexed": true,
          "internalType": "address",
          "name": "delegator",
          "type": "address"
        },
        {
          "indexed": true,
          "internalType": "address",
          "name": "fromDelegate",
          "type": "address"
        },
        {
          "indexed": true,
          "internalType": "address",
          "name": "toDelegate",
          "type": "address"
        }
      ],
      "name": "DelegateChanged",
      "type": "event"
    },
    {
      "anonymous": false,
      "inputs": [
        {
          "indexed": true,
          "internalType": "address",
          "name": "delegate",
          "type": "address"
        },
        {
          "indexed": false,
          "internalType": "uint256",
          "name": "previousBalance",
          "type": "uint256"
        },
        {
          "indexed": false,
          "internalType": "uint256",
          "name": "newBalance",
          "type": "uint256"
        }
      ],
      "name": "DelegateVotesChanged",
      "type": "event"
    },
    {
      "anonymous": false,
      "inputs": [
        {
          "indexed": true,
          "internalType": "address",
          "name": "previousOwner",
          "type": "address"
        },
        {
          "indexed": true,
          "internalType": "address",
          "name": "newOwner",
          "type": "address"
        }
      ],
      "name": "OwnershipTransferred",
      "type": "event"
    },
    {
      "anonymous": false,
      "inputs": [
        {
          "indexed": true,
          "internalType": "address",
          "name": "from",
          "type": "address"
        },
        {
          "indexed": true,
          "internalType": "address",
          "name": "to",
          "type": "address"
        },
        {
          "indexed": false,
          "internalType": "uint256",
          "name": "value",
          "type": "uint256"
        }
      ],
      "name": "Transfer",
      "type": "event"
    },
    {
      "inputs": [],
      "name": "DELEGATION_TYPEHASH",
      "outputs": [
        {
          "internalType": "bytes32",
          "name": "",
          "type": "bytes32"
        }
      ],
      "stateMutability": "view",
      "type": "function"
    },
    {
      "inputs": [],
      "name": "DOMAIN_TYPEHASH",
      "outputs": [
        {
          "internalType": "bytes32",
          "name": "",
          "type": "bytes32"
        }
      ],
      "stateMutability": "view",
      "type": "function"
    },
    {
      "inputs": [],
      "name": "TOKENS_PER_INVESTOR",
      "outputs": [
        {
          "internalType": "uint256",
          "name": "",
          "type": "uint256"
        }
      ],
      "stateMutability": "view",
      "type": "function"
    },
    {
      "inputs": [
        {
          "internalType": "address",
          "name": "owner",
          "type": "address"
        },
        {
          "internalType": "address",
          "name": "spender",
          "type": "address"
        }
      ],
      "name": "allowance",
      "outputs": [
        {
          "internalType": "uint256",
          "name": "",
          "type": "uint256"
        }
      ],
      "stateMutability": "view",
      "type": "function"
    },
    {
      "inputs": [
        {
          "internalType": "address",
          "name": "spender",
          "type": "address"
        },
        {
          "internalType": "uint256",
          "name": "amount",
          "type": "uint256"
        }
      ],
      "name": "approve",
      "outputs": [
        {
          "internalType": "bool",
          "name": "",
          "type": "bool"
        }
      ],
      "stateMutability": "nonpayable",
      "type": "function"
    },
    {
      "inputs": [
        {
          "internalType": "address",
          "name": "account",
          "type": "address"
        }
      ],
      "name": "balanceOf",
      "outputs": [
        {
          "internalType": "uint256",
          "name": "",
          "type": "uint256"
        }
      ],
      "stateMutability": "view",
      "type": "function"
    },
    {
      "inputs": [
        {
          "internalType": "uint256",
          "name": "amount",
          "type": "uint256"
        }
      ],
      "name": "burn",
      "outputs": [],
      "stateMutability": "nonpayable",
      "type": "function"
    },
    {
      "inputs": [
        {
          "internalType": "address",
          "name": "account",
          "type": "address"
        },
        {
          "internalType": "uint256",
          "name": "amount",
          "type": "uint256"
        }
      ],
      "name": "burnFrom",
      "outputs": [],
      "stateMutability": "nonpayable",
      "type": "function"
    },
    {
      "inputs": [
        {
          "internalType": "address",
          "name": "",
          "type": "address"
        },
        {
          "internalType": "uint32",
          "name": "",
          "type": "uint32"
        }
      ],
      "name": "checkpoints",
      "outputs": [
        {
          "internalType": "uint32",
          "name": "fromBlock",
          "type": "uint32"
        },
        {
          "internalType": "uint256",
          "name": "votes",
          "type": "uint256"
        }
      ],
      "stateMutability": "view",
      "type": "function"
    },
    {
      "inputs": [],
      "name": "decimals",
      "outputs": [
        {
          "internalType": "uint8",
          "name": "",
          "type": "uint8"
        }
      ],
      "stateMutability": "view",
      "type": "function"
    },
    {
      "inputs": [
        {
          "internalType": "address",
          "name": "spender",
          "type": "address"
        },
        {
          "internalType": "uint256",
          "name": "subtractedValue",
          "type": "uint256"
        }
      ],
      "name": "decreaseAllowance",
      "outputs": [
        {
          "internalType": "bool",
          "name": "",
          "type": "bool"
        }
      ],
      "stateMutability": "nonpayable",
      "type": "function"
    },
    {
      "inputs": [
        {
          "internalType": "address",
          "name": "spender",
          "type": "address"
        },
        {
          "internalType": "uint256",
          "name": "addedValue",
          "type": "uint256"
        }
      ],
      "name": "increaseAllowance",
      "outputs": [
        {
          "internalType": "bool",
          "name": "",
          "type": "bool"
        }
      ],
      "stateMutability": "nonpayable",
      "type": "function"
    },
    {
      "inputs": [],
      "name": "minter",
      "outputs": [
        {
          "internalType": "address",
          "name": "",
          "type": "address"
        }
      ],
      "stateMutability": "view",
      "type": "function"
    },
    {
      "inputs": [],
      "name": "name",
      "outputs": [
        {
          "internalType": "string",
          "name": "",
          "type": "string"
        }
      ],
      "stateMutability": "view",
      "type": "function"
    },
    {
      "inputs": [
        {
          "internalType": "address",
          "name": "",
          "type": "address"
        }
      ],
      "name": "nonces",
      "outputs": [
        {
          "internalType": "uint256",
          "name": "",
          "type": "uint256"
        }
      ],
      "stateMutability": "view",
      "type": "function"
    },
    {
      "inputs": [
        {
          "internalType": "address",
          "name": "",
          "type": "address"
        }
      ],
      "name": "numCheckpoints",
      "outputs": [
        {
          "internalType": "uint32",
          "name": "",
          "type": "uint32"
        }
      ],
      "stateMutability": "view",
      "type": "function"
    },
    {
      "inputs": [],
      "name": "owner",
      "outputs": [
        {
          "internalType": "address",
          "name": "",
          "type": "address"
        }
      ],
      "stateMutability": "view",
      "type": "function"
    },
    {
      "inputs": [],
      "name": "renounceOwnership",
      "outputs": [],
      "stateMutability": "nonpayable",
      "type": "function"
    },
    {
      "inputs": [],
      "name": "symbol",
      "outputs": [
        {
          "internalType": "string",
          "name": "",
          "type": "string"
        }
      ],
      "stateMutability": "view",
      "type": "function"
    },
    {
      "inputs": [],
      "name": "totalSupply",
      "outputs": [
        {
          "internalType": "uint256",
          "name": "",
          "type": "uint256"
        }
      ],
      "stateMutability": "view",
      "type": "function"
    },
    {
      "inputs": [
        {
          "internalType": "address",
          "name": "recipient",
          "type": "address"
        },
        {
          "internalType": "uint256",
          "name": "amount",
          "type": "uint256"
        }
      ],
      "name": "transfer",
      "outputs": [
        {
          "internalType": "bool",
          "name": "",
          "type": "bool"
        }
      ],
      "stateMutability": "nonpayable",
      "type": "function"
    },
    {
      "inputs": [
        {
          "internalType": "address",
          "name": "sender",
          "type": "address"
        },
        {
          "internalType": "address",
          "name": "recipient",
          "type": "address"
        },
        {
          "internalType": "uint256",
          "name": "amount",
          "type": "uint256"
        }
      ],
      "name": "transferFrom",
      "outputs": [
        {
          "internalType": "bool",
          "name": "",
          "type": "bool"
        }
      ],
      "stateMutability": "nonpayable",
      "type": "function"
    },
    {
      "inputs": [
        {
          "internalType": "address",
          "name": "newOwner",
          "type": "address"
        }
      ],
      "name": "transferOwnership",
      "outputs": [],
      "stateMutability": "nonpayable",
      "type": "function"
    },
    {
      "inputs": [
        {
          "internalType": "address",
          "name": "_to",
          "type": "address"
        },
        {
          "internalType": "uint256",
          "name": "_amount",
          "type": "uint256"
        }
      ],
      "name": "mint",
      "outputs": [],
      "stateMutability": "nonpayable",
      "type": "function"
    },
    {
      "inputs": [
        {
          "internalType": "address",
          "name": "delegator",
          "type": "address"
        }
      ],
      "name": "delegates",
      "outputs": [
        {
          "internalType": "address",
          "name": "",
          "type": "address"
        }
      ],
      "stateMutability": "view",
      "type": "function"
    },
    {
      "inputs": [
        {
          "internalType": "address",
          "name": "delegatee",
          "type": "address"
        }
      ],
      "name": "delegate",
      "outputs": [],
      "stateMutability": "nonpayable",
      "type": "function"
    },
    {
      "inputs": [
        {
          "internalType": "address",
          "name": "delegatee",
          "type": "address"
        },
        {
          "internalType": "uint256",
          "name": "nonce",
          "type": "uint256"
        },
        {
          "internalType": "uint256",
          "name": "expiry",
          "type": "uint256"
        },
        {
          "internalType": "uint8",
          "name": "v",
          "type": "uint8"
        },
        {
          "internalType": "bytes32",
          "name": "r",
          "type": "bytes32"
        },
        {
          "internalType": "bytes32",
          "name": "s",
          "type": "bytes32"
        }
      ],
      "name": "delegateBySig",
      "outputs": [],
      "stateMutability": "nonpayable",
      "type": "function"
    },
    {
      "inputs": [
        {
          "internalType": "address",
          "name": "account",
          "type": "address"
        }
      ],
      "name": "getCurrentVotes",
      "outputs": [
        {
          "internalType": "uint256",
          "name": "",
          "type": "uint256"
        }
      ],
      "stateMutability": "view",
      "type": "function"
    },
    {
      "inputs": [
        {
          "internalType": "address",
          "name": "account",
          "type": "address"
        },
        {
          "internalType": "uint256",
          "name": "blockNumber",
          "type": "uint256"
        }
      ],
      "name": "getPriorVotes",
      "outputs": [
        {
          "internalType": "uint256",
          "name": "",
          "type": "uint256"
        }
      ],
      "stateMutability": "view",
      "type": "function"
    }
  ],
  "bytecode": "0x608060405269d3c21bcecceda10000006007553480156200001f57600080fd5b506040516200248638038062002486833981810160405260608110156200004557600080fd5b815160208301516040808501805191519395929483019291846401000000008211156200007157600080fd5b9083019060208201858111156200008757600080fd5b8251866020820283011164010000000082111715620000a557600080fd5b82525081516020918201928201910280838360005b83811015620000d4578181015183820152602001620000ba565b505050509050016040525050506040518060400160405280600d81526020016c2129ba30b13632902a37b5b2b760991b815250604051806040016040528060038152602001621094d560ea1b81525081600390805190602001906200013b92919062000549565b5080516200015190600490602084019062000549565b50506005805460ff19166012179055506000620001766001600160e01b036200028916565b60058054610100600160a81b0319166101006001600160a01b038416908102919091179091556040519192509060009060008051602062002466833981519152908290a3508051600a1462000212576040805162461bcd60e51b815260206004820152601d60248201527f6f6e6c79206861766520313020696e766573746f722061646472657373000000604482015290519081900360640190fd5b62000226836001600160e01b036200028e16565b600680546001600160a01b0319166001600160a01b03841617905560005b600a8110156200027f57620002768282815181106200025f57fe5b6020026020010151600754620003b660201b60201c565b60010162000244565b50505050620005eb565b335b90565b620002a16001600160e01b036200028916565b6001600160a01b0316620002bd6001600160e01b03620004ce16565b6001600160a01b03161462000319576040805162461bcd60e51b815260206004820181905260248201527f4f776e61626c653a2063616c6c6572206973206e6f7420746865206f776e6572604482015290519081900360640190fd5b6001600160a01b038116620003605760405162461bcd60e51b8152600401808060200182810382526026815260200180620024406026913960400191505060405180910390fd5b6005546040516001600160a01b0380841692610100900416906000805160206200246683398151915290600090a3600580546001600160a01b0390921661010002610100600160a81b0319909216919091179055565b6001600160a01b03821662000412576040805162461bcd60e51b815260206004820152601f60248201527f42455032303a206d696e7420746f20746865207a65726f206164647265737300604482015290519081900360640190fd5b62000429600083836001600160e01b03620004e216565b6200044581600254620004e760201b620014c91790919060201c565b6002556001600160a01b0382166000908152602081815260409091205462000478918390620014c9620004e7821b17901c565b6001600160a01b0383166000818152602081815260408083209490945583518581529351929391927fddf252ad1be2c89b69c2b068fc378daa952ba7f163c4a11628f55a4df523b3ef9281900390910190a35050565b60055461010090046001600160a01b031690565b505050565b60008282018381101562000542576040805162461bcd60e51b815260206004820152601b60248201527f536166654d6174683a206164646974696f6e206f766572666c6f770000000000604482015290519081900360640190fd5b9392505050565b828054600181600116156101000203166002900490600052602060002090601f016020900481019282601f106200058c57805160ff1916838001178555620005bc565b82800160010185558215620005bc579182015b82811115620005bc5782518255916020019190600101906200059f565b50620005ca929150620005ce565b5090565b6200028b91905b80821115620005ca5760008155600101620005d5565b611e4580620005fb6000396000f3fe608060405234801561001057600080fd5b50600436106101cf5760003560e01c8063715018a611610104578063a9059cbb116100a2578063dd62ed3e11610071578063dd62ed3e146105b6578063e7a324dc146105e4578063f1127ed8146105ec578063f2fde38b1461063e576101cf565b8063a9059cbb14610515578063b4b5ea5714610541578063c3cda52014610567578063d6b9a597146105ae576101cf565b80637ecebe00116100de5780637ecebe00146104b35780638da5cb5b146104d957806395d89b41146104e1578063a457c2d7146104e9576101cf565b8063715018a614610453578063782d6fe11461045b57806379cc679014610487576101cf565b80633950935111610171578063587cde1e1161014b578063587cde1e146103a25780635c19a95c146103c85780636fcfff45146103ee57806370a082311461042d576101cf565b8063395093511461032b57806340c10f191461035757806342966c6814610385576101cf565b806318160ddd116101ad57806318160ddd146102b557806320606b70146102cf57806323b872dd146102d7578063313ce5671461030d576101cf565b806306fdde03146101d45780630754617214610251578063095ea7b314610275575b600080fd5b6101dc610664565b6040805160208082528351818301528351919283929083019185019080838360005b838110156102165781810151838201526020016101fe565b50505050905090810190601f1680156102435780820380516001836020036101000a031916815260200191505b509250505060405180910390f35b6102596106fa565b604080516001600160a01b039092168252519081900360200190f35b6102a16004803603604081101561028b57600080fd5b506001600160a01b038135169060200135610709565b604080519115158252519081900360200190f35b6102bd610727565b60408051918252519081900360200190f35b6102bd61072d565b6102a1600480360360608110156102ed57600080fd5b506001600160a01b03813581169160208101359091169060400135610748565b6103156107d5565b6040805160ff9092168252519081900360200190f35b6102a16004803603604081101561034157600080fd5b506001600160a01b0381351690602001356107de565b6103836004803603604081101561036d57600080fd5b506001600160a01b038135169060200135610832565b005b6103836004803603602081101561039b57600080fd5b50356108c4565b610259600480360360208110156103b857600080fd5b50356001600160a01b03166108d8565b610383600480360360208110156103de57600080fd5b50356001600160a01b03166108f6565b6104146004803603602081101561040457600080fd5b50356001600160a01b0316610900565b6040805163ffffffff9092168252519081900360200190f35b6102bd6004803603602081101561044357600080fd5b50356001600160a01b0316610918565b610383610933565b6102bd6004803603604081101561047157600080fd5b506001600160a01b0381351690602001356109f7565b6103836004803603604081101561049d57600080fd5b506001600160a01b038135169060200135610bff565b6102bd600480360360208110156104c957600080fd5b50356001600160a01b0316610c5f565b610259610c71565b6101dc610c85565b6102a1600480360360408110156104ff57600080fd5b506001600160a01b038135169060200135610ce6565b6102a16004803603604081101561052b57600080fd5b506001600160a01b038135169060200135610d54565b6102bd6004803603602081101561055757600080fd5b50356001600160a01b0316610d68565b610383600480360360c081101561057d57600080fd5b506001600160a01b038135169060208101359060408101359060ff6060820135169060808101359060a00135610dcc565b6102bd611042565b6102bd600480360360408110156105cc57600080fd5b506001600160a01b0381358116916020013516611048565b6102bd611073565b61061e6004803603604081101561060257600080fd5b5080356001600160a01b0316906020013563ffffffff1661108e565b6040805163ffffffff909316835260208301919091528051918290030190f35b6103836004803603602081101561065457600080fd5b50356001600160a01b03166110bb565b60038054604080516020601f60026000196101006001881615020190951694909404938401819004810282018101909252828152606093909290918301828280156106f05780601f106106c5576101008083540402835291602001916106f0565b820191906000526020600020905b8154815290600101906020018083116106d357829003601f168201915b5050505050905090565b6006546001600160a01b031681565b600061071d6107166111db565b84846111df565b5060015b92915050565b60025490565b604051806043611c7782396043019050604051809103902081565b60006107558484846112cb565b6107cb846107616111db565b6107c685604051806060016040528060288152602001611bb0602891396001600160a01b038a1660009081526001602052604081209061079f6111db565b6001600160a01b03168152602081019190915260400160002054919063ffffffff61143216565b6111df565b5060019392505050565b60055460ff1690565b600061071d6107eb6111db565b846107c685600160006107fc6111db565b6001600160a01b03908116825260208083019390935260409182016000908120918c16815292529020549063ffffffff6114c916565b6006546001600160a01b03163314610891576040805162461bcd60e51b815260206004820152601b60248201527f42537461626c65546f6b656e56323a6f6e6c79206d696e7465722e0000000000604482015290519081900360640190fd5b61089b8282611523565b6001600160a01b038083166000908152600860205260408120546108c092168361161f565b5050565b6108d56108cf6111db565b82611768565b50565b6001600160a01b039081166000908152600860205260409020541690565b6108d53382611870565b600a6020526000908152604090205463ffffffff1681565b6001600160a01b031660009081526020819052604090205490565b61093b6111db565b6001600160a01b031661094c610c71565b6001600160a01b0316146109a7576040805162461bcd60e51b815260206004820181905260248201527f4f776e61626c653a2063616c6c6572206973206e6f7420746865206f776e6572604482015290519081900360640190fd5b60055460405160009161010090046001600160a01b0316907f8be0079c531659141344cd1fd0a4f28419497f9722a3daafe3b4186f6b6457e0908390a360058054610100600160a81b0319169055565b6000438210610a375760405162461bcd60e51b8152600401808060200182810382526026815260200180611bfd6026913960400191505060405180910390fd5b6001600160a01b0383166000908152600a602052604090205463ffffffff1680610a65576000915050610721565b6001600160a01b038416600090815260096020908152604080832063ffffffff600019860181168552925290912054168310610ad4576001600160a01b03841660009081526009602090815260408083206000199490940163ffffffff16835292905220600101549050610721565b6001600160a01b038416600090815260096020908152604080832083805290915290205463ffffffff16831015610b0f576000915050610721565b600060001982015b8163ffffffff168163ffffffff161115610bc857600282820363ffffffff16048103610b41611b29565b506001600160a01b038716600090815260096020908152604080832063ffffffff808616855290835292819020815180830190925280549093168082526001909301549181019190915290871415610ba3576020015194506107219350505050565b805163ffffffff16871115610bba57819350610bc1565b6001820392505b5050610b17565b506001600160a01b038516600090815260096020908152604080832063ffffffff9094168352929052206001015491505092915050565b6000610c3c82604051806060016040528060248152602001611dca60249139610c2f86610c2a6111db565b611048565b919063ffffffff61143216565b9050610c5083610c4a6111db565b836111df565b610c5a8383611768565b505050565b600b6020526000908152604090205481565b60055461010090046001600160a01b031690565b60048054604080516020601f60026000196101006001881615020190951694909404938401819004810282018101909252828152606093909290918301828280156106f05780601f106106c5576101008083540402835291602001916106f0565b600061071d610cf36111db565b846107c685604051806060016040528060258152602001611d036025913960016000610d1d6111db565b6001600160a01b03908116825260208083019390935260409182016000908120918d1681529252902054919063ffffffff61143216565b600061071d610d616111db565b84846112cb565b6001600160a01b0381166000908152600a602052604081205463ffffffff1680610d93576000610dc5565b6001600160a01b038316600090815260096020908152604080832063ffffffff60001986011684529091529020600101545b9392505050565b60006040518080611c776043913960430190506040518091039020610def610664565b80519060200120610dfe611905565b3060405160200180858152602001848152602001838152602001826001600160a01b03166001600160a01b0316815260200194505050505060405160208183030381529060405280519060200120905060006040518080611d6b603a91396040805191829003603a0182206020808401919091526001600160a01b038c1683830152606083018b905260808084018b90528251808503909101815260a08401835280519082012061190160f01b60c085015260c2840187905260e2808501829052835180860390910181526101028501808552815191840191909120600091829052610122860180865281905260ff8c1661014287015261016286018b905261018286018a9052935191965092945091926001926101a28083019392601f198301929081900390910190855afa158015610f3c573d6000803e3d6000fd5b5050604051601f1901519150506001600160a01b038116610f8e5760405162461bcd60e51b8152600401808060200182810382526025815260200180611da56025913960400191505060405180910390fd5b6001600160a01b0381166000908152600b602052604090208054600181019091558914610fec5760405162461bcd60e51b8152600401808060200182810382526021815260200180611c236021913960400191505060405180910390fd5b8742111561102b5760405162461bcd60e51b8152600401808060200182810382526025815260200180611bd86025913960400191505060405180910390fd5b611035818b611870565b505050505b505050505050565b60075481565b6001600160a01b03918216600090815260016020908152604080832093909416825291909152205490565b60405180603a611d6b8239603a019050604051809103902081565b60096020908152600092835260408084209091529082529020805460019091015463ffffffff9091169082565b6110c36111db565b6001600160a01b03166110d4610c71565b6001600160a01b03161461112f576040805162461bcd60e51b815260206004820181905260248201527f4f776e61626c653a2063616c6c6572206973206e6f7420746865206f776e6572604482015290519081900360640190fd5b6001600160a01b0381166111745760405162461bcd60e51b8152600401808060200182810382526026815260200180611b8a6026913960400191505060405180910390fd5b6005546040516001600160a01b0380841692610100900416907f8be0079c531659141344cd1fd0a4f28419497f9722a3daafe3b4186f6b6457e090600090a3600580546001600160a01b0390921661010002610100600160a81b0319909216919091179055565b3390565b6001600160a01b0383166112245760405162461bcd60e51b8152600401808060200182810382526024815260200180611b666024913960400191505060405180910390fd5b6001600160a01b0382166112695760405162461bcd60e51b8152600401808060200182810382526022815260200180611dee6022913960400191505060405180910390fd5b6001600160a01b03808416600081815260016020908152604080832094871680845294825291829020859055815185815291517f8c5be1e5ebec7d5bd14f71427d1e84f3dd0314c0f7b2291e5b200ac8c7c3b9259281900390910190a3505050565b6001600160a01b0383166113105760405162461bcd60e51b8152600401808060200182810382526025815260200180611b416025913960400191505060405180910390fd5b6001600160a01b0382166113555760405162461bcd60e51b8152600401808060200182810382526023815260200180611ce06023913960400191505060405180910390fd5b611360838383610c5a565b6113a381604051806060016040528060268152602001611cba602691396001600160a01b038616600090815260208190526040902054919063ffffffff61143216565b6001600160a01b0380851660009081526020819052604080822093909355908416815220546113d8908263ffffffff6114c916565b6001600160a01b038084166000818152602081815260409182902094909455805185815290519193928716927fddf252ad1be2c89b69c2b068fc378daa952ba7f163c4a11628f55a4df523b3ef92918290030190a3505050565b600081848411156114c15760405162461bcd60e51b81526004018080602001828103825283818151815260200191508051906020019080838360005b8381101561148657818101518382015260200161146e565b50505050905090810190601f1680156114b35780820380516001836020036101000a031916815260200191505b509250505060405180910390fd5b505050900390565b600082820183811015610dc5576040805162461bcd60e51b815260206004820152601b60248201527f536166654d6174683a206164646974696f6e206f766572666c6f770000000000604482015290519081900360640190fd5b6001600160a01b03821661157e576040805162461bcd60e51b815260206004820152601f60248201527f42455032303a206d696e7420746f20746865207a65726f206164647265737300604482015290519081900360640190fd5b61158a60008383610c5a565b60025461159d908263ffffffff6114c916565b6002556001600160a01b0382166000908152602081905260409020546115c9908263ffffffff6114c916565b6001600160a01b0383166000818152602081815260408083209490945583518581529351929391927fddf252ad1be2c89b69c2b068fc378daa952ba7f163c4a11628f55a4df523b3ef9281900390910190a35050565b816001600160a01b0316836001600160a01b0316141580156116415750600081115b15610c5a576001600160a01b038316156116d9576001600160a01b0383166000908152600a602052604081205463ffffffff1690816116815760006116b3565b6001600160a01b038516600090815260096020908152604080832063ffffffff60001987011684529091529020600101545b905060006116c7828563ffffffff61190916565b90506116d586848484611966565b5050505b6001600160a01b03821615610c5a576001600160a01b0382166000908152600a602052604081205463ffffffff169081611714576000611746565b6001600160a01b038416600090815260096020908152604080832063ffffffff60001987011684529091529020600101545b9050600061175a828563ffffffff6114c916565b905061103a85848484611966565b6001600160a01b0382166117ad5760405162461bcd60e51b8152600401808060200182810382526021815260200180611d286021913960400191505060405180910390fd5b6117b982600083610c5a565b6117fc81604051806060016040528060228152602001611d49602291396001600160a01b038516600090815260208190526040902054919063ffffffff61143216565b6001600160a01b038316600090815260208190526040902055600254611828908263ffffffff61190916565b6002556040805182815290516000916001600160a01b038516917fddf252ad1be2c89b69c2b068fc378daa952ba7f163c4a11628f55a4df523b3ef9181900360200190a35050565b6001600160a01b038083166000908152600860205260408120549091169061189784610918565b6001600160a01b0385811660008181526008602052604080822080546001600160a01b031916898616908117909155905194955093928616927f3134e8a2e6d97e929a7e54011ea5485d7d196dd5f0ba4d4ef95803e8e3fc257f9190a46118ff82848361161f565b50505050565b4690565b600082821115611960576040805162461bcd60e51b815260206004820152601e60248201527f536166654d6174683a207375627472616374696f6e206f766572666c6f770000604482015290519081900360640190fd5b50900390565b600061198a43604051806060016040528060338152602001611c4460339139611acb565b905060008463ffffffff161180156119d357506001600160a01b038516600090815260096020908152604080832063ffffffff6000198901811685529252909120548282169116145b15611a10576001600160a01b038516600090815260096020908152604080832063ffffffff60001989011684529091529020600101829055611a81565b60408051808201825263ffffffff808416825260208083018681526001600160a01b038a166000818152600984528681208b8616825284528681209551865490861663ffffffff199182161787559251600196870155908152600a9092529390208054928801909116919092161790555b604080518481526020810184905281516001600160a01b038816927fdec2bacdd2f05b59de34da9b523dff8be42e5e38e818c82fdb0bae774387a724928290030190a25050505050565b6000816401000000008410611b215760405162461bcd60e51b815260206004820181815283516024840152835190928392604490910191908501908083836000831561148657818101518382015260200161146e565b509192915050565b60408051808201909152600080825260208201529056fe42455032303a207472616e736665722066726f6d20746865207a65726f206164647265737342455032303a20617070726f76652066726f6d20746865207a65726f20616464726573734f776e61626c653a206e6577206f776e657220697320746865207a65726f206164647265737342455032303a207472616e7366657220616d6f756e74206578636565647320616c6c6f77616e63654253543a3a64656c656761746542795369673a207369676e617475726520657870697265644253543a3a6765745072696f72566f7465733a206e6f74207965742064657465726d696e65644253543a3a64656c656761746542795369673a20696e76616c6964206e6f6e63654253543a3a5f7772697465436865636b706f696e743a20626c6f636b206e756d62657220657863656564732033322062697473454950373132446f6d61696e28737472696e67206e616d652c75696e7432353620636861696e49642c6164647265737320766572696679696e67436f6e74726163742942455032303a207472616e7366657220616d6f756e7420657863656564732062616c616e636542455032303a207472616e7366657220746f20746865207a65726f206164647265737342455032303a2064656372656173656420616c6c6f77616e63652062656c6f77207a65726f42455032303a206275726e2066726f6d20746865207a65726f206164647265737342455032303a206275726e20616d6f756e7420657863656564732062616c616e636544656c65676174696f6e28616464726573732064656c6567617465652c75696e74323536206e6f6e63652c75696e7432353620657870697279294253543a3a64656c656761746542795369673a20696e76616c6964207369676e617475726542455032303a206275726e20616d6f756e74206578636565647320616c6c6f77616e636542455032303a20617070726f766520746f20746865207a65726f2061646472657373a2646970667358221220800642dc0d9134c38748492224c4e0abba156b0b3d96c961f23aca1da14a4ad964736f6c634300060600334f776e61626c653a206e6577206f776e657220697320746865207a65726f20616464726573738be0079c531659141344cd1fd0a4f28419497f9722a3daafe3b4186f6b6457e0",
  "immutableReferences": {},
  "source": "// SPDX-License-Identifier: MIT\n\npragma solidity ^0.6.0;\n\nimport \"../BEP20Burnable.sol\";\nimport \"@openzeppelin/contracts/access/Ownable.sol\";\n\n///@title BSTToken with Governance.\ncontract BStableTokenV2 is\n    BEP20(\"BStable Token\", \"BST\"),\n    BEP20Burnable,\n    Ownable\n{\n    address public minter;\n\n    uint256 public TOKENS_PER_INVESTOR = 1_000_000 ether;\n\n    constructor(\n        address owner,\n        address minter_,\n        address[] memory investors\n    ) public {\n        require(investors.length == 10, \"only have 10 investor address\");\n        transferOwnership(owner);\n        minter = minter_;\n        for (uint256 i = 0; i < 10; i++) {\n            _mint(investors[i], TOKENS_PER_INVESTOR);\n        }\n    }\n\n    /// @notice Creates `_amount` token to `_to`. Must only be called by the owner (BStableProxyV2).\n    function mint(address _to, uint256 _amount) public {\n        require(msg.sender == minter, \"BStableTokenV2:only minter.\");\n        _mint(_to, _amount);\n        _moveDelegates(address(0), _delegates[_to], _amount);\n    }\n\n    /// @notice A record of each accounts delegate\n    mapping(address => address) internal _delegates;\n\n    /// @notice A checkpoint for marking number of votes from a given block\n    struct Checkpoint {\n        uint32 fromBlock;\n        uint256 votes;\n    }\n\n    /// @notice A record of votes checkpoints for each account, by index\n    mapping(address => mapping(uint32 => Checkpoint)) public checkpoints;\n\n    /// @notice The number of checkpoints for each account\n    mapping(address => uint32) public numCheckpoints;\n\n    /// @notice The EIP-712 typehash for the contract's domain\n    bytes32 public constant DOMAIN_TYPEHASH =\n        keccak256(\n            \"EIP712Domain(string name,uint256 chainId,address verifyingContract)\"\n        );\n\n    /// @notice The EIP-712 typehash for the delegation struct used by the contract\n    bytes32 public constant DELEGATION_TYPEHASH =\n        keccak256(\"Delegation(address delegatee,uint256 nonce,uint256 expiry)\");\n\n    /// @notice A record of states for signing / validating signatures\n    mapping(address => uint256) public nonces;\n\n    /// @notice An event thats emitted when an account changes its delegate\n    event DelegateChanged(\n        address indexed delegator,\n        address indexed fromDelegate,\n        address indexed toDelegate\n    );\n\n    /// @notice An event thats emitted when a delegate account's vote balance changes\n    event DelegateVotesChanged(\n        address indexed delegate,\n        uint256 previousBalance,\n        uint256 newBalance\n    );\n\n    /**\n     * @notice Delegate votes from `msg.sender` to `delegatee`\n     * @param delegator The address to get delegatee for\n     */\n    function delegates(address delegator) external view returns (address) {\n        return _delegates[delegator];\n    }\n\n    /**\n     * @notice Delegate votes from `msg.sender` to `delegatee`\n     * @param delegatee The address to delegate votes to\n     */\n    function delegate(address delegatee) external {\n        return _delegate(msg.sender, delegatee);\n    }\n\n    /**\n     * @notice Delegates votes from signatory to `delegatee`\n     * @param delegatee The address to delegate votes to\n     * @param nonce The contract state required to match the signature\n     * @param expiry The time at which to expire the signature\n     * @param v The recovery byte of the signature\n     * @param r Half of the ECDSA signature pair\n     * @param s Half of the ECDSA signature pair\n     */\n    function delegateBySig(\n        address delegatee,\n        uint256 nonce,\n        uint256 expiry,\n        uint8 v,\n        bytes32 r,\n        bytes32 s\n    ) external {\n        bytes32 domainSeparator =\n            keccak256(\n                abi.encode(\n                    DOMAIN_TYPEHASH,\n                    keccak256(bytes(name())),\n                    getChainId(),\n                    address(this)\n                )\n            );\n\n        bytes32 structHash =\n            keccak256(\n                abi.encode(DELEGATION_TYPEHASH, delegatee, nonce, expiry)\n            );\n\n        bytes32 digest =\n            keccak256(\n                abi.encodePacked(\"\\x19\\x01\", domainSeparator, structHash)\n            );\n\n        address signatory = ecrecover(digest, v, r, s);\n        require(\n            signatory != address(0),\n            \"BST::delegateBySig: invalid signature\"\n        );\n        require(\n            nonce == nonces[signatory]++,\n            \"BST::delegateBySig: invalid nonce\"\n        );\n        require(now <= expiry, \"BST::delegateBySig: signature expired\");\n        return _delegate(signatory, delegatee);\n    }\n\n    /**\n     * @notice Gets the current votes balance for `account`\n     * @param account The address to get votes balance\n     * @return The number of current votes for `account`\n     */\n    function getCurrentVotes(address account) external view returns (uint256) {\n        uint32 nCheckpoints = numCheckpoints[account];\n        return\n            nCheckpoints > 0 ? checkpoints[account][nCheckpoints - 1].votes : 0;\n    }\n\n    /**\n     * @notice Determine the prior number of votes for an account as of a block number\n     * @dev Block number must be a finalized block or else this function will revert to prevent misinformation.\n     * @param account The address of the account to check\n     * @param blockNumber The block number to get the vote balance at\n     * @return The number of votes the account had as of the given block\n     */\n    function getPriorVotes(address account, uint256 blockNumber)\n        external\n        view\n        returns (uint256)\n    {\n        require(\n            blockNumber < block.number,\n            \"BST::getPriorVotes: not yet determined\"\n        );\n\n        uint32 nCheckpoints = numCheckpoints[account];\n        if (nCheckpoints == 0) {\n            return 0;\n        }\n\n        // First check most recent balance\n        if (checkpoints[account][nCheckpoints - 1].fromBlock <= blockNumber) {\n            return checkpoints[account][nCheckpoints - 1].votes;\n        }\n\n        // Next check implicit zero balance\n        if (checkpoints[account][0].fromBlock > blockNumber) {\n            return 0;\n        }\n\n        uint32 lower = 0;\n        uint32 upper = nCheckpoints - 1;\n        while (upper > lower) {\n            uint32 center = upper - (upper - lower) / 2; // ceil, avoiding overflow\n            Checkpoint memory cp = checkpoints[account][center];\n            if (cp.fromBlock == blockNumber) {\n                return cp.votes;\n            } else if (cp.fromBlock < blockNumber) {\n                lower = center;\n            } else {\n                upper = center - 1;\n            }\n        }\n        return checkpoints[account][lower].votes;\n    }\n\n    function _delegate(address delegator, address delegatee) internal {\n        address currentDelegate = _delegates[delegator];\n        uint256 delegatorBalance = balanceOf(delegator); // balance of underlying BSTs (not scaled);\n        _delegates[delegator] = delegatee;\n\n        emit DelegateChanged(delegator, currentDelegate, delegatee);\n\n        _moveDelegates(currentDelegate, delegatee, delegatorBalance);\n    }\n\n    function _moveDelegates(\n        address srcRep,\n        address dstRep,\n        uint256 amount\n    ) internal {\n        if (srcRep != dstRep && amount > 0) {\n            if (srcRep != address(0)) {\n                // decrease old representative\n                uint32 srcRepNum = numCheckpoints[srcRep];\n                uint256 srcRepOld =\n                    srcRepNum > 0\n                        ? checkpoints[srcRep][srcRepNum - 1].votes\n                        : 0;\n                uint256 srcRepNew = srcRepOld.sub(amount);\n                _writeCheckpoint(srcRep, srcRepNum, srcRepOld, srcRepNew);\n            }\n\n            if (dstRep != address(0)) {\n                // increase new representative\n                uint32 dstRepNum = numCheckpoints[dstRep];\n                uint256 dstRepOld =\n                    dstRepNum > 0\n                        ? checkpoints[dstRep][dstRepNum - 1].votes\n                        : 0;\n                uint256 dstRepNew = dstRepOld.add(amount);\n                _writeCheckpoint(dstRep, dstRepNum, dstRepOld, dstRepNew);\n            }\n        }\n    }\n\n    function _writeCheckpoint(\n        address delegatee,\n        uint32 nCheckpoints,\n        uint256 oldVotes,\n        uint256 newVotes\n    ) internal {\n        uint32 blockNumber =\n            safe32(\n                block.number,\n                \"BST::_writeCheckpoint: block number exceeds 32 bits\"\n            );\n\n        if (\n            nCheckpoints > 0 &&\n            checkpoints[delegatee][nCheckpoints - 1].fromBlock == blockNumber\n        ) {\n            checkpoints[delegatee][nCheckpoints - 1].votes = newVotes;\n        } else {\n            checkpoints[delegatee][nCheckpoints] = Checkpoint(\n                blockNumber,\n                newVotes\n            );\n            numCheckpoints[delegatee] = nCheckpoints + 1;\n        }\n\n        emit DelegateVotesChanged(delegatee, oldVotes, newVotes);\n    }\n\n    function safe32(uint256 n, string memory errorMessage)\n        internal\n        pure\n        returns (uint32)\n    {\n        require(n < 2**32, errorMessage);\n        return uint32(n);\n    }\n\n    function getChainId() internal pure returns (uint256) {\n        uint256 chainId;\n        assembly {\n            chainId := chainid()\n        }\n        return chainId;\n    }\n}\n",
  "sourcePath": "/Users/zhangleping/github.com/0xa8c81519/bsc-contracts/contracts/v2/BStableTokenV2.sol",
  "compiler": {
    "name": "solc",
    "version": "0.6.6+commit.6c089d02.Emscripten.clang"
  },
  "schemaVersion": "3.4.0",
  "updatedAt": "2021-04-24T09:59:06.779Z",
  "devdoc": {
    "methods": {
      "allowance(address,address)": {
        "details": "See {IBEP20-allowance}."
      },
      "approve(address,uint256)": {
        "details": "See {IBEP20-approve}.     * Requirements:     * - `spender` cannot be the zero address."
      },
      "balanceOf(address)": {
        "details": "See {IBEP20-balanceOf}."
      },
      "burn(uint256)": {
        "details": "Destroys `amount` tokens from the caller.     * See {BEP20-_burn}."
      },
      "burnFrom(address,uint256)": {
        "details": "Destroys `amount` tokens from `account`, deducting from the caller's allowance.     * See {BEP20-_burn} and {BEP20-allowance}.     * Requirements:     * - the caller must have allowance for ``accounts``'s tokens of at least `amount`."
      },
      "decimals()": {
        "details": "Returns the number of decimals used to get its user representation. For example, if `decimals` equals `2`, a balance of `505` tokens should be displayed to a user as `5,05` (`505 / 10 ** 2`).     * Tokens usually opt for a value of 18, imitating the relationship between Ether and Wei. This is the value {BEP20} uses, unless {_setupDecimals} is called.     * NOTE: This information is only used for _display_ purposes: it in no way affects any of the arithmetic of the contract, including {IBEP20-balanceOf} and {IBEP20-transfer}."
      },
      "decreaseAllowance(address,uint256)": {
        "details": "Atomically decreases the allowance granted to `spender` by the caller.     * This is an alternative to {approve} that can be used as a mitigation for problems described in {IBEP20-approve}.     * Emits an {Approval} event indicating the updated allowance.     * Requirements:     * - `spender` cannot be the zero address. - `spender` must have allowance for the caller of at least `subtractedValue`."
      },
      "delegate(address)": {
        "params": {
          "delegatee": "The address to delegate votes to"
        }
      },
      "delegateBySig(address,uint256,uint256,uint8,bytes32,bytes32)": {
        "params": {
          "delegatee": "The address to delegate votes to",
          "expiry": "The time at which to expire the signature",
          "nonce": "The contract state required to match the signature",
          "r": "Half of the ECDSA signature pair",
          "s": "Half of the ECDSA signature pair",
          "v": "The recovery byte of the signature"
        }
      },
      "delegates(address)": {
        "params": {
          "delegator": "The address to get delegatee for"
        }
      },
      "getCurrentVotes(address)": {
        "params": {
          "account": "The address to get votes balance"
        },
        "returns": {
          "_0": "The number of current votes for `account`"
        }
      },
      "getPriorVotes(address,uint256)": {
        "details": "Block number must be a finalized block or else this function will revert to prevent misinformation.",
        "params": {
          "account": "The address of the account to check",
          "blockNumber": "The block number to get the vote balance at"
        },
        "returns": {
          "_0": "The number of votes the account had as of the given block"
        }
      },
      "increaseAllowance(address,uint256)": {
        "details": "Atomically increases the allowance granted to `spender` by the caller.     * This is an alternative to {approve} that can be used as a mitigation for problems described in {IBEP20-approve}.     * Emits an {Approval} event indicating the updated allowance.     * Requirements:     * - `spender` cannot be the zero address."
      },
      "name()": {
        "details": "Returns the name of the token."
      },
      "owner()": {
        "details": "Returns the address of the current owner."
      },
      "renounceOwnership()": {
        "details": "Leaves the contract without owner. It will not be possible to call `onlyOwner` functions anymore. Can only be called by the current owner.     * NOTE: Renouncing ownership will leave the contract without an owner, thereby removing any functionality that is only available to the owner."
      },
      "symbol()": {
        "details": "Returns the symbol of the token, usually a shorter version of the name."
      },
      "totalSupply()": {
        "details": "See {IBEP20-totalSupply}."
      },
      "transfer(address,uint256)": {
        "details": "See {IBEP20-transfer}.     * Requirements:     * - `recipient` cannot be the zero address. - the caller must have a balance of at least `amount`."
      },
      "transferFrom(address,address,uint256)": {
        "details": "See {IBEP20-transferFrom}.     * Emits an {Approval} event indicating the updated allowance. This is not required by the EIP. See the note at the beginning of {BEP20};     * Requirements: - `sender` and `recipient` cannot be the zero address. - `sender` must have a balance of at least `amount`. - the caller must have allowance for ``sender``'s tokens of at least `amount`."
      },
      "transferOwnership(address)": {
        "details": "Transfers ownership of the contract to a new account (`newOwner`). Can only be called by the current owner."
      }
    },
    "title": "BSTToken with Governance."
  },
  "userdoc": {
    "methods": {
      "delegate(address)": {
        "notice": "Delegate votes from `msg.sender` to `delegatee`"
      },
      "delegateBySig(address,uint256,uint256,uint8,bytes32,bytes32)": {
        "notice": "Delegates votes from signatory to `delegatee`"
      },
      "delegates(address)": {
        "notice": "Delegate votes from `msg.sender` to `delegatee`"
      },
      "getCurrentVotes(address)": {
        "notice": "Gets the current votes balance for `account`"
      },
      "getPriorVotes(address,uint256)": {
        "notice": "Determine the prior number of votes for an account as of a block number"
      },
      "mint(address,uint256)": {
        "notice": "Creates `_amount` token to `_to`. Must only be called by the owner (BStableProxyV2)."
      }
    }
  }
}