{
  "contractName": "BStableProxyV2",
  "abi": [
    {
      "inputs": [
        {
          "internalType": "address",
          "name": "_devaddr",
          "type": "address"
        },
        {
          "internalType": "uint256",
          "name": "_tokenPerBlock",
          "type": "uint256"
        },
        {
          "internalType": "uint256",
          "name": "_startBlock",
          "type": "uint256"
        },
        {
          "internalType": "uint256",
          "name": "_bonusEndBlock",
          "type": "uint256"
        },
        {
          "internalType": "address[]",
          "name": "investors",
          "type": "address[]"
        },
        {
          "internalType": "address",
          "name": "ownerAddress",
          "type": "address"
        }
      ],
      "stateMutability": "nonpayable",
      "type": "constructor"
    },
    {
      "anonymous": false,
      "inputs": [
        {
          "indexed": true,
          "internalType": "address",
          "name": "user",
          "type": "address"
        },
        {
          "indexed": true,
          "internalType": "uint256",
          "name": "pid",
          "type": "uint256"
        },
        {
          "indexed": false,
          "internalType": "uint256",
          "name": "amount",
          "type": "uint256"
        }
      ],
      "name": "Deposit",
      "type": "event"
    },
    {
      "anonymous": false,
      "inputs": [
        {
          "indexed": true,
          "internalType": "address",
          "name": "user",
          "type": "address"
        },
        {
          "indexed": true,
          "internalType": "uint256",
          "name": "pid",
          "type": "uint256"
        },
        {
          "indexed": false,
          "internalType": "uint256",
          "name": "amount",
          "type": "uint256"
        }
      ],
      "name": "EmergencyWithdraw",
      "type": "event"
    },
    {
      "anonymous": false,
      "inputs": [
        {
          "indexed": true,
          "internalType": "address",
          "name": "previousOwner",
          "type": "address"
        },
        {
          "indexed": true,
          "internalType": "address",
          "name": "newOwner",
          "type": "address"
        }
      ],
      "name": "OwnershipTransferred",
      "type": "event"
    },
    {
      "anonymous": false,
      "inputs": [
        {
          "indexed": true,
          "internalType": "address",
          "name": "user",
          "type": "address"
        },
        {
          "indexed": true,
          "internalType": "uint256",
          "name": "pid",
          "type": "uint256"
        },
        {
          "indexed": false,
          "internalType": "uint256",
          "name": "amount",
          "type": "uint256"
        }
      ],
      "name": "Withdraw",
      "type": "event"
    },
    {
      "inputs": [],
      "name": "BONUS_MULTIPLIER",
      "outputs": [
        {
          "internalType": "uint256",
          "name": "",
          "type": "uint256"
        }
      ],
      "stateMutability": "view",
      "type": "function",
      "constant": true
    },
    {
      "inputs": [],
      "name": "bonusEndBlock",
      "outputs": [
        {
          "internalType": "uint256",
          "name": "",
          "type": "uint256"
        }
      ],
      "stateMutability": "view",
      "type": "function",
      "constant": true
    },
    {
      "inputs": [],
      "name": "devaddr",
      "outputs": [
        {
          "internalType": "address",
          "name": "",
          "type": "address"
        }
      ],
      "stateMutability": "view",
      "type": "function",
      "constant": true
    },
    {
      "inputs": [],
      "name": "owner",
      "outputs": [
        {
          "internalType": "address",
          "name": "",
          "type": "address"
        }
      ],
      "stateMutability": "view",
      "type": "function",
      "constant": true
    },
    {
      "inputs": [
        {
          "internalType": "uint256",
          "name": "",
          "type": "uint256"
        }
      ],
      "name": "poolInfo",
      "outputs": [
        {
          "internalType": "contract IBEP20",
          "name": "lpToken",
          "type": "address"
        },
        {
          "internalType": "uint256",
          "name": "allocPoint",
          "type": "uint256"
        },
        {
          "internalType": "uint256",
          "name": "lastRewardBlock",
          "type": "uint256"
        },
        {
          "internalType": "uint256",
          "name": "accTokenPerShare",
          "type": "uint256"
        }
      ],
      "stateMutability": "view",
      "type": "function",
      "constant": true
    },
    {
      "inputs": [],
      "name": "renounceOwnership",
      "outputs": [],
      "stateMutability": "nonpayable",
      "type": "function"
    },
    {
      "inputs": [],
      "name": "startBlock",
      "outputs": [
        {
          "internalType": "uint256",
          "name": "",
          "type": "uint256"
        }
      ],
      "stateMutability": "view",
      "type": "function",
      "constant": true
    },
    {
      "inputs": [],
      "name": "token",
      "outputs": [
        {
          "internalType": "contract BStableTokenV2",
          "name": "",
          "type": "address"
        }
      ],
      "stateMutability": "view",
      "type": "function",
      "constant": true
    },
    {
      "inputs": [],
      "name": "tokenPerBlock",
      "outputs": [
        {
          "internalType": "uint256",
          "name": "",
          "type": "uint256"
        }
      ],
      "stateMutability": "view",
      "type": "function",
      "constant": true
    },
    {
      "inputs": [],
      "name": "totalAllocPoint",
      "outputs": [
        {
          "internalType": "uint256",
          "name": "",
          "type": "uint256"
        }
      ],
      "stateMutability": "view",
      "type": "function",
      "constant": true
    },
    {
      "inputs": [
        {
          "internalType": "address",
          "name": "newOwner",
          "type": "address"
        }
      ],
      "name": "transferOwnership",
      "outputs": [],
      "stateMutability": "nonpayable",
      "type": "function"
    },
    {
      "inputs": [
        {
          "internalType": "uint256",
          "name": "",
          "type": "uint256"
        },
        {
          "internalType": "address",
          "name": "",
          "type": "address"
        }
      ],
      "name": "userInfo",
      "outputs": [
        {
          "internalType": "uint256",
          "name": "amount",
          "type": "uint256"
        },
        {
          "internalType": "uint256",
          "name": "rewardDebt",
          "type": "uint256"
        }
      ],
      "stateMutability": "view",
      "type": "function",
      "constant": true
    },
    {
      "inputs": [],
      "name": "poolLength",
      "outputs": [
        {
          "internalType": "uint256",
          "name": "",
          "type": "uint256"
        }
      ],
      "stateMutability": "view",
      "type": "function",
      "constant": true
    },
    {
      "inputs": [
        {
          "internalType": "uint256",
          "name": "_allocPoint",
          "type": "uint256"
        },
        {
          "internalType": "contract IBEP20",
          "name": "_lpToken",
          "type": "address"
        },
        {
          "internalType": "bool",
          "name": "_withUpdate",
          "type": "bool"
        }
      ],
      "name": "add",
      "outputs": [],
      "stateMutability": "nonpayable",
      "type": "function"
    },
    {
      "inputs": [
        {
          "internalType": "uint256",
          "name": "_pid",
          "type": "uint256"
        },
        {
          "internalType": "uint256",
          "name": "_allocPoint",
          "type": "uint256"
        },
        {
          "internalType": "bool",
          "name": "_withUpdate",
          "type": "bool"
        }
      ],
      "name": "set",
      "outputs": [],
      "stateMutability": "nonpayable",
      "type": "function"
    },
    {
      "inputs": [
        {
          "internalType": "uint256",
          "name": "_from",
          "type": "uint256"
        },
        {
          "internalType": "uint256",
          "name": "_to",
          "type": "uint256"
        }
      ],
      "name": "getMultiplier",
      "outputs": [
        {
          "internalType": "uint256",
          "name": "",
          "type": "uint256"
        }
      ],
      "stateMutability": "view",
      "type": "function",
      "constant": true
    },
    {
      "inputs": [
        {
          "internalType": "uint256",
          "name": "_pid",
          "type": "uint256"
        },
        {
          "internalType": "address",
          "name": "_user",
          "type": "address"
        }
      ],
      "name": "pendingReward",
      "outputs": [
        {
          "internalType": "uint256",
          "name": "",
          "type": "uint256"
        }
      ],
      "stateMutability": "view",
      "type": "function",
      "constant": true
    },
    {
      "inputs": [],
      "name": "massUpdatePools",
      "outputs": [],
      "stateMutability": "nonpayable",
      "type": "function"
    },
    {
      "inputs": [
        {
          "internalType": "uint256",
          "name": "_pid",
          "type": "uint256"
        }
      ],
      "name": "updatePool",
      "outputs": [],
      "stateMutability": "nonpayable",
      "type": "function"
    },
    {
      "inputs": [
        {
          "internalType": "uint256",
          "name": "_pid",
          "type": "uint256"
        },
        {
          "internalType": "uint256",
          "name": "_amount",
          "type": "uint256"
        }
      ],
      "name": "deposit",
      "outputs": [],
      "stateMutability": "nonpayable",
      "type": "function"
    },
    {
      "inputs": [
        {
          "internalType": "uint256",
          "name": "_pid",
          "type": "uint256"
        },
        {
          "internalType": "uint256",
          "name": "_amount",
          "type": "uint256"
        }
      ],
      "name": "withdraw",
      "outputs": [],
      "stateMutability": "nonpayable",
      "type": "function"
    },
    {
      "inputs": [
        {
          "internalType": "uint256",
          "name": "_pid",
          "type": "uint256"
        }
      ],
      "name": "emergencyWithdraw",
      "outputs": [],
      "stateMutability": "nonpayable",
      "type": "function"
    },
    {
      "inputs": [
        {
          "internalType": "address",
          "name": "_devaddr",
          "type": "address"
        }
      ],
      "name": "dev",
      "outputs": [],
      "stateMutability": "nonpayable",
      "type": "function"
    },
    {
      "inputs": [],
      "name": "getTokenAddress",
      "outputs": [
        {
          "internalType": "address",
          "name": "",
          "type": "address"
        }
      ],
      "stateMutability": "view",
      "type": "function",
      "constant": true
    }
  ],
  "bytecode": "0x608060405260006007553480156200001657600080fd5b506040516200408338038062004083833981810160405260c08110156200003c57600080fd5b81516020830151604080850151606086015160808701805193519597949692959194919392820192846401000000008211156200007857600080fd5b9083019060208201858111156200008e57600080fd5b8251866020820283011164010000000082111715620000ac57600080fd5b82525081516020918201928201910280838360005b83811015620000db578181015183820152602001620000c1565b50505050919091016040525060200151915060009050620001046001600160e01b036200023d16565b600080546001600160a01b0319166001600160a01b03831690811782556040519293509160008051602062004063833981519152908290a3508030836040516200014e906200036c565b80846001600160a01b03166001600160a01b03168152602001836001600160a01b03166001600160a01b0316815260200180602001828103825283818151815260200191508051906020019060200280838360005b83811015620001bd578181015183820152602001620001a3565b50505050905001945050505050604051809103906000f080158015620001e7573d6000803e3d6000fd5b50600180546001600160a01b03199081166001600160a01b039384161790915560028054909116918816919091179055600485905560038390556008849055620002318162000241565b5050505050506200037a565b3390565b620002546001600160e01b036200023d16565b6001600160a01b0316620002706001600160e01b036200035d16565b6001600160a01b031614620002cc576040805162461bcd60e51b815260206004820181905260248201527f4f776e61626c653a2063616c6c6572206973206e6f7420746865206f776e6572604482015290519081900360640190fd5b6001600160a01b038116620003135760405162461bcd60e51b81526004018080602001828103825260268152602001806200403d6026913960400191505060405180910390fd5b600080546040516001600160a01b03808516939216916000805160206200406383398151915291a3600080546001600160a01b0319166001600160a01b0392909216919091179055565b6000546001600160a01b031690565b6124868062001bb783390190565b61182d806200038a6000396000f3fe608060405234801561001057600080fd5b50600436106101585760003560e01c806364482f79116100c357806393f1a40b1161007c57806393f1a40b1461032f57806398969e8214610374578063d49e77cd146103a0578063e2bbb158146103a8578063f2fde38b146103cb578063fc0c546a146103f157610158565b806364482f79146102a3578063715018a6146102ce5780638aa28550146102d65780638d88a90e146102de5780638da5cb5b146103045780638dbb1e3a1461030c57610158565b80634198709a116101155780634198709a1461022e578063441a3e701461023657806348cd4cb11461025957806351eb05a6146102615780635312ea8e1461027e578063630b5ba11461029b57610158565b8063081e3eda1461015d57806310fe9ae8146101775780631526fe271461019b57806317caf6f1146101e85780631aed6553146101f05780631eaaa045146101f8575b600080fd5b6101656103f9565b60408051918252519081900360200190f35b61017f6103ff565b604080516001600160a01b039092168252519081900360200190f35b6101b8600480360360208110156101b157600080fd5b503561040e565b604080516001600160a01b0390951685526020850193909352838301919091526060830152519081900360800190f35b61016561044f565b610165610455565b61022c6004803603606081101561020e57600080fd5b508035906001600160a01b036020820135169060400135151561045b565b005b6101656105e6565b61022c6004803603604081101561024c57600080fd5b50803590602001356105ec565b61016561075d565b61022c6004803603602081101561027757600080fd5b5035610763565b61022c6004803603602081101561029457600080fd5b50356109a5565b61022c610a46565b61022c600480360360608110156102b957600080fd5b50803590602081013590604001351515610a69565b61022c610b4a565b610165610bf6565b61022c600480360360208110156102f457600080fd5b50356001600160a01b0316610bfb565b61017f610c68565b6101656004803603604081101561032257600080fd5b5080359060200135610c77565b61035b6004803603604081101561034557600080fd5b50803590602001356001600160a01b0316610cef565b6040805192835260208301919091528051918290030190f35b6101656004803603604081101561038a57600080fd5b50803590602001356001600160a01b0316610d13565b61017f610e81565b61022c600480360360408110156103be57600080fd5b5080359060200135610e90565b61022c600480360360208110156103e157600080fd5b50356001600160a01b0316610fa7565b61017f6110a9565b60055490565b6001546001600160a01b031690565b6005818154811061041b57fe5b600091825260209091206004909102018054600182015460028301546003909301546001600160a01b039092169350919084565b60075481565b60035481565b6104636110b8565b6001600160a01b0316610474610c68565b6001600160a01b0316146104bd576040805162461bcd60e51b815260206004820181905260248201526000805160206117d8833981519152604482015290519081900360640190fd5b80156104cb576104cb610a46565b600060085443116104de576008546104e0565b435b6007549091506104f6908563ffffffff6110bc16565b600755604080516080810182526001600160a01b0394851681526020810195865290810191825260006060820181815260058054600181018255925291517f036b6384b5eca791c62761152d0c79bb0604c104a5fb6f4eb0703f3154bb3db0600490920291820180546001600160a01b031916919096161790945593517f036b6384b5eca791c62761152d0c79bb0604c104a5fb6f4eb0703f3154bb3db1840155517f036b6384b5eca791c62761152d0c79bb0604c104a5fb6f4eb0703f3154bb3db28301555090517f036b6384b5eca791c62761152d0c79bb0604c104a5fb6f4eb0703f3154bb3db390910155565b60045481565b6000600583815481106105fb57fe5b60009182526020808320868452600682526040808520338652909252922080546004909202909201925083111561066e576040805162461bcd60e51b81526020600482015260126024820152711dda5d1a191c985dce881b9bdd0819dbdbd960721b604482015290519081900360640190fd5b61067784610763565b60006106bd82600101546106b164e8d4a510006106a58760030154876000015461111d90919063ffffffff16565b9063ffffffff61117616565b9063ffffffff6111dd16565b90506106c9338261123a565b81546106db908563ffffffff6111dd16565b80835560038401546106fe9164e8d4a51000916106a5919063ffffffff61111d16565b6001830155825461071f906001600160a01b0316338663ffffffff6113cb16565b604080518581529051869133917ff279e6a1f5e320cca91135676d9cb6e44ca8a08c0b88342bcdb1144f6511b5689181900360200190a35050505050565b60085481565b60006005828154811061077257fe5b906000526020600020906004020190508060020154431161079357506109a2565b8054604080516370a0823160e01b815230600482015290516000926001600160a01b0316916370a08231916024808301926020929190829003018186803b1580156107dd57600080fd5b505afa1580156107f1573d6000803e3d6000fd5b505050506040513d602081101561080757600080fd5b505190508061081d5750436002909101556109a2565b600061082d836002015443610c77565b905060006108606007546106a586600101546108546004548761111d90919063ffffffff16565b9063ffffffff61111d16565b6001546002549192506001600160a01b03908116916340c10f19911661088d84600a63ffffffff61117616565b6040518363ffffffff1660e01b815260040180836001600160a01b03166001600160a01b0316815260200182815260200192505050600060405180830381600087803b1580156108dc57600080fd5b505af11580156108f0573d6000803e3d6000fd5b5050600154604080516340c10f1960e01b81523060048201526024810186905290516001600160a01b0390921693506340c10f19925060448082019260009290919082900301818387803b15801561094757600080fd5b505af115801561095b573d6000803e3d6000fd5b5050505061098f61097e846106a564e8d4a510008561111d90919063ffffffff16565b60038601549063ffffffff6110bc16565b6003850155505043600290920191909155505b50565b6000600582815481106109b457fe5b600091825260208083208584526006825260408085203380875293529093208054600490930290930180549094506109ff926001600160a01b0391909116919063ffffffff6113cb16565b80546040805191825251849133917fbb757047c2b5f3974fe26b7c10f732e7bce710b0952a71082702781e62ae05959181900360200190a360008082556001909101555050565b60055460005b81811015610a6557610a5d81610763565b600101610a4c565b5050565b610a716110b8565b6001600160a01b0316610a82610c68565b6001600160a01b031614610acb576040805162461bcd60e51b815260206004820181905260248201526000805160206117d8833981519152604482015290519081900360640190fd5b8015610ad957610ad9610a46565b610b1c82610b1060058681548110610aed57fe5b9060005260206000209060040201600101546007546111dd90919063ffffffff16565b9063ffffffff6110bc16565b6007819055508160058481548110610b3057fe5b906000526020600020906004020160010181905550505050565b610b526110b8565b6001600160a01b0316610b63610c68565b6001600160a01b031614610bac576040805162461bcd60e51b815260206004820181905260248201526000805160206117d8833981519152604482015290519081900360640190fd5b600080546040516001600160a01b03909116907f8be0079c531659141344cd1fd0a4f28419497f9722a3daafe3b4186f6b6457e0908390a3600080546001600160a01b0319169055565b600281565b6002546001600160a01b03163314610c46576040805162461bcd60e51b81526020600482015260096024820152686465763a207775743f60b81b604482015290519081900360640190fd5b600280546001600160a01b0319166001600160a01b0392909216919091179055565b6000546001600160a01b031690565b60006003548211610c9e57610c976002610854848663ffffffff6111dd16565b9050610ce9565b6003548310610cb757610c97828463ffffffff6111dd16565b610c97610ccf600354846111dd90919063ffffffff16565b610b106002610854876003546111dd90919063ffffffff16565b92915050565b60066020908152600092835260408084209091529082529020805460019091015482565b60008060058481548110610d2357fe5b600091825260208083208784526006825260408085206001600160a01b03898116875290845281862060049586029093016003810154815484516370a0823160e01b81523098810198909852935191985093969395939492909116926370a08231926024808301939192829003018186803b158015610da157600080fd5b505afa158015610db5573d6000803e3d6000fd5b505050506040513d6020811015610dcb57600080fd5b5051600285015490915043118015610de257508015155b15610e4e576000610df7856002015443610c77565b90506000610e1e6007546106a588600101546108546004548761111d90919063ffffffff16565b9050610e49610e3c846106a58464e8d4a5100063ffffffff61111d16565b859063ffffffff6110bc16565b935050505b610e7683600101546106b164e8d4a510006106a586886000015461111d90919063ffffffff16565b979650505050505050565b6002546001600160a01b031681565b600060058381548110610e9f57fe5b60009182526020808320868452600682526040808520338652909252922060049091029091019150610ed084610763565b805415610f13576000610f0582600101546106b164e8d4a510006106a58760030154876000015461111d90919063ffffffff16565b9050610f11338261123a565b505b8154610f30906001600160a01b031633308663ffffffff61141d16565b8054610f42908463ffffffff6110bc16565b8082556003830154610f659164e8d4a51000916106a5919063ffffffff61111d16565b6001820155604080518481529051859133917f90890809c654f11d6e72a28fa60149770a0d11ec6c92319d6ceb2bb0a4ea1a159181900360200190a350505050565b610faf6110b8565b6001600160a01b0316610fc0610c68565b6001600160a01b031614611009576040805162461bcd60e51b815260206004820181905260248201526000805160206117d8833981519152604482015290519081900360640190fd5b6001600160a01b03811661104e5760405162461bcd60e51b815260040180806020018281038252602681526020018061176b6026913960400191505060405180910390fd5b600080546040516001600160a01b03808516939216917f8be0079c531659141344cd1fd0a4f28419497f9722a3daafe3b4186f6b6457e091a3600080546001600160a01b0319166001600160a01b0392909216919091179055565b6001546001600160a01b031681565b3390565b600082820183811015611116576040805162461bcd60e51b815260206004820152601b60248201527f536166654d6174683a206164646974696f6e206f766572666c6f770000000000604482015290519081900360640190fd5b9392505050565b60008261112c57506000610ce9565b8282028284828161113957fe5b04146111165760405162461bcd60e51b81526004018080602001828103825260218152602001806117b76021913960400191505060405180910390fd5b60008082116111cc576040805162461bcd60e51b815260206004820152601a60248201527f536166654d6174683a206469766973696f6e206279207a65726f000000000000604482015290519081900360640190fd5b8183816111d557fe5b049392505050565b600082821115611234576040805162461bcd60e51b815260206004820152601e60248201527f536166654d6174683a207375627472616374696f6e206f766572666c6f770000604482015290519081900360640190fd5b50900390565b600154604080516370a0823160e01b815230600482015290516000926001600160a01b0316916370a08231916024808301926020929190829003018186803b15801561128557600080fd5b505afa158015611299573d6000803e3d6000fd5b505050506040513d60208110156112af57600080fd5b5051905080821115611343576001546040805163a9059cbb60e01b81526001600160a01b038681166004830152602482018590529151919092169163a9059cbb9160448083019260209291908290030181600087803b15801561131157600080fd5b505af1158015611325573d6000803e3d6000fd5b505050506040513d602081101561133b57600080fd5b506113c69050565b6001546040805163a9059cbb60e01b81526001600160a01b038681166004830152602482018690529151919092169163a9059cbb9160448083019260209291908290030181600087803b15801561139957600080fd5b505af11580156113ad573d6000803e3d6000fd5b505050506040513d60208110156113c357600080fd5b50505b505050565b604080516001600160a01b038416602482015260448082018490528251808303909101815260649091019091526020810180516001600160e01b031663a9059cbb60e01b1790526113c690849061147d565b604080516001600160a01b0380861660248301528416604482015260648082018490528251808303909101815260849091019091526020810180516001600160e01b03166323b872dd60e01b17905261147790859061147d565b50505050565b60606114d2826040518060400160405280602081526020017f5361666542455032303a206c6f772d6c6576656c2063616c6c206661696c6564815250856001600160a01b031661152e9092919063ffffffff16565b8051909150156113c6578080602001905160208110156114f157600080fd5b50516113c65760405162461bcd60e51b815260040180806020018281038252602a815260200180611741602a913960400191505060405180910390fd5b606061153d8484600085611545565b949350505050565b6060824710156115865760405162461bcd60e51b81526004018080602001828103825260268152602001806117916026913960400191505060405180910390fd5b61158f85611696565b6115e0576040805162461bcd60e51b815260206004820152601d60248201527f416464726573733a2063616c6c20746f206e6f6e2d636f6e7472616374000000604482015290519081900360640190fd5b60006060866001600160a01b031685876040518082805190602001908083835b6020831061161f5780518252601f199092019160209182019101611600565b6001836020036101000a03801982511681845116808217855250505050505090500191505060006040518083038185875af1925050503d8060008114611681576040519150601f19603f3d011682016040523d82523d6000602084013e611686565b606091505b5091509150610e7682828661169c565b3b151590565b606083156116ab575081611116565b8251156116bb5782518084602001fd5b8160405162461bcd60e51b81526004018080602001828103825283818151815260200191508051906020019080838360005b838110156117055781810151838201526020016116ed565b50505050905090810190601f1680156117325780820380516001836020036101000a031916815260200191505b509250505060405180910390fdfe5361666542455032303a204245503230206f7065726174696f6e20646964206e6f7420737563636565644f776e61626c653a206e6577206f776e657220697320746865207a65726f2061646472657373416464726573733a20696e73756666696369656e742062616c616e636520666f722063616c6c536166654d6174683a206d756c7469706c69636174696f6e206f766572666c6f774f776e61626c653a2063616c6c6572206973206e6f7420746865206f776e6572a26469706673582212201eb87e4eb636f98f23148472e1c994e240bd553c9e43b4ebf1243c9d2e28590464736f6c63430006060033608060405269d3c21bcecceda10000006007553480156200001f57600080fd5b506040516200248638038062002486833981810160405260608110156200004557600080fd5b815160208301516040808501805191519395929483019291846401000000008211156200007157600080fd5b9083019060208201858111156200008757600080fd5b8251866020820283011164010000000082111715620000a557600080fd5b82525081516020918201928201910280838360005b83811015620000d4578181015183820152602001620000ba565b505050509050016040525050506040518060400160405280600d81526020016c2129ba30b13632902a37b5b2b760991b815250604051806040016040528060038152602001621094d560ea1b81525081600390805190602001906200013b92919062000549565b5080516200015190600490602084019062000549565b50506005805460ff19166012179055506000620001766001600160e01b036200028916565b60058054610100600160a81b0319166101006001600160a01b038416908102919091179091556040519192509060009060008051602062002466833981519152908290a3508051600a1462000212576040805162461bcd60e51b815260206004820152601d60248201527f6f6e6c79206861766520313020696e766573746f722061646472657373000000604482015290519081900360640190fd5b62000226836001600160e01b036200028e16565b600680546001600160a01b0319166001600160a01b03841617905560005b600a8110156200027f57620002768282815181106200025f57fe5b6020026020010151600754620003b660201b60201c565b60010162000244565b50505050620005eb565b335b90565b620002a16001600160e01b036200028916565b6001600160a01b0316620002bd6001600160e01b03620004ce16565b6001600160a01b03161462000319576040805162461bcd60e51b815260206004820181905260248201527f4f776e61626c653a2063616c6c6572206973206e6f7420746865206f776e6572604482015290519081900360640190fd5b6001600160a01b038116620003605760405162461bcd60e51b8152600401808060200182810382526026815260200180620024406026913960400191505060405180910390fd5b6005546040516001600160a01b0380841692610100900416906000805160206200246683398151915290600090a3600580546001600160a01b0390921661010002610100600160a81b0319909216919091179055565b6001600160a01b03821662000412576040805162461bcd60e51b815260206004820152601f60248201527f42455032303a206d696e7420746f20746865207a65726f206164647265737300604482015290519081900360640190fd5b62000429600083836001600160e01b03620004e216565b6200044581600254620004e760201b620014c91790919060201c565b6002556001600160a01b0382166000908152602081815260409091205462000478918390620014c9620004e7821b17901c565b6001600160a01b0383166000818152602081815260408083209490945583518581529351929391927fddf252ad1be2c89b69c2b068fc378daa952ba7f163c4a11628f55a4df523b3ef9281900390910190a35050565b60055461010090046001600160a01b031690565b505050565b60008282018381101562000542576040805162461bcd60e51b815260206004820152601b60248201527f536166654d6174683a206164646974696f6e206f766572666c6f770000000000604482015290519081900360640190fd5b9392505050565b828054600181600116156101000203166002900490600052602060002090601f016020900481019282601f106200058c57805160ff1916838001178555620005bc565b82800160010185558215620005bc579182015b82811115620005bc5782518255916020019190600101906200059f565b50620005ca929150620005ce565b5090565b6200028b91905b80821115620005ca5760008155600101620005d5565b611e4580620005fb6000396000f3fe608060405234801561001057600080fd5b50600436106101cf5760003560e01c8063715018a611610104578063a9059cbb116100a2578063dd62ed3e11610071578063dd62ed3e146105b6578063e7a324dc146105e4578063f1127ed8146105ec578063f2fde38b1461063e576101cf565b8063a9059cbb14610515578063b4b5ea5714610541578063c3cda52014610567578063d6b9a597146105ae576101cf565b80637ecebe00116100de5780637ecebe00146104b35780638da5cb5b146104d957806395d89b41146104e1578063a457c2d7146104e9576101cf565b8063715018a614610453578063782d6fe11461045b57806379cc679014610487576101cf565b80633950935111610171578063587cde1e1161014b578063587cde1e146103a25780635c19a95c146103c85780636fcfff45146103ee57806370a082311461042d576101cf565b8063395093511461032b57806340c10f191461035757806342966c6814610385576101cf565b806318160ddd116101ad57806318160ddd146102b557806320606b70146102cf57806323b872dd146102d7578063313ce5671461030d576101cf565b806306fdde03146101d45780630754617214610251578063095ea7b314610275575b600080fd5b6101dc610664565b6040805160208082528351818301528351919283929083019185019080838360005b838110156102165781810151838201526020016101fe565b50505050905090810190601f1680156102435780820380516001836020036101000a031916815260200191505b509250505060405180910390f35b6102596106fa565b604080516001600160a01b039092168252519081900360200190f35b6102a16004803603604081101561028b57600080fd5b506001600160a01b038135169060200135610709565b604080519115158252519081900360200190f35b6102bd610727565b60408051918252519081900360200190f35b6102bd61072d565b6102a1600480360360608110156102ed57600080fd5b506001600160a01b03813581169160208101359091169060400135610748565b6103156107d5565b6040805160ff9092168252519081900360200190f35b6102a16004803603604081101561034157600080fd5b506001600160a01b0381351690602001356107de565b6103836004803603604081101561036d57600080fd5b506001600160a01b038135169060200135610832565b005b6103836004803603602081101561039b57600080fd5b50356108c4565b610259600480360360208110156103b857600080fd5b50356001600160a01b03166108d8565b610383600480360360208110156103de57600080fd5b50356001600160a01b03166108f6565b6104146004803603602081101561040457600080fd5b50356001600160a01b0316610900565b6040805163ffffffff9092168252519081900360200190f35b6102bd6004803603602081101561044357600080fd5b50356001600160a01b0316610918565b610383610933565b6102bd6004803603604081101561047157600080fd5b506001600160a01b0381351690602001356109f7565b6103836004803603604081101561049d57600080fd5b506001600160a01b038135169060200135610bff565b6102bd600480360360208110156104c957600080fd5b50356001600160a01b0316610c5f565b610259610c71565b6101dc610c85565b6102a1600480360360408110156104ff57600080fd5b506001600160a01b038135169060200135610ce6565b6102a16004803603604081101561052b57600080fd5b506001600160a01b038135169060200135610d54565b6102bd6004803603602081101561055757600080fd5b50356001600160a01b0316610d68565b610383600480360360c081101561057d57600080fd5b506001600160a01b038135169060208101359060408101359060ff6060820135169060808101359060a00135610dcc565b6102bd611042565b6102bd600480360360408110156105cc57600080fd5b506001600160a01b0381358116916020013516611048565b6102bd611073565b61061e6004803603604081101561060257600080fd5b5080356001600160a01b0316906020013563ffffffff1661108e565b6040805163ffffffff909316835260208301919091528051918290030190f35b6103836004803603602081101561065457600080fd5b50356001600160a01b03166110bb565b60038054604080516020601f60026000196101006001881615020190951694909404938401819004810282018101909252828152606093909290918301828280156106f05780601f106106c5576101008083540402835291602001916106f0565b820191906000526020600020905b8154815290600101906020018083116106d357829003601f168201915b5050505050905090565b6006546001600160a01b031681565b600061071d6107166111db565b84846111df565b5060015b92915050565b60025490565b604051806043611c7782396043019050604051809103902081565b60006107558484846112cb565b6107cb846107616111db565b6107c685604051806060016040528060288152602001611bb0602891396001600160a01b038a1660009081526001602052604081209061079f6111db565b6001600160a01b03168152602081019190915260400160002054919063ffffffff61143216565b6111df565b5060019392505050565b60055460ff1690565b600061071d6107eb6111db565b846107c685600160006107fc6111db565b6001600160a01b03908116825260208083019390935260409182016000908120918c16815292529020549063ffffffff6114c916565b6006546001600160a01b03163314610891576040805162461bcd60e51b815260206004820152601b60248201527f42537461626c65546f6b656e56323a6f6e6c79206d696e7465722e0000000000604482015290519081900360640190fd5b61089b8282611523565b6001600160a01b038083166000908152600860205260408120546108c092168361161f565b5050565b6108d56108cf6111db565b82611768565b50565b6001600160a01b039081166000908152600860205260409020541690565b6108d53382611870565b600a6020526000908152604090205463ffffffff1681565b6001600160a01b031660009081526020819052604090205490565b61093b6111db565b6001600160a01b031661094c610c71565b6001600160a01b0316146109a7576040805162461bcd60e51b815260206004820181905260248201527f4f776e61626c653a2063616c6c6572206973206e6f7420746865206f776e6572604482015290519081900360640190fd5b60055460405160009161010090046001600160a01b0316907f8be0079c531659141344cd1fd0a4f28419497f9722a3daafe3b4186f6b6457e0908390a360058054610100600160a81b0319169055565b6000438210610a375760405162461bcd60e51b8152600401808060200182810382526026815260200180611bfd6026913960400191505060405180910390fd5b6001600160a01b0383166000908152600a602052604090205463ffffffff1680610a65576000915050610721565b6001600160a01b038416600090815260096020908152604080832063ffffffff600019860181168552925290912054168310610ad4576001600160a01b03841660009081526009602090815260408083206000199490940163ffffffff16835292905220600101549050610721565b6001600160a01b038416600090815260096020908152604080832083805290915290205463ffffffff16831015610b0f576000915050610721565b600060001982015b8163ffffffff168163ffffffff161115610bc857600282820363ffffffff16048103610b41611b29565b506001600160a01b038716600090815260096020908152604080832063ffffffff808616855290835292819020815180830190925280549093168082526001909301549181019190915290871415610ba3576020015194506107219350505050565b805163ffffffff16871115610bba57819350610bc1565b6001820392505b5050610b17565b506001600160a01b038516600090815260096020908152604080832063ffffffff9094168352929052206001015491505092915050565b6000610c3c82604051806060016040528060248152602001611dca60249139610c2f86610c2a6111db565b611048565b919063ffffffff61143216565b9050610c5083610c4a6111db565b836111df565b610c5a8383611768565b505050565b600b6020526000908152604090205481565b60055461010090046001600160a01b031690565b60048054604080516020601f60026000196101006001881615020190951694909404938401819004810282018101909252828152606093909290918301828280156106f05780601f106106c5576101008083540402835291602001916106f0565b600061071d610cf36111db565b846107c685604051806060016040528060258152602001611d036025913960016000610d1d6111db565b6001600160a01b03908116825260208083019390935260409182016000908120918d1681529252902054919063ffffffff61143216565b600061071d610d616111db565b84846112cb565b6001600160a01b0381166000908152600a602052604081205463ffffffff1680610d93576000610dc5565b6001600160a01b038316600090815260096020908152604080832063ffffffff60001986011684529091529020600101545b9392505050565b60006040518080611c776043913960430190506040518091039020610def610664565b80519060200120610dfe611905565b3060405160200180858152602001848152602001838152602001826001600160a01b03166001600160a01b0316815260200194505050505060405160208183030381529060405280519060200120905060006040518080611d6b603a91396040805191829003603a0182206020808401919091526001600160a01b038c1683830152606083018b905260808084018b90528251808503909101815260a08401835280519082012061190160f01b60c085015260c2840187905260e2808501829052835180860390910181526101028501808552815191840191909120600091829052610122860180865281905260ff8c1661014287015261016286018b905261018286018a9052935191965092945091926001926101a28083019392601f198301929081900390910190855afa158015610f3c573d6000803e3d6000fd5b5050604051601f1901519150506001600160a01b038116610f8e5760405162461bcd60e51b8152600401808060200182810382526025815260200180611da56025913960400191505060405180910390fd5b6001600160a01b0381166000908152600b602052604090208054600181019091558914610fec5760405162461bcd60e51b8152600401808060200182810382526021815260200180611c236021913960400191505060405180910390fd5b8742111561102b5760405162461bcd60e51b8152600401808060200182810382526025815260200180611bd86025913960400191505060405180910390fd5b611035818b611870565b505050505b505050505050565b60075481565b6001600160a01b03918216600090815260016020908152604080832093909416825291909152205490565b60405180603a611d6b8239603a019050604051809103902081565b60096020908152600092835260408084209091529082529020805460019091015463ffffffff9091169082565b6110c36111db565b6001600160a01b03166110d4610c71565b6001600160a01b03161461112f576040805162461bcd60e51b815260206004820181905260248201527f4f776e61626c653a2063616c6c6572206973206e6f7420746865206f776e6572604482015290519081900360640190fd5b6001600160a01b0381166111745760405162461bcd60e51b8152600401808060200182810382526026815260200180611b8a6026913960400191505060405180910390fd5b6005546040516001600160a01b0380841692610100900416907f8be0079c531659141344cd1fd0a4f28419497f9722a3daafe3b4186f6b6457e090600090a3600580546001600160a01b0390921661010002610100600160a81b0319909216919091179055565b3390565b6001600160a01b0383166112245760405162461bcd60e51b8152600401808060200182810382526024815260200180611b666024913960400191505060405180910390fd5b6001600160a01b0382166112695760405162461bcd60e51b8152600401808060200182810382526022815260200180611dee6022913960400191505060405180910390fd5b6001600160a01b03808416600081815260016020908152604080832094871680845294825291829020859055815185815291517f8c5be1e5ebec7d5bd14f71427d1e84f3dd0314c0f7b2291e5b200ac8c7c3b9259281900390910190a3505050565b6001600160a01b0383166113105760405162461bcd60e51b8152600401808060200182810382526025815260200180611b416025913960400191505060405180910390fd5b6001600160a01b0382166113555760405162461bcd60e51b8152600401808060200182810382526023815260200180611ce06023913960400191505060405180910390fd5b611360838383610c5a565b6113a381604051806060016040528060268152602001611cba602691396001600160a01b038616600090815260208190526040902054919063ffffffff61143216565b6001600160a01b0380851660009081526020819052604080822093909355908416815220546113d8908263ffffffff6114c916565b6001600160a01b038084166000818152602081815260409182902094909455805185815290519193928716927fddf252ad1be2c89b69c2b068fc378daa952ba7f163c4a11628f55a4df523b3ef92918290030190a3505050565b600081848411156114c15760405162461bcd60e51b81526004018080602001828103825283818151815260200191508051906020019080838360005b8381101561148657818101518382015260200161146e565b50505050905090810190601f1680156114b35780820380516001836020036101000a031916815260200191505b509250505060405180910390fd5b505050900390565b600082820183811015610dc5576040805162461bcd60e51b815260206004820152601b60248201527f536166654d6174683a206164646974696f6e206f766572666c6f770000000000604482015290519081900360640190fd5b6001600160a01b03821661157e576040805162461bcd60e51b815260206004820152601f60248201527f42455032303a206d696e7420746f20746865207a65726f206164647265737300604482015290519081900360640190fd5b61158a60008383610c5a565b60025461159d908263ffffffff6114c916565b6002556001600160a01b0382166000908152602081905260409020546115c9908263ffffffff6114c916565b6001600160a01b0383166000818152602081815260408083209490945583518581529351929391927fddf252ad1be2c89b69c2b068fc378daa952ba7f163c4a11628f55a4df523b3ef9281900390910190a35050565b816001600160a01b0316836001600160a01b0316141580156116415750600081115b15610c5a576001600160a01b038316156116d9576001600160a01b0383166000908152600a602052604081205463ffffffff1690816116815760006116b3565b6001600160a01b038516600090815260096020908152604080832063ffffffff60001987011684529091529020600101545b905060006116c7828563ffffffff61190916565b90506116d586848484611966565b5050505b6001600160a01b03821615610c5a576001600160a01b0382166000908152600a602052604081205463ffffffff169081611714576000611746565b6001600160a01b038416600090815260096020908152604080832063ffffffff60001987011684529091529020600101545b9050600061175a828563ffffffff6114c916565b905061103a85848484611966565b6001600160a01b0382166117ad5760405162461bcd60e51b8152600401808060200182810382526021815260200180611d286021913960400191505060405180910390fd5b6117b982600083610c5a565b6117fc81604051806060016040528060228152602001611d49602291396001600160a01b038516600090815260208190526040902054919063ffffffff61143216565b6001600160a01b038316600090815260208190526040902055600254611828908263ffffffff61190916565b6002556040805182815290516000916001600160a01b038516917fddf252ad1be2c89b69c2b068fc378daa952ba7f163c4a11628f55a4df523b3ef9181900360200190a35050565b6001600160a01b038083166000908152600860205260408120549091169061189784610918565b6001600160a01b0385811660008181526008602052604080822080546001600160a01b031916898616908117909155905194955093928616927f3134e8a2e6d97e929a7e54011ea5485d7d196dd5f0ba4d4ef95803e8e3fc257f9190a46118ff82848361161f565b50505050565b4690565b600082821115611960576040805162461bcd60e51b815260206004820152601e60248201527f536166654d6174683a207375627472616374696f6e206f766572666c6f770000604482015290519081900360640190fd5b50900390565b600061198a43604051806060016040528060338152602001611c4460339139611acb565b905060008463ffffffff161180156119d357506001600160a01b038516600090815260096020908152604080832063ffffffff6000198901811685529252909120548282169116145b15611a10576001600160a01b038516600090815260096020908152604080832063ffffffff60001989011684529091529020600101829055611a81565b60408051808201825263ffffffff808416825260208083018681526001600160a01b038a166000818152600984528681208b8616825284528681209551865490861663ffffffff199182161787559251600196870155908152600a9092529390208054928801909116919092161790555b604080518481526020810184905281516001600160a01b038816927fdec2bacdd2f05b59de34da9b523dff8be42e5e38e818c82fdb0bae774387a724928290030190a25050505050565b6000816401000000008410611b215760405162461bcd60e51b815260206004820181815283516024840152835190928392604490910191908501908083836000831561148657818101518382015260200161146e565b509192915050565b60408051808201909152600080825260208201529056fe42455032303a207472616e736665722066726f6d20746865207a65726f206164647265737342455032303a20617070726f76652066726f6d20746865207a65726f20616464726573734f776e61626c653a206e6577206f776e657220697320746865207a65726f206164647265737342455032303a207472616e7366657220616d6f756e74206578636565647320616c6c6f77616e63654253543a3a64656c656761746542795369673a207369676e617475726520657870697265644253543a3a6765745072696f72566f7465733a206e6f74207965742064657465726d696e65644253543a3a64656c656761746542795369673a20696e76616c6964206e6f6e63654253543a3a5f7772697465436865636b706f696e743a20626c6f636b206e756d62657220657863656564732033322062697473454950373132446f6d61696e28737472696e67206e616d652c75696e7432353620636861696e49642c6164647265737320766572696679696e67436f6e74726163742942455032303a207472616e7366657220616d6f756e7420657863656564732062616c616e636542455032303a207472616e7366657220746f20746865207a65726f206164647265737342455032303a2064656372656173656420616c6c6f77616e63652062656c6f77207a65726f42455032303a206275726e2066726f6d20746865207a65726f206164647265737342455032303a206275726e20616d6f756e7420657863656564732062616c616e636544656c65676174696f6e28616464726573732064656c6567617465652c75696e74323536206e6f6e63652c75696e7432353620657870697279294253543a3a64656c656761746542795369673a20696e76616c6964207369676e617475726542455032303a206275726e20616d6f756e74206578636565647320616c6c6f77616e636542455032303a20617070726f766520746f20746865207a65726f2061646472657373a2646970667358221220800642dc0d9134c38748492224c4e0abba156b0b3d96c961f23aca1da14a4ad964736f6c634300060600334f776e61626c653a206e6577206f776e657220697320746865207a65726f20616464726573738be0079c531659141344cd1fd0a4f28419497f9722a3daafe3b4186f6b6457e04f776e61626c653a206e6577206f776e657220697320746865207a65726f20616464726573738be0079c531659141344cd1fd0a4f28419497f9722a3daafe3b4186f6b6457e0",
  "immutableReferences": {},
  "source": "// SPDX-License-Identifier: MIT\n\npragma solidity ^0.6.0;\n\nimport \"../interfaces/IBEP20.sol\";\nimport \"..//interfaces/IBStablePool.sol\";\nimport \"../lib/SafeBEP20.sol\";\nimport \"@openzeppelin/contracts/utils/EnumerableSet.sol\";\nimport \"@openzeppelin/contracts/math/SafeMath.sol\";\nimport \"@openzeppelin/contracts/access/Ownable.sol\";\nimport \"./BStableTokenV2.sol\";\n\ncontract BStableProxyV2 is Ownable {\n    using SafeMath for uint256;\n    using SafeBEP20 for IBEP20;\n    struct UserInfo {\n        uint256 amount; // How many LP tokens the user has provided.\n        uint256 rewardDebt; // Reward debt. See explanation below.\n    }\n    // Info of each pool.\n    struct PoolInfo {\n        IBEP20 lpToken; // Address of LP token contract.\n        uint256 allocPoint; // How many allocation points assigned to this pool. BSTs to distribute per block.\n        uint256 lastRewardBlock; // Last block number that BSTs distribution occurs.\n        uint256 accTokenPerShare; // Accumulated BSTs per share, times 1e12. See below.\n    }\n    BStableTokenV2 public token;\n    // Dev address.\n    address public devaddr;\n    // Block number when bonus BST period ends.\n    uint256 public bonusEndBlock;\n    // BST tokens created per block.\n    uint256 public tokenPerBlock;\n    // Bonus muliplier for early token makers.\n    uint256 public constant BONUS_MULTIPLIER = 2;\n    // Info of each pool.\n    PoolInfo[] public poolInfo;\n    // Info of each user that stakes LP tokens.\n    mapping(uint256 => mapping(address => UserInfo)) public userInfo;\n    // Total allocation poitns. Must be the sum of all allocation points in all pools.\n    uint256 public totalAllocPoint = 0;\n    // The block number when BST mining starts.\n    uint256 public startBlock;\n\n    event Deposit(address indexed user, uint256 indexed pid, uint256 amount);\n    event Withdraw(address indexed user, uint256 indexed pid, uint256 amount);\n    event EmergencyWithdraw(\n        address indexed user,\n        uint256 indexed pid,\n        uint256 amount\n    );\n\n    constructor(\n        address _devaddr,\n        uint256 _tokenPerBlock,\n        uint256 _startBlock,\n        uint256 _bonusEndBlock,\n        address[] memory investors,\n        address ownerAddress\n    ) public {\n        token = new BStableTokenV2(ownerAddress, address(this), investors);\n        devaddr = _devaddr;\n        tokenPerBlock = _tokenPerBlock;\n        bonusEndBlock = _bonusEndBlock;\n        startBlock = _startBlock;\n        transferOwnership(ownerAddress);\n    }\n\n    function poolLength() external view returns (uint256) {\n        return poolInfo.length;\n    }\n\n    // Add a new lp to the pool. Can only be called by the owner.\n    // XXX DO NOT add the same LP token more than once. Rewards will be messed up if you do.\n    function add(\n        uint256 _allocPoint,\n        IBEP20 _lpToken,\n        bool _withUpdate\n    ) public onlyOwner {\n        if (_withUpdate) {\n            massUpdatePools();\n        }\n        uint256 lastRewardBlock =\n            block.number > startBlock ? block.number : startBlock;\n        totalAllocPoint = totalAllocPoint.add(_allocPoint);\n        poolInfo.push(\n            PoolInfo({\n                lpToken: _lpToken,\n                allocPoint: _allocPoint,\n                lastRewardBlock: lastRewardBlock,\n                accTokenPerShare: 0\n            })\n        );\n    }\n\n    // Update the given pool's BST allocation point. Can only be called by the owner.\n    function set(\n        uint256 _pid,\n        uint256 _allocPoint,\n        bool _withUpdate\n    ) public onlyOwner {\n        if (_withUpdate) {\n            massUpdatePools();\n        }\n        totalAllocPoint = totalAllocPoint.sub(poolInfo[_pid].allocPoint).add(\n            _allocPoint\n        );\n        poolInfo[_pid].allocPoint = _allocPoint;\n    }\n\n    // Return reward multiplier over the given _from to _to block.\n    function getMultiplier(uint256 _from, uint256 _to)\n        public\n        view\n        returns (uint256)\n    {\n        if (_to <= bonusEndBlock) {\n            return _to.sub(_from).mul(BONUS_MULTIPLIER);\n        } else if (_from >= bonusEndBlock) {\n            return _to.sub(_from);\n        } else {\n            return\n                bonusEndBlock.sub(_from).mul(BONUS_MULTIPLIER).add(\n                    _to.sub(bonusEndBlock)\n                );\n        }\n    }\n\n    // View function to see pending BSTs on frontend.\n    function pendingReward(uint256 _pid, address _user)\n        external\n        view\n        returns (uint256)\n    {\n        PoolInfo storage pool = poolInfo[_pid];\n        UserInfo storage user = userInfo[_pid][_user];\n        uint256 accTokenPerShare = pool.accTokenPerShare;\n        uint256 lpSupply = pool.lpToken.balanceOf(address(this));\n        if (block.number > pool.lastRewardBlock && lpSupply != 0) {\n            uint256 multiplier =\n                getMultiplier(pool.lastRewardBlock, block.number);\n            uint256 tokenReward =\n                multiplier.mul(tokenPerBlock).mul(pool.allocPoint).div(\n                    totalAllocPoint\n                );\n            accTokenPerShare = accTokenPerShare.add(\n                tokenReward.mul(1e12).div(lpSupply)\n            );\n        }\n        return user.amount.mul(accTokenPerShare).div(1e12).sub(user.rewardDebt);\n    }\n\n    // Update reward vairables for all pools. Be careful of gas spending!\n    function massUpdatePools() public {\n        uint256 length = poolInfo.length;\n        for (uint256 pid = 0; pid < length; ++pid) {\n            updatePool(pid);\n        }\n    }\n\n    // Update reward variables of the given pool to be up-to-date.\n    function updatePool(uint256 _pid) public {\n        PoolInfo storage pool = poolInfo[_pid];\n        if (block.number <= pool.lastRewardBlock) {\n            return;\n        }\n        uint256 lpSupply = pool.lpToken.balanceOf(address(this));\n        if (lpSupply == 0) {\n            pool.lastRewardBlock = block.number;\n            return;\n        }\n        uint256 multiplier = getMultiplier(pool.lastRewardBlock, block.number);\n        uint256 tokenReward =\n            multiplier.mul(tokenPerBlock).mul(pool.allocPoint).div(\n                totalAllocPoint\n            );\n        token.mint(devaddr, tokenReward.div(10));\n        token.mint(address(this), tokenReward);\n        pool.accTokenPerShare = pool.accTokenPerShare.add(\n            tokenReward.mul(1e12).div(lpSupply)\n        );\n        pool.lastRewardBlock = block.number;\n    }\n\n    // Deposit LP tokens to BStableProxyV2 for BST allocation.\n    function deposit(uint256 _pid, uint256 _amount) public {\n        PoolInfo storage pool = poolInfo[_pid];\n        UserInfo storage user = userInfo[_pid][msg.sender];\n        updatePool(_pid);\n        if (user.amount > 0) {\n            uint256 pending =\n                user.amount.mul(pool.accTokenPerShare).div(1e12).sub(\n                    user.rewardDebt\n                );\n            safeTokenTransfer(msg.sender, pending);\n        }\n        pool.lpToken.safeTransferFrom(\n            address(msg.sender),\n            address(this),\n            _amount\n        );\n        user.amount = user.amount.add(_amount);\n        user.rewardDebt = user.amount.mul(pool.accTokenPerShare).div(1e12);\n        emit Deposit(msg.sender, _pid, _amount);\n    }\n\n    // Withdraw LP tokens from BStableProxyV2.\n    function withdraw(uint256 _pid, uint256 _amount) public {\n        PoolInfo storage pool = poolInfo[_pid];\n        UserInfo storage user = userInfo[_pid][msg.sender];\n        require(user.amount >= _amount, \"withdraw: not good\");\n        updatePool(_pid);\n        uint256 pending =\n            user.amount.mul(pool.accTokenPerShare).div(1e12).sub(\n                user.rewardDebt\n            );\n        safeTokenTransfer(msg.sender, pending);\n        user.amount = user.amount.sub(_amount);\n        user.rewardDebt = user.amount.mul(pool.accTokenPerShare).div(1e12);\n        pool.lpToken.safeTransfer(address(msg.sender), _amount);\n        emit Withdraw(msg.sender, _pid, _amount);\n    }\n\n    // Withdraw without caring about rewards. EMERGENCY ONLY.\n    function emergencyWithdraw(uint256 _pid) public {\n        PoolInfo storage pool = poolInfo[_pid];\n        UserInfo storage user = userInfo[_pid][msg.sender];\n        pool.lpToken.safeTransfer(address(msg.sender), user.amount);\n        emit EmergencyWithdraw(msg.sender, _pid, user.amount);\n        user.amount = 0;\n        user.rewardDebt = 0;\n    }\n\n    // Safe token transfer function, just in case if rounding error causes pool to not have enough BSTs.\n    function safeTokenTransfer(address _to, uint256 _amount) internal {\n        uint256 tokenBal = token.balanceOf(address(this));\n        if (_amount > tokenBal) {\n            token.transfer(_to, tokenBal);\n        } else {\n            token.transfer(_to, _amount);\n        }\n    }\n\n    // Update dev address by the previous dev.\n    function dev(address _devaddr) public {\n        require(msg.sender == devaddr, \"dev: wut?\");\n        devaddr = _devaddr;\n    }\n\n    function getTokenAddress() external view returns (address) {\n        return address(token);\n    }\n}\n",
  "sourcePath": "/Users/zhangleping/github.com/0xa8c81519/bsc-contracts/contracts/v2/BStableProxyV2.sol",
  "compiler": {
    "name": "solc",
    "version": "0.6.6+commit.6c089d02.Emscripten.clang"
  },
  "schemaVersion": "3.3.4",
  "updatedAt": "2021-04-24T10:28:45.853Z",
  "networkType": "ethereum",
  "devdoc": {
    "methods": {
      "owner()": {
        "details": "Returns the address of the current owner."
      },
      "renounceOwnership()": {
        "details": "Leaves the contract without owner. It will not be possible to call `onlyOwner` functions anymore. Can only be called by the current owner.     * NOTE: Renouncing ownership will leave the contract without an owner, thereby removing any functionality that is only available to the owner."
      },
      "transferOwnership(address)": {
        "details": "Transfers ownership of the contract to a new account (`newOwner`). Can only be called by the current owner."
      }
    }
  },
  "userdoc": {
    "methods": {}
  }
}