{
  "contractName": "BStablePayment",
  "abi": [
    {
      "inputs": [
        {
          "internalType": "string",
          "name": "_name",
          "type": "string"
        },
        {
          "internalType": "string",
          "name": "_symbol",
          "type": "string"
        },
        {
          "internalType": "address",
          "name": "_owner",
          "type": "address"
        }
      ],
      "stateMutability": "nonpayable",
      "type": "constructor"
    },
    {
      "anonymous": false,
      "inputs": [
        {
          "indexed": true,
          "internalType": "address",
          "name": "owner",
          "type": "address"
        },
        {
          "indexed": true,
          "internalType": "address",
          "name": "spender",
          "type": "address"
        },
        {
          "indexed": false,
          "internalType": "uint256",
          "name": "value",
          "type": "uint256"
        }
      ],
      "name": "Approval",
      "type": "event"
    },
    {
      "anonymous": false,
      "inputs": [
        {
          "indexed": true,
          "internalType": "address",
          "name": "previousOwner",
          "type": "address"
        },
        {
          "indexed": true,
          "internalType": "address",
          "name": "newOwner",
          "type": "address"
        }
      ],
      "name": "OwnershipTransferred",
      "type": "event"
    },
    {
      "anonymous": false,
      "inputs": [
        {
          "indexed": false,
          "internalType": "address",
          "name": "payToken",
          "type": "address"
        },
        {
          "indexed": false,
          "internalType": "address",
          "name": "receiptToken",
          "type": "address"
        },
        {
          "indexed": false,
          "internalType": "address",
          "name": "payer",
          "type": "address"
        },
        {
          "indexed": false,
          "internalType": "address",
          "name": "recipt",
          "type": "address"
        }
      ],
      "name": "Pay",
      "type": "event"
    },
    {
      "anonymous": false,
      "inputs": [
        {
          "indexed": true,
          "internalType": "address",
          "name": "from",
          "type": "address"
        },
        {
          "indexed": true,
          "internalType": "address",
          "name": "to",
          "type": "address"
        },
        {
          "indexed": false,
          "internalType": "uint256",
          "name": "value",
          "type": "uint256"
        }
      ],
      "name": "Transfer",
      "type": "event"
    },
    {
      "inputs": [
        {
          "internalType": "address",
          "name": "owner",
          "type": "address"
        },
        {
          "internalType": "address",
          "name": "spender",
          "type": "address"
        }
      ],
      "name": "allowance",
      "outputs": [
        {
          "internalType": "uint256",
          "name": "",
          "type": "uint256"
        }
      ],
      "stateMutability": "view",
      "type": "function",
      "constant": true
    },
    {
      "inputs": [
        {
          "internalType": "address",
          "name": "spender",
          "type": "address"
        },
        {
          "internalType": "uint256",
          "name": "amount",
          "type": "uint256"
        }
      ],
      "name": "approve",
      "outputs": [
        {
          "internalType": "bool",
          "name": "",
          "type": "bool"
        }
      ],
      "stateMutability": "nonpayable",
      "type": "function"
    },
    {
      "inputs": [
        {
          "internalType": "address",
          "name": "account",
          "type": "address"
        }
      ],
      "name": "balanceOf",
      "outputs": [
        {
          "internalType": "uint256",
          "name": "",
          "type": "uint256"
        }
      ],
      "stateMutability": "view",
      "type": "function",
      "constant": true
    },
    {
      "inputs": [
        {
          "internalType": "address",
          "name": "",
          "type": "address"
        }
      ],
      "name": "coins",
      "outputs": [
        {
          "internalType": "uint256",
          "name": "index",
          "type": "uint256"
        },
        {
          "internalType": "bool",
          "name": "available",
          "type": "bool"
        }
      ],
      "stateMutability": "view",
      "type": "function",
      "constant": true
    },
    {
      "inputs": [],
      "name": "decimals",
      "outputs": [
        {
          "internalType": "uint8",
          "name": "",
          "type": "uint8"
        }
      ],
      "stateMutability": "view",
      "type": "function",
      "constant": true
    },
    {
      "inputs": [
        {
          "internalType": "address",
          "name": "spender",
          "type": "address"
        },
        {
          "internalType": "uint256",
          "name": "subtractedValue",
          "type": "uint256"
        }
      ],
      "name": "decreaseAllowance",
      "outputs": [
        {
          "internalType": "bool",
          "name": "",
          "type": "bool"
        }
      ],
      "stateMutability": "nonpayable",
      "type": "function"
    },
    {
      "inputs": [
        {
          "internalType": "address",
          "name": "spender",
          "type": "address"
        },
        {
          "internalType": "uint256",
          "name": "addedValue",
          "type": "uint256"
        }
      ],
      "name": "increaseAllowance",
      "outputs": [
        {
          "internalType": "bool",
          "name": "",
          "type": "bool"
        }
      ],
      "stateMutability": "nonpayable",
      "type": "function"
    },
    {
      "inputs": [],
      "name": "name",
      "outputs": [
        {
          "internalType": "string",
          "name": "",
          "type": "string"
        }
      ],
      "stateMutability": "view",
      "type": "function",
      "constant": true
    },
    {
      "inputs": [],
      "name": "owner",
      "outputs": [
        {
          "internalType": "address",
          "name": "",
          "type": "address"
        }
      ],
      "stateMutability": "view",
      "type": "function",
      "constant": true
    },
    {
      "inputs": [],
      "name": "paymentToken",
      "outputs": [
        {
          "internalType": "contract IPaymentToken",
          "name": "",
          "type": "address"
        }
      ],
      "stateMutability": "view",
      "type": "function",
      "constant": true
    },
    {
      "inputs": [],
      "name": "pool",
      "outputs": [
        {
          "internalType": "contract IBStablePool",
          "name": "",
          "type": "address"
        }
      ],
      "stateMutability": "view",
      "type": "function",
      "constant": true
    },
    {
      "inputs": [],
      "name": "renounceOwnership",
      "outputs": [],
      "stateMutability": "nonpayable",
      "type": "function"
    },
    {
      "inputs": [],
      "name": "symbol",
      "outputs": [
        {
          "internalType": "string",
          "name": "",
          "type": "string"
        }
      ],
      "stateMutability": "view",
      "type": "function",
      "constant": true
    },
    {
      "inputs": [],
      "name": "totalSupply",
      "outputs": [
        {
          "internalType": "uint256",
          "name": "",
          "type": "uint256"
        }
      ],
      "stateMutability": "view",
      "type": "function",
      "constant": true
    },
    {
      "inputs": [
        {
          "internalType": "address",
          "name": "recipient",
          "type": "address"
        },
        {
          "internalType": "uint256",
          "name": "amount",
          "type": "uint256"
        }
      ],
      "name": "transfer",
      "outputs": [
        {
          "internalType": "bool",
          "name": "",
          "type": "bool"
        }
      ],
      "stateMutability": "nonpayable",
      "type": "function"
    },
    {
      "inputs": [
        {
          "internalType": "address",
          "name": "sender",
          "type": "address"
        },
        {
          "internalType": "address",
          "name": "recipient",
          "type": "address"
        },
        {
          "internalType": "uint256",
          "name": "amount",
          "type": "uint256"
        }
      ],
      "name": "transferFrom",
      "outputs": [
        {
          "internalType": "bool",
          "name": "",
          "type": "bool"
        }
      ],
      "stateMutability": "nonpayable",
      "type": "function"
    },
    {
      "inputs": [
        {
          "internalType": "address",
          "name": "newOwner",
          "type": "address"
        }
      ],
      "name": "transferOwnership",
      "outputs": [],
      "stateMutability": "nonpayable",
      "type": "function"
    },
    {
      "inputs": [
        {
          "internalType": "address",
          "name": "_coin",
          "type": "address"
        },
        {
          "internalType": "uint32",
          "name": "index",
          "type": "uint32"
        }
      ],
      "name": "addCoins",
      "outputs": [],
      "stateMutability": "nonpayable",
      "type": "function"
    },
    {
      "inputs": [
        {
          "internalType": "address",
          "name": "_coin",
          "type": "address"
        }
      ],
      "name": "removeCoins",
      "outputs": [],
      "stateMutability": "nonpayable",
      "type": "function"
    },
    {
      "inputs": [
        {
          "internalType": "contract IPaymentToken",
          "name": "_paymentToken",
          "type": "address"
        }
      ],
      "name": "setPaymentToken",
      "outputs": [],
      "stateMutability": "nonpayable",
      "type": "function"
    },
    {
      "inputs": [
        {
          "internalType": "address",
          "name": "_to",
          "type": "address"
        }
      ],
      "name": "transferMinterTo",
      "outputs": [],
      "stateMutability": "nonpayable",
      "type": "function"
    },
    {
      "inputs": [
        {
          "internalType": "contract IBStablePool",
          "name": "_pool",
          "type": "address"
        }
      ],
      "name": "setPool",
      "outputs": [],
      "stateMutability": "nonpayable",
      "type": "function"
    },
    {
      "inputs": [
        {
          "internalType": "address",
          "name": "receiptToken",
          "type": "address"
        },
        {
          "internalType": "address",
          "name": "receipt",
          "type": "address"
        },
        {
          "internalType": "uint256",
          "name": "amt",
          "type": "uint256"
        }
      ],
      "name": "pay",
      "outputs": [],
      "stateMutability": "nonpayable",
      "type": "function"
    },
    {
      "inputs": [
        {
          "internalType": "address",
          "name": "payToken",
          "type": "address"
        },
        {
          "internalType": "address",
          "name": "receiptToken",
          "type": "address"
        },
        {
          "internalType": "uint256",
          "name": "payAmt",
          "type": "uint256"
        },
        {
          "internalType": "uint256",
          "name": "receiptAmt",
          "type": "uint256"
        },
        {
          "internalType": "address",
          "name": "receipt",
          "type": "address"
        }
      ],
      "name": "payWithSwap",
      "outputs": [],
      "stateMutability": "nonpayable",
      "type": "function"
    }
  ],
  "bytecode": "0x60806040523480156200001157600080fd5b506040516200213c3803806200213c833981810160405260608110156200003757600080fd5b81019080805160405193929190846401000000008211156200005857600080fd5b9083019060208201858111156200006e57600080fd5b82516401000000008111828201881017156200008957600080fd5b82525081516020918201929091019080838360005b83811015620000b85781810151838201526020016200009e565b50505050905090810190601f168015620000e65780820380516001836020036101000a031916815260200191505b50604052602001805160405193929190846401000000008211156200010a57600080fd5b9083019060208201858111156200012057600080fd5b82516401000000008111828201881017156200013b57600080fd5b82525081516020918201929091019080838360005b838110156200016a57818101518382015260200162000150565b50505050905090810190601f168015620001985780820380516001836020036101000a031916815260200191505b5060405260209081015185519093508592508491620001bd916003918501906200039b565b508051620001d39060049060208401906200039b565b50506005805460ff19166012179055506000620001f86001600160e01b036200025a16565b60058054610100600160a81b0319166101006001600160a01b03841690810291909117909155604051919250906000906000805160206200211c833981519152908290a35062000251816001600160e01b036200025f16565b5050506200043d565b335b90565b620002726001600160e01b036200025a16565b6001600160a01b03166200028e6001600160e01b036200038716565b6001600160a01b031614620002ea576040805162461bcd60e51b815260206004820181905260248201527f4f776e61626c653a2063616c6c6572206973206e6f7420746865206f776e6572604482015290519081900360640190fd5b6001600160a01b038116620003315760405162461bcd60e51b8152600401808060200182810382526026815260200180620020f66026913960400191505060405180910390fd5b6005546040516001600160a01b0380841692610100900416906000805160206200211c83398151915290600090a3600580546001600160a01b0390921661010002610100600160a81b0319909216919091179055565b60055461010090046001600160a01b031690565b828054600181600116156101000203166002900490600052602060002090601f016020900481019282601f10620003de57805160ff19168380011785556200040e565b828001600101855582156200040e579182015b828111156200040e578251825591602001919060010190620003f1565b506200041c92915062000420565b5090565b6200025c91905b808211156200041c576000815560010162000427565b611ca9806200044d6000396000f3fe608060405234801561001057600080fd5b50600436106101585760003560e01c806370a08231116100c3578063a457c2d71161007c578063a457c2d714610447578063a9059cbb14610473578063b3d761881461049f578063dd62ed3e146104d5578063e3bce71814610503578063f2fde38b1461052957610158565b806370a0823114610398578063715018a6146103be5780637c775dd8146103c65780637d0f7a88146103f85780638da5cb5b1461043757806395d89b411461043f57610158565b80633013ce29116101155780633013ce29146102d4578063313ce567146102dc57806339509351146102fa5780634437152a1461032657806360cb38141461034c5780636a326ab11461037257610158565b806306fdde031461015d57806307d3b6a2146101da578063095ea7b31461022057806316f0115b1461026057806318160ddd1461028457806323b872dd1461029e575b600080fd5b61016561054f565b6040805160208082528351818301528351919283929083019185019080838360005b8381101561019f578181015183820152602001610187565b50505050905090810190601f1680156101cc5780820380516001836020036101000a031916815260200191505b509250505060405180910390f35b61021e600480360360a08110156101f057600080fd5b506001600160a01b0381358116916020810135821691604082013591606081013591608090910135166105e5565b005b61024c6004803603604081101561023657600080fd5b506001600160a01b038135169060200135610965565b604080519115158252519081900360200190f35b610268610982565b604080516001600160a01b039092168252519081900360200190f35b61028c610991565b60408051918252519081900360200190f35b61024c600480360360608110156102b457600080fd5b506001600160a01b03813581169160208101359091169060400135610997565b610268610a24565b6102e4610a33565b6040805160ff9092168252519081900360200190f35b61024c6004803603604081101561031057600080fd5b506001600160a01b038135169060200135610a3c565b61021e6004803603602081101561033c57600080fd5b50356001600160a01b0316610a90565b61021e6004803603602081101561036257600080fd5b50356001600160a01b0316610b14565b61021e6004803603602081101561038857600080fd5b50356001600160a01b0316610bdf565b61028c600480360360208110156103ae57600080fd5b50356001600160a01b0316610c63565b61021e610c7e565b61021e600480360360408110156103dc57600080fd5b5080356001600160a01b0316906020013563ffffffff16610d30565b61041e6004803603602081101561040e57600080fd5b50356001600160a01b0316610e54565b6040805192835290151560208301528051918290030190f35b610268610e70565b610165610e84565b61024c6004803603604081101561045d57600080fd5b506001600160a01b038135169060200135610ee5565b61024c6004803603604081101561048957600080fd5b506001600160a01b038135169060200135610f53565b61021e600480360360608110156104b557600080fd5b506001600160a01b03813581169160208101359091169060400135610f67565b61028c600480360360408110156104eb57600080fd5b506001600160a01b0381358116916020013516611100565b61021e6004803603602081101561051957600080fd5b50356001600160a01b031661112b565b61021e6004803603602081101561053f57600080fd5b50356001600160a01b0316611226565b60038054604080516020601f60026000196101006001881615020190951694909404938401819004810282018101909252828152606093909290918301828280156105db5780601f106105b0576101008083540402835291602001916105db565b820191906000526020600020905b8154815290600101906020018083116105be57829003601f168201915b5050505050905090565b836001600160a01b0316856001600160a01b0316141561064c576040805162461bcd60e51b815260206004820152601860248201527f5061796d656e743a207468652073616d6520746f6b656e2e0000000000000000604482015290519081900360640190fd5b6001600160a01b0380861660009081526008602052604080822054928716825290205461067b87333088611334565b6007546106939088906001600160a01b031687611491565b604080516370a0823160e01b815230600482015290516000916001600160a01b038916916370a0823191602480820192602092909190829003018186803b1580156106dd57600080fd5b505afa1580156106f1573d6000803e3d6000fd5b505050506040513d602081101561070757600080fd5b505160075460408051630b68372160e31b81526004810187905260248101869052604481018a90526064810189905290519293506001600160a01b0390911691635b41b9089160848082019260009290919082900301818387803b15801561076e57600080fd5b505af1158015610782573d6000803e3d6000fd5b50505050600061081a82896001600160a01b03166370a08231306040518263ffffffff1660e01b815260040180826001600160a01b03166001600160a01b0316815260200191505060206040518083038186803b1580156107e257600080fd5b505afa1580156107f6573d6000803e3d6000fd5b505050506040513d602081101561080c57600080fd5b50519063ffffffff6115f416565b905085811015610871576040805162461bcd60e51b815260206004820152601f60248201527f5061796d656e743a207377617020616d7420696e73756666696369656e742e00604482015290519081900360640190fd5b61087c888688611651565b6108968833610891848a63ffffffff6115f416565b611651565b600654604080516308934a5f60e31b8152336004820152670de0b6b3a7640000602482015290516001600160a01b039092169163449a52f89160448082019260009290919082900301818387803b1580156108f057600080fd5b505af1158015610904573d6000803e3d6000fd5b5050604080516001600160a01b03808e168252808d16602083015233828401528916606082015290517f8049bd343471d985a0a44482e4f7e94d9180cc4c4731c410980f5dd5704899889350908190036080019150a1505050505050505050565b60006109796109726117b4565b84846117b8565b50600192915050565b6007546001600160a01b031681565b60025490565b60006109a48484846118a4565b610a1a846109b06117b4565b610a1585604051806060016040528060288152602001611b78602891396001600160a01b038a166000908152600160205260408120906109ee6117b4565b6001600160a01b03168152602081019190915260400160002054919063ffffffff611a0b16565b6117b8565b5060019392505050565b6006546001600160a01b031681565b60055460ff1690565b6000610979610a496117b4565b84610a158560016000610a5a6117b4565b6001600160a01b03908116825260208083019390935260409182016000908120918c16815292529020549063ffffffff611aa216565b610a986117b4565b6001600160a01b0316610aa9610e70565b6001600160a01b031614610af2576040805162461bcd60e51b81526020600482018190526024820152600080516020611ba0833981519152604482015290519081900360640190fd5b600780546001600160a01b0319166001600160a01b0392909216919091179055565b610b1c6117b4565b6001600160a01b0316610b2d610e70565b6001600160a01b031614610b76576040805162461bcd60e51b81526020600482018190526024820152600080516020611ba0833981519152604482015290519081900360640190fd5b60065460408051631832ce0560e21b81526001600160a01b038481166004830152915191909216916360cb381491602480830192600092919082900301818387803b158015610bc457600080fd5b505af1158015610bd8573d6000803e3d6000fd5b5050505050565b610be76117b4565b6001600160a01b0316610bf8610e70565b6001600160a01b031614610c41576040805162461bcd60e51b81526020600482018190526024820152600080516020611ba0833981519152604482015290519081900360640190fd5b600680546001600160a01b0319166001600160a01b0392909216919091179055565b6001600160a01b031660009081526020819052604090205490565b610c866117b4565b6001600160a01b0316610c97610e70565b6001600160a01b031614610ce0576040805162461bcd60e51b81526020600482018190526024820152600080516020611ba0833981519152604482015290519081900360640190fd5b60055460405160009161010090046001600160a01b0316907f8be0079c531659141344cd1fd0a4f28419497f9722a3daafe3b4186f6b6457e0908390a360058054610100600160a81b0319169055565b610d386117b4565b6001600160a01b0316610d49610e70565b6001600160a01b031614610d92576040805162461bcd60e51b81526020600482018190526024820152600080516020611ba0833981519152604482015290519081900360640190fd5b6001600160a01b03821660009081526008602052604090206001015460ff1615610e03576040805162461bcd60e51b815260206004820152601b60248201527f5061796d656e743a20636f696e732064756d706c6963617465642e0000000000604482015290519081900360640190fd5b60408051808201825263ffffffff9092168252600160208084018281526001600160a01b0390951660009081526008909152919091209151825591519101805491151560ff19909216919091179055565b6008602052600090815260409020805460019091015460ff1682565b60055461010090046001600160a01b031690565b60048054604080516020601f60026000196101006001881615020190951694909404938401819004810282018101909252828152606093909290918301828280156105db5780601f106105b0576101008083540402835291602001916105db565b6000610979610ef26117b4565b84610a1585604051806060016040528060258152602001611c096025913960016000610f1c6117b4565b6001600160a01b03908116825260208083019390935260409182016000908120918d1681529252902054919063ffffffff611a0b16565b6000610979610f606117b4565b84846118a4565b604080516370a0823160e01b815233600482015290516001600160a01b038516916370a08231916024808301926020929190829003018186803b158015610fad57600080fd5b505afa158015610fc1573d6000803e3d6000fd5b505050506040513d6020811015610fd757600080fd5b505181111561102d576040805162461bcd60e51b815260206004820152601e60248201527f5061796d656e743a20696e73756666696369656e742062616c616e63652e0000604482015290519081900360640190fd5b61103983338484611334565b600654604080516308934a5f60e31b8152336004820152670de0b6b3a7640000602482015290516001600160a01b039092169163449a52f89160448082019260009290919082900301818387803b15801561109357600080fd5b505af11580156110a7573d6000803e3d6000fd5b5050604080516001600160a01b03808816808352602083015233828401528616606082015290517f8049bd343471d985a0a44482e4f7e94d9180cc4c4731c410980f5dd5704899889350908190036080019150a1505050565b6001600160a01b03918216600090815260016020908152604080832093909416825291909152205490565b6111336117b4565b6001600160a01b0316611144610e70565b6001600160a01b03161461118d576040805162461bcd60e51b81526020600482018190526024820152600080516020611ba0833981519152604482015290519081900360640190fd5b6001600160a01b038116600090815260086020526040902060019081015460ff16151514611202576040805162461bcd60e51b815260206004820152601860248201527f5061796d656e743a20636f696e206e6f206578697374732e0000000000000000604482015290519081900360640190fd5b6001600160a01b03166000908152600860205260409020600101805460ff19169055565b61122e6117b4565b6001600160a01b031661123f610e70565b6001600160a01b031614611288576040805162461bcd60e51b81526020600482018190526024820152600080516020611ba0833981519152604482015290519081900360640190fd5b6001600160a01b0381166112cd5760405162461bcd60e51b8152600401808060200182810382526026815260200180611b526026913960400191505060405180910390fd5b6005546040516001600160a01b0380841692610100900416907f8be0079c531659141344cd1fd0a4f28419497f9722a3daafe3b4186f6b6457e090600090a3600580546001600160a01b0390921661010002610100600160a81b0319909216919091179055565b604080516001600160a01b0385811660248301528481166044830152606480830185905283518084039091018152608490920183526020820180516001600160e01b03166323b872dd60e01b17815292518251600094606094938a169392918291908083835b602083106113b95780518252601f19909201916020918201910161139a565b6001836020036101000a0380198251168184511680821785525050505050509050019150506000604051808303816000865af19150503d806000811461141b576040519150601f19603f3d011682016040523d82523d6000602084013e611420565b606091505b509150915081801561144e57508051158061144e575080806020019051602081101561144b57600080fd5b50515b6114895760405162461bcd60e51b8152600401808060200182810382526024815260200180611c2e6024913960400191505060405180910390fd5b505050505050565b604080516001600160a01b038481166024830152604480830185905283518084039091018152606490920183526020820180516001600160e01b031663095ea7b360e01b178152925182516000946060949389169392918291908083835b6020831061150e5780518252601f1990920191602091820191016114ef565b6001836020036101000a0380198251168184511680821785525050505050509050019150506000604051808303816000865af19150503d8060008114611570576040519150601f19603f3d011682016040523d82523d6000602084013e611575565b606091505b50915091508180156115a35750805115806115a357508080602001905160208110156115a057600080fd5b50515b610bd8576040805162461bcd60e51b815260206004820152601e60248201527f5472616e7366657248656c7065723a20415050524f56455f4641494c45440000604482015290519081900360640190fd5b60008282111561164b576040805162461bcd60e51b815260206004820152601e60248201527f536166654d6174683a207375627472616374696f6e206f766572666c6f770000604482015290519081900360640190fd5b50900390565b604080516001600160a01b038481166024830152604480830185905283518084039091018152606490920183526020820180516001600160e01b031663a9059cbb60e01b178152925182516000946060949389169392918291908083835b602083106116ce5780518252601f1990920191602091820191016116af565b6001836020036101000a0380198251168184511680821785525050505050509050019150506000604051808303816000865af19150503d8060008114611730576040519150601f19603f3d011682016040523d82523d6000602084013e611735565b606091505b5091509150818015611763575080511580611763575080806020019051602081101561176057600080fd5b50515b610bd8576040805162461bcd60e51b815260206004820152601f60248201527f5472616e7366657248656c7065723a205452414e534645525f4641494c454400604482015290519081900360640190fd5b3390565b6001600160a01b0383166117fd5760405162461bcd60e51b8152600401808060200182810382526024815260200180611b2e6024913960400191505060405180910390fd5b6001600160a01b0382166118425760405162461bcd60e51b8152600401808060200182810382526022815260200180611c526022913960400191505060405180910390fd5b6001600160a01b03808416600081815260016020908152604080832094871680845294825291829020859055815185815291517f8c5be1e5ebec7d5bd14f71427d1e84f3dd0314c0f7b2291e5b200ac8c7c3b9259281900390910190a3505050565b6001600160a01b0383166118e95760405162461bcd60e51b8152600401808060200182810382526025815260200180611b096025913960400191505060405180910390fd5b6001600160a01b03821661192e5760405162461bcd60e51b8152600401808060200182810382526023815260200180611be66023913960400191505060405180910390fd5b611939838383611b03565b61197c81604051806060016040528060268152602001611bc0602691396001600160a01b038616600090815260208190526040902054919063ffffffff611a0b16565b6001600160a01b0380851660009081526020819052604080822093909355908416815220546119b1908263ffffffff611aa216565b6001600160a01b038084166000818152602081815260409182902094909455805185815290519193928716927fddf252ad1be2c89b69c2b068fc378daa952ba7f163c4a11628f55a4df523b3ef92918290030190a3505050565b60008184841115611a9a5760405162461bcd60e51b81526004018080602001828103825283818151815260200191508051906020019080838360005b83811015611a5f578181015183820152602001611a47565b50505050905090810190601f168015611a8c5780820380516001836020036101000a031916815260200191505b509250505060405180910390fd5b505050900390565b600082820183811015611afc576040805162461bcd60e51b815260206004820152601b60248201527f536166654d6174683a206164646974696f6e206f766572666c6f770000000000604482015290519081900360640190fd5b9392505050565b50505056fe42455032303a207472616e736665722066726f6d20746865207a65726f206164647265737342455032303a20617070726f76652066726f6d20746865207a65726f20616464726573734f776e61626c653a206e6577206f776e657220697320746865207a65726f206164647265737342455032303a207472616e7366657220616d6f756e74206578636565647320616c6c6f77616e63654f776e61626c653a2063616c6c6572206973206e6f7420746865206f776e657242455032303a207472616e7366657220616d6f756e7420657863656564732062616c616e636542455032303a207472616e7366657220746f20746865207a65726f206164647265737342455032303a2064656372656173656420616c6c6f77616e63652062656c6f77207a65726f5472616e7366657248656c7065723a205452414e534645525f46524f4d5f4641494c454442455032303a20617070726f766520746f20746865207a65726f2061646472657373a2646970667358221220092e05a4e92a20e3fd196c24d8462122da6a5237e0bd5e09d01d3bd6ad326b8164736f6c634300060600334f776e61626c653a206e6577206f776e657220697320746865207a65726f20616464726573738be0079c531659141344cd1fd0a4f28419497f9722a3daafe3b4186f6b6457e0",
  "immutableReferences": {},
  "source": "// SPDX-License-Identifier: MIT\n\npragma solidity ^0.6.0;\n\nimport \"../interfaces/IBEP20.sol\";\nimport \"../interfaces/IPaymentToken.sol\";\nimport \"../interfaces/IBStablePool.sol\";\nimport \"@openzeppelin/contracts/math/SafeMath.sol\";\nimport \"@openzeppelin/contracts/access/Ownable.sol\";\nimport \"../BEP20.sol\";\nimport \"../lib/TransferHelper.sol\";\n\ncontract BStablePayment is BEP20, Ownable {\n    using SafeMath for uint256;\n\n    IPaymentToken public paymentToken;\n\n    IBStablePool public pool;\n\n    struct CoinInfo {\n        uint256 index;\n        bool available;\n    }\n\n    mapping(address => CoinInfo) public coins;\n\n    event Pay(\n        address payToken,\n        address receiptToken,\n        address payer,\n        address recipt\n    );\n\n    constructor(\n        string memory _name,\n        string memory _symbol,\n        address _owner\n    ) public BEP20(_name, _symbol) {\n        transferOwnership(_owner);\n    }\n\n    function addCoins(address _coin, uint32 index) public onlyOwner {\n        require(!coins[_coin].available, \"Payment: coins dumplicated.\");\n        coins[_coin] = CoinInfo({index: index, available: true});\n    }\n\n    function removeCoins(address _coin) public onlyOwner {\n        require(coins[_coin].available == true, \"Payment: coin no exists.\");\n        coins[_coin].available = false;\n    }\n\n    function setPaymentToken(IPaymentToken _paymentToken) public onlyOwner {\n        paymentToken = _paymentToken;\n    }\n\n    function transferMinterTo(address _to) public onlyOwner {\n        paymentToken.transferMinterTo(_to);\n    }\n\n    function setPool(IBStablePool _pool) public onlyOwner {\n        pool = _pool;\n    }\n\n    function pay(\n        address receiptToken,\n        address receipt,\n        uint256 amt\n    ) external {\n        require(\n            amt <= IBEP20(receiptToken).balanceOf(msg.sender),\n            \"Payment: insufficient balance.\"\n        );\n        TransferHelper.safeTransferFrom(receiptToken, msg.sender, receipt, amt);\n        paymentToken.mintTo(msg.sender, 1_000_000_000_000_000_000);\n        emit Pay(receiptToken, receiptToken, msg.sender, receipt);\n    }\n\n    function payWithSwap(\n        address payToken,\n        address receiptToken,\n        uint256 payAmt,\n        uint256 receiptAmt,\n        address receipt\n    ) external {\n        require(payToken != receiptToken, \"Payment: the same token.\");\n        uint256 i = coins[payToken].index;\n        uint256 j = coins[receiptToken].index;\n        TransferHelper.safeTransferFrom(\n            payToken,\n            msg.sender,\n            address(this),\n            payAmt\n        );\n        TransferHelper.safeApprove(payToken, address(pool), payAmt);\n        uint256 _originalBalance =\n            IBEP20(receiptToken).balanceOf(address(this));\n        pool.exchange(i, j, payAmt, receiptAmt);\n        uint256 returnAmt =\n            IBEP20(receiptToken).balanceOf(address(this)).sub(_originalBalance);\n        require(returnAmt >= receiptAmt, \"Payment: swap amt insufficient.\");\n        TransferHelper.safeTransfer(receiptToken, receipt, receiptAmt);\n        TransferHelper.safeTransfer(\n            receiptToken,\n            msg.sender,\n            returnAmt.sub(receiptAmt)\n        );\n        paymentToken.mintTo(msg.sender, 1_000_000_000_000_000_000);\n        emit Pay(payToken, receiptToken, msg.sender, receipt);\n    }\n}\n",
  "sourcePath": "/Users/zhangleping/github.com/0xa8c81519/bsc-contracts/contracts/v2_payment/BStablePayment.sol",
  "compiler": {
    "name": "solc",
    "version": "0.6.6+commit.6c089d02.Emscripten.clang"
  },
  "schemaVersion": "3.3.4",
  "updatedAt": "2021-04-24T10:28:45.866Z",
  "networkType": "ethereum",
  "devdoc": {
    "methods": {
      "allowance(address,address)": {
        "details": "See {IBEP20-allowance}."
      },
      "approve(address,uint256)": {
        "details": "See {IBEP20-approve}.     * Requirements:     * - `spender` cannot be the zero address."
      },
      "balanceOf(address)": {
        "details": "See {IBEP20-balanceOf}."
      },
      "decimals()": {
        "details": "Returns the number of decimals used to get its user representation. For example, if `decimals` equals `2`, a balance of `505` tokens should be displayed to a user as `5,05` (`505 / 10 ** 2`).     * Tokens usually opt for a value of 18, imitating the relationship between Ether and Wei. This is the value {BEP20} uses, unless {_setupDecimals} is called.     * NOTE: This information is only used for _display_ purposes: it in no way affects any of the arithmetic of the contract, including {IBEP20-balanceOf} and {IBEP20-transfer}."
      },
      "decreaseAllowance(address,uint256)": {
        "details": "Atomically decreases the allowance granted to `spender` by the caller.     * This is an alternative to {approve} that can be used as a mitigation for problems described in {IBEP20-approve}.     * Emits an {Approval} event indicating the updated allowance.     * Requirements:     * - `spender` cannot be the zero address. - `spender` must have allowance for the caller of at least `subtractedValue`."
      },
      "increaseAllowance(address,uint256)": {
        "details": "Atomically increases the allowance granted to `spender` by the caller.     * This is an alternative to {approve} that can be used as a mitigation for problems described in {IBEP20-approve}.     * Emits an {Approval} event indicating the updated allowance.     * Requirements:     * - `spender` cannot be the zero address."
      },
      "name()": {
        "details": "Returns the name of the token."
      },
      "owner()": {
        "details": "Returns the address of the current owner."
      },
      "renounceOwnership()": {
        "details": "Leaves the contract without owner. It will not be possible to call `onlyOwner` functions anymore. Can only be called by the current owner.     * NOTE: Renouncing ownership will leave the contract without an owner, thereby removing any functionality that is only available to the owner."
      },
      "symbol()": {
        "details": "Returns the symbol of the token, usually a shorter version of the name."
      },
      "totalSupply()": {
        "details": "See {IBEP20-totalSupply}."
      },
      "transfer(address,uint256)": {
        "details": "See {IBEP20-transfer}.     * Requirements:     * - `recipient` cannot be the zero address. - the caller must have a balance of at least `amount`."
      },
      "transferFrom(address,address,uint256)": {
        "details": "See {IBEP20-transferFrom}.     * Emits an {Approval} event indicating the updated allowance. This is not required by the EIP. See the note at the beginning of {BEP20};     * Requirements: - `sender` and `recipient` cannot be the zero address. - `sender` must have a balance of at least `amount`. - the caller must have allowance for ``sender``'s tokens of at least `amount`."
      },
      "transferOwnership(address)": {
        "details": "Transfers ownership of the contract to a new account (`newOwner`). Can only be called by the current owner."
      }
    }
  },
  "userdoc": {
    "methods": {}
  }
}