{
  "contractName": "BStableProxy",
  "abi": [
    {
      "inputs": [
        {
          "internalType": "string",
          "name": "_name",
          "type": "string"
        },
        {
          "internalType": "string",
          "name": "_symbol",
          "type": "string"
        },
        {
          "internalType": "address",
          "name": "_tokenAddress",
          "type": "address"
        },
        {
          "internalType": "address",
          "name": "_amcAddress",
          "type": "address"
        },
        {
          "internalType": "address",
          "name": "ownerAddress",
          "type": "address"
        }
      ],
      "stateMutability": "nonpayable",
      "type": "constructor"
    },
    {
      "anonymous": false,
      "inputs": [
        {
          "indexed": true,
          "internalType": "address",
          "name": "owner",
          "type": "address"
        },
        {
          "indexed": true,
          "internalType": "address",
          "name": "spender",
          "type": "address"
        },
        {
          "indexed": false,
          "internalType": "uint256",
          "name": "value",
          "type": "uint256"
        }
      ],
      "name": "Approval",
      "type": "event"
    },
    {
      "anonymous": false,
      "inputs": [
        {
          "indexed": true,
          "internalType": "address",
          "name": "user",
          "type": "address"
        },
        {
          "indexed": true,
          "internalType": "uint256",
          "name": "pid",
          "type": "uint256"
        },
        {
          "indexed": false,
          "internalType": "uint256",
          "name": "amount",
          "type": "uint256"
        }
      ],
      "name": "Deposit",
      "type": "event"
    },
    {
      "anonymous": false,
      "inputs": [
        {
          "indexed": true,
          "internalType": "address",
          "name": "user",
          "type": "address"
        },
        {
          "indexed": true,
          "internalType": "uint256",
          "name": "pid",
          "type": "uint256"
        },
        {
          "indexed": false,
          "internalType": "uint256",
          "name": "amount",
          "type": "uint256"
        }
      ],
      "name": "EmergencyWithdraw",
      "type": "event"
    },
    {
      "anonymous": false,
      "inputs": [
        {
          "indexed": true,
          "internalType": "address",
          "name": "previousOwner",
          "type": "address"
        },
        {
          "indexed": true,
          "internalType": "address",
          "name": "newOwner",
          "type": "address"
        }
      ],
      "name": "OwnershipTransferred",
      "type": "event"
    },
    {
      "anonymous": false,
      "inputs": [
        {
          "indexed": true,
          "internalType": "address",
          "name": "from",
          "type": "address"
        },
        {
          "indexed": true,
          "internalType": "address",
          "name": "to",
          "type": "address"
        },
        {
          "indexed": false,
          "internalType": "uint256",
          "name": "value",
          "type": "uint256"
        }
      ],
      "name": "Transfer",
      "type": "event"
    },
    {
      "anonymous": false,
      "inputs": [
        {
          "indexed": true,
          "internalType": "address",
          "name": "user",
          "type": "address"
        },
        {
          "indexed": true,
          "internalType": "uint256",
          "name": "pid",
          "type": "uint256"
        },
        {
          "indexed": false,
          "internalType": "uint256",
          "name": "amount",
          "type": "uint256"
        }
      ],
      "name": "Withdraw",
      "type": "event"
    },
    {
      "inputs": [
        {
          "internalType": "address",
          "name": "owner",
          "type": "address"
        },
        {
          "internalType": "address",
          "name": "spender",
          "type": "address"
        }
      ],
      "name": "allowance",
      "outputs": [
        {
          "internalType": "uint256",
          "name": "",
          "type": "uint256"
        }
      ],
      "stateMutability": "view",
      "type": "function"
    },
    {
      "inputs": [
        {
          "internalType": "address",
          "name": "spender",
          "type": "address"
        },
        {
          "internalType": "uint256",
          "name": "amount",
          "type": "uint256"
        }
      ],
      "name": "approve",
      "outputs": [
        {
          "internalType": "bool",
          "name": "",
          "type": "bool"
        }
      ],
      "stateMutability": "nonpayable",
      "type": "function"
    },
    {
      "inputs": [
        {
          "internalType": "address",
          "name": "account",
          "type": "address"
        }
      ],
      "name": "balanceOf",
      "outputs": [
        {
          "internalType": "uint256",
          "name": "",
          "type": "uint256"
        }
      ],
      "stateMutability": "view",
      "type": "function"
    },
    {
      "inputs": [],
      "name": "decimals",
      "outputs": [
        {
          "internalType": "uint8",
          "name": "",
          "type": "uint8"
        }
      ],
      "stateMutability": "view",
      "type": "function"
    },
    {
      "inputs": [
        {
          "internalType": "address",
          "name": "spender",
          "type": "address"
        },
        {
          "internalType": "uint256",
          "name": "subtractedValue",
          "type": "uint256"
        }
      ],
      "name": "decreaseAllowance",
      "outputs": [
        {
          "internalType": "bool",
          "name": "",
          "type": "bool"
        }
      ],
      "stateMutability": "nonpayable",
      "type": "function"
    },
    {
      "inputs": [
        {
          "internalType": "address",
          "name": "spender",
          "type": "address"
        },
        {
          "internalType": "uint256",
          "name": "addedValue",
          "type": "uint256"
        }
      ],
      "name": "increaseAllowance",
      "outputs": [
        {
          "internalType": "bool",
          "name": "",
          "type": "bool"
        }
      ],
      "stateMutability": "nonpayable",
      "type": "function"
    },
    {
      "inputs": [],
      "name": "name",
      "outputs": [
        {
          "internalType": "string",
          "name": "",
          "type": "string"
        }
      ],
      "stateMutability": "view",
      "type": "function"
    },
    {
      "inputs": [],
      "name": "owner",
      "outputs": [
        {
          "internalType": "address",
          "name": "",
          "type": "address"
        }
      ],
      "stateMutability": "view",
      "type": "function"
    },
    {
      "inputs": [],
      "name": "renounceOwnership",
      "outputs": [],
      "stateMutability": "nonpayable",
      "type": "function"
    },
    {
      "inputs": [],
      "name": "symbol",
      "outputs": [
        {
          "internalType": "string",
          "name": "",
          "type": "string"
        }
      ],
      "stateMutability": "view",
      "type": "function"
    },
    {
      "inputs": [],
      "name": "totalSupply",
      "outputs": [
        {
          "internalType": "uint256",
          "name": "",
          "type": "uint256"
        }
      ],
      "stateMutability": "view",
      "type": "function"
    },
    {
      "inputs": [
        {
          "internalType": "address",
          "name": "recipient",
          "type": "address"
        },
        {
          "internalType": "uint256",
          "name": "amount",
          "type": "uint256"
        }
      ],
      "name": "transfer",
      "outputs": [
        {
          "internalType": "bool",
          "name": "",
          "type": "bool"
        }
      ],
      "stateMutability": "nonpayable",
      "type": "function"
    },
    {
      "inputs": [
        {
          "internalType": "address",
          "name": "sender",
          "type": "address"
        },
        {
          "internalType": "address",
          "name": "recipient",
          "type": "address"
        },
        {
          "internalType": "uint256",
          "name": "amount",
          "type": "uint256"
        }
      ],
      "name": "transferFrom",
      "outputs": [
        {
          "internalType": "bool",
          "name": "",
          "type": "bool"
        }
      ],
      "stateMutability": "nonpayable",
      "type": "function"
    },
    {
      "inputs": [
        {
          "internalType": "address",
          "name": "newOwner",
          "type": "address"
        }
      ],
      "name": "transferOwnership",
      "outputs": [],
      "stateMutability": "nonpayable",
      "type": "function"
    },
    {
      "inputs": [],
      "name": "getDevAddress",
      "outputs": [
        {
          "internalType": "address",
          "name": "",
          "type": "address"
        }
      ],
      "stateMutability": "view",
      "type": "function"
    },
    {
      "inputs": [],
      "name": "getAmcAddress",
      "outputs": [
        {
          "internalType": "address",
          "name": "",
          "type": "address"
        }
      ],
      "stateMutability": "view",
      "type": "function"
    },
    {
      "inputs": [],
      "name": "getWallets",
      "outputs": [
        {
          "internalType": "contract BStableTokenWallet",
          "name": "wsAddress",
          "type": "address"
        },
        {
          "internalType": "contract BStableTokenWallet",
          "name": "weAddress",
          "type": "address"
        },
        {
          "internalType": "contract BStableTokenWallet",
          "name": "wstakingAddress",
          "type": "address"
        }
      ],
      "stateMutability": "view",
      "type": "function"
    },
    {
      "inputs": [
        {
          "internalType": "uint256",
          "name": "_pid",
          "type": "uint256"
        }
      ],
      "name": "getPoolInfo",
      "outputs": [
        {
          "internalType": "address",
          "name": "_poolAddress",
          "type": "address"
        },
        {
          "internalType": "address[]",
          "name": "_coins",
          "type": "address[]"
        },
        {
          "internalType": "uint256",
          "name": "_allocPoint",
          "type": "uint256"
        },
        {
          "internalType": "uint256",
          "name": "_accTokenPerShare",
          "type": "uint256"
        },
        {
          "internalType": "uint256",
          "name": "_shareRewardRate",
          "type": "uint256"
        },
        {
          "internalType": "uint256",
          "name": "_swapRewardRate",
          "type": "uint256"
        },
        {
          "internalType": "uint256",
          "name": "_totalVolAccPoints",
          "type": "uint256"
        },
        {
          "internalType": "uint256",
          "name": "_totalVolReward",
          "type": "uint256"
        },
        {
          "internalType": "uint256",
          "name": "_lastUpdateTime",
          "type": "uint256"
        },
        {
          "internalType": "uint256[]",
          "name": "arrData",
          "type": "uint256[]"
        }
      ],
      "stateMutability": "view",
      "type": "function"
    },
    {
      "inputs": [],
      "name": "getTokenAddress",
      "outputs": [
        {
          "internalType": "address",
          "name": "taddress",
          "type": "address"
        }
      ],
      "stateMutability": "view",
      "type": "function"
    },
    {
      "inputs": [
        {
          "internalType": "uint256",
          "name": "_pid",
          "type": "uint256"
        },
        {
          "internalType": "address",
          "name": "user",
          "type": "address"
        }
      ],
      "name": "getUserInfo",
      "outputs": [
        {
          "internalType": "uint256",
          "name": "_amount",
          "type": "uint256"
        },
        {
          "internalType": "uint256",
          "name": "_volume",
          "type": "uint256"
        },
        {
          "internalType": "uint256",
          "name": "_rewardDebt",
          "type": "uint256"
        },
        {
          "internalType": "uint256",
          "name": "_volReward",
          "type": "uint256"
        },
        {
          "internalType": "uint256",
          "name": "_farmingReward",
          "type": "uint256"
        }
      ],
      "stateMutability": "view",
      "type": "function"
    },
    {
      "inputs": [
        {
          "internalType": "uint256",
          "name": "_pid",
          "type": "uint256"
        }
      ],
      "name": "getPoolUsers",
      "outputs": [
        {
          "internalType": "address[]",
          "name": "_users",
          "type": "address[]"
        }
      ],
      "stateMutability": "view",
      "type": "function"
    },
    {
      "inputs": [],
      "name": "getPoolsLength",
      "outputs": [
        {
          "internalType": "uint256",
          "name": "l",
          "type": "uint256"
        }
      ],
      "stateMutability": "view",
      "type": "function"
    },
    {
      "inputs": [],
      "name": "getTotalAllocPoint",
      "outputs": [
        {
          "internalType": "uint256",
          "name": "r",
          "type": "uint256"
        }
      ],
      "stateMutability": "view",
      "type": "function"
    },
    {
      "inputs": [],
      "name": "isMigrationOpen",
      "outputs": [
        {
          "internalType": "bool",
          "name": "r",
          "type": "bool"
        }
      ],
      "stateMutability": "view",
      "type": "function"
    },
    {
      "inputs": [],
      "name": "getMigrateFrom",
      "outputs": [
        {
          "internalType": "address",
          "name": "_a",
          "type": "address"
        }
      ],
      "stateMutability": "view",
      "type": "function"
    },
    {
      "inputs": [
        {
          "internalType": "uint256",
          "name": "_pid",
          "type": "uint256"
        },
        {
          "internalType": "uint256",
          "name": "i",
          "type": "uint256"
        },
        {
          "internalType": "uint256",
          "name": "j",
          "type": "uint256"
        },
        {
          "internalType": "uint256",
          "name": "dx",
          "type": "uint256"
        },
        {
          "internalType": "uint256",
          "name": "min_dy",
          "type": "uint256"
        }
      ],
      "name": "exchange",
      "outputs": [],
      "stateMutability": "nonpayable",
      "type": "function"
    },
    {
      "inputs": [
        {
          "internalType": "uint256",
          "name": "_pid",
          "type": "uint256"
        }
      ],
      "name": "getPoolAddress",
      "outputs": [
        {
          "internalType": "address",
          "name": "_poolAddress",
          "type": "address"
        }
      ],
      "stateMutability": "view",
      "type": "function"
    },
    {
      "inputs": [
        {
          "internalType": "uint256",
          "name": "_pid",
          "type": "uint256"
        },
        {
          "internalType": "address",
          "name": "_user",
          "type": "address"
        }
      ],
      "name": "pendingReward",
      "outputs": [
        {
          "internalType": "uint256",
          "name": "",
          "type": "uint256"
        }
      ],
      "stateMutability": "view",
      "type": "function"
    },
    {
      "inputs": [],
      "name": "massUpdatePools",
      "outputs": [],
      "stateMutability": "nonpayable",
      "type": "function"
    },
    {
      "inputs": [
        {
          "internalType": "uint256",
          "name": "_pid",
          "type": "uint256"
        }
      ],
      "name": "updatePool",
      "outputs": [],
      "stateMutability": "nonpayable",
      "type": "function"
    },
    {
      "inputs": [
        {
          "internalType": "uint256",
          "name": "_pid",
          "type": "uint256"
        },
        {
          "internalType": "uint256",
          "name": "_amount",
          "type": "uint256"
        }
      ],
      "name": "deposit",
      "outputs": [],
      "stateMutability": "nonpayable",
      "type": "function"
    },
    {
      "inputs": [
        {
          "internalType": "uint256",
          "name": "_pid",
          "type": "uint256"
        },
        {
          "internalType": "uint256",
          "name": "_amount",
          "type": "uint256"
        }
      ],
      "name": "withdraw",
      "outputs": [],
      "stateMutability": "nonpayable",
      "type": "function"
    },
    {
      "inputs": [
        {
          "internalType": "uint256",
          "name": "_pid",
          "type": "uint256"
        }
      ],
      "name": "emergencyWithdraw",
      "outputs": [],
      "stateMutability": "nonpayable",
      "type": "function"
    },
    {
      "inputs": [],
      "name": "openMigration",
      "outputs": [],
      "stateMutability": "nonpayable",
      "type": "function"
    },
    {
      "inputs": [],
      "name": "closeMigration",
      "outputs": [],
      "stateMutability": "nonpayable",
      "type": "function"
    },
    {
      "inputs": [
        {
          "internalType": "address",
          "name": "_poolAddress",
          "type": "address"
        },
        {
          "internalType": "address[]",
          "name": "_coins",
          "type": "address[]"
        },
        {
          "internalType": "uint256",
          "name": "_allocPoint",
          "type": "uint256"
        }
      ],
      "name": "addPool",
      "outputs": [],
      "stateMutability": "nonpayable",
      "type": "function"
    },
    {
      "inputs": [
        {
          "internalType": "uint256",
          "name": "_pid",
          "type": "uint256"
        },
        {
          "internalType": "uint256",
          "name": "shareRate",
          "type": "uint256"
        },
        {
          "internalType": "uint256",
          "name": "swapRate",
          "type": "uint256"
        }
      ],
      "name": "setPoolRewardRate",
      "outputs": [],
      "stateMutability": "nonpayable",
      "type": "function"
    },
    {
      "inputs": [
        {
          "internalType": "uint256",
          "name": "_pid",
          "type": "uint256"
        },
        {
          "internalType": "address[]",
          "name": "_coins",
          "type": "address[]"
        }
      ],
      "name": "setPoolCoins",
      "outputs": [],
      "stateMutability": "nonpayable",
      "type": "function"
    },
    {
      "inputs": [
        {
          "internalType": "uint256",
          "name": "_pid",
          "type": "uint256"
        },
        {
          "internalType": "uint256",
          "name": "_allocPoint",
          "type": "uint256"
        }
      ],
      "name": "setPoolAllocPoint",
      "outputs": [],
      "stateMutability": "nonpayable",
      "type": "function"
    },
    {
      "inputs": [
        {
          "internalType": "address",
          "name": "to",
          "type": "address"
        }
      ],
      "name": "transferMinterTo",
      "outputs": [],
      "stateMutability": "nonpayable",
      "type": "function"
    },
    {
      "inputs": [
        {
          "internalType": "address",
          "name": "nMinter",
          "type": "address"
        }
      ],
      "name": "approveTokenTo",
      "outputs": [],
      "stateMutability": "nonpayable",
      "type": "function"
    },
    {
      "inputs": [
        {
          "internalType": "address",
          "name": "_from",
          "type": "address"
        }
      ],
      "name": "migrate",
      "outputs": [],
      "stateMutability": "nonpayable",
      "type": "function"
    },
    {
      "inputs": [
        {
          "internalType": "address",
          "name": "nDevAddress",
          "type": "address"
        }
      ],
      "name": "setDevAddress",
      "outputs": [],
      "stateMutability": "nonpayable",
      "type": "function"
    },
    {
      "inputs": [
        {
          "internalType": "address",
          "name": "nAmcAddress",
          "type": "address"
        }
      ],
      "name": "setAmcAddress",
      "outputs": [],
      "stateMutability": "nonpayable",
      "type": "function"
    },
    {
      "inputs": [
        {
          "internalType": "uint256",
          "name": "_devPoints",
          "type": "uint256"
        },
        {
          "internalType": "uint256",
          "name": "_amcPoints",
          "type": "uint256"
        },
        {
          "internalType": "uint256",
          "name": "_communityPoints",
          "type": "uint256"
        },
        {
          "internalType": "uint256",
          "name": "_totalPoints",
          "type": "uint256"
        }
      ],
      "name": "setAllocPoints",
      "outputs": [],
      "stateMutability": "nonpayable",
      "type": "function"
    }
  ],
  "bytecode": "0x60806040526000600955600c805460ff19169055600a601255600f601355604860145560616015553480156200003457600080fd5b506040516200684138038062006841833981810160405260a08110156200005a57600080fd5b81019080805160405193929190846401000000008211156200007b57600080fd5b9083019060208201858111156200009157600080fd5b8251640100000000811182820188101715620000ac57600080fd5b82525081516020918201929091019080838360005b83811015620000db578181015183820152602001620000c1565b50505050905090810190601f168015620001095780820380516001836020036101000a031916815260200191505b50604052602001805160405193929190846401000000008211156200012d57600080fd5b9083019060208201858111156200014357600080fd5b82516401000000008111828201881017156200015e57600080fd5b82525081516020918201929091019080838360005b838110156200018d57818101518382015260200162000173565b50505050905090810190601f168015620001bb5780820380516001836020036101000a031916815260200191505b50604090815260208281015191830151606090930151875192955092935086918691620001ee916003918501906200069d565b508051620002049060049060208401906200069d565b50506005805460ff19166012179055506000620002296001600160e01b03620002d716565b60058054610100600160a81b0319166101006001600160a01b0384169081029190911790915560405191925090600090600080516020620067fa833981519152908290a3506001600655600a80546001600160a01b0319166001600160a01b03851617905562000298620002dc565b60108054336001600160a01b031991821617909155601180549091166001600160a01b038416179055620002cc8162000561565b50505050506200074d565b335b90565b600d546001600160a01b0316158015620002ff5750600e546001600160a01b0316155b8015620003155750600f546001600160a01b0316155b6200035a576040805162461bcd60e51b815260206004820152601060248201526f77616c6c6574206e6f7420656d70747960801b604482015290519081900360640190fd5b30306040516200036a9062000722565b6001600160a01b038084166040830152821660608201526080808252602a9082018190528190602082019060a0830190620067d082396040018381038252600481526020018063109515d360e21b815250602001945050505050604051809103906000f080158015620003e1573d6000803e3d6000fd5b50600d60006101000a8154816001600160a01b0302191690836001600160a01b031602179055503030604051620004189062000722565b6001600160a01b03808416604083015282166060820152608080825260279082018190528190602082019060a08301906200681a823960400183810382526004815260200180634254575360e01b815250602001945050505050604051809103906000f0801580156200048f573d6000803e3d6000fd5b50600e60006101000a8154816001600160a01b0302191690836001600160a01b031602179055503030604051620004c69062000722565b6001600160a01b03808416604083015282166060820152608080825260239082018190528190602082019060a0830190620067ad8239604001838103825260058152602001806404254574c560dc1b815250602001945050505050604051809103906000f0801580156200053e573d6000803e3d6000fd5b50600f80546001600160a01b0319166001600160a01b0392909216919091179055565b620005746001600160e01b03620002d716565b6001600160a01b0316620005906001600160e01b036200068916565b6001600160a01b031614620005ec576040805162461bcd60e51b815260206004820181905260248201527f4f776e61626c653a2063616c6c6572206973206e6f7420746865206f776e6572604482015290519081900360640190fd5b6001600160a01b038116620006335760405162461bcd60e51b8152600401808060200182810382526026815260200180620067876026913960400191505060405180910390fd5b6005546040516001600160a01b038084169261010090041690600080516020620067fa83398151915290600090a3600580546001600160a01b0390921661010002610100600160a81b0319909216919091179055565b60055461010090046001600160a01b031690565b828054600181600116156101000203166002900490600052602060002090601f016020900481019282601f10620006e057805160ff191683800117855562000710565b8280016001018555821562000710579182015b8281111562000710578251825591602001919060010190620006f3565b506200071e92915062000730565b5090565b611455806200533283390190565b620002d991905b808211156200071e576000815560010162000737565b614bd5806200075d6000396000f3fe608060405234801561001057600080fd5b506004361061027e5760003560e01c80638da5cb5b1161015c578063ce5494bb116100ce578063dd62ed3e11610087578063dd62ed3e14610997578063df689200146109c5578063e2bbb158146109cd578063e34d99bf146109f0578063e8fe8ab1146109f8578063f2fde38b14610a2d5761027e565b8063ce5494bb146108c4578063ce883cdb146108ea578063d0d41fe1146108f2578063d8291e7514610918578063db7a460514610941578063dc628aa4146109745761027e565b80639b3007da116101205780639b3007da146107c1578063a457c2d7146107c9578063a9059cbb146107f5578063b03d67fe14610821578063b367959014610829578063c93eca341461084f5761027e565b80638da5cb5b146106ff5780638dec81fa146107075780638f9f31fe1461078557806395d89b411461078d57806398969e82146107955761027e565b8063441a3e70116101f5578063630b5ba1116101b9578063630b5ba11461066c5780636b7e0e471461067457806370a082311461069a578063715018a6146106c05780637efd75c7146106c8578063860fbd8e146106f75761027e565b8063441a3e701461057a57806351eb05a61461059f5780635237f731146105bc5780635312ea8e1461062957806360cb3814146106465761027e565b806318160ddd1161024757806318160ddd146103d857806323b872dd146103f25780632f380b3514610428578063313ce5671461052857806339509351146105465780633a58b91a146105725761027e565b8062a5ae211461028357806306fdde03146102bc578063095ea7b3146103395780631069f3b51461037957806310fe9ae8146103d0575b600080fd5b6102a06004803603602081101561029957600080fd5b5035610a53565b604080516001600160a01b039092168252519081900360200190f35b6102c4610ad2565b6040805160208082528351818301528351919283929083019185019080838360005b838110156102fe5781810151838201526020016102e6565b50505050905090810190601f16801561032b5780820380516001836020036101000a031916815260200191505b509250505060405180910390f35b6103656004803603604081101561034f57600080fd5b506001600160a01b038135169060200135610b69565b604080519115158252519081900360200190f35b6103a56004803603604081101561038f57600080fd5b50803590602001356001600160a01b0316610b87565b6040805195865260208601949094528484019290925260608401526080830152519081900360a00190f35b6102a0610bcc565b6103e0610bdb565b60408051918252519081900360200190f35b6103656004803603606081101561040857600080fd5b506001600160a01b03813581169160208101359091169060400135610be1565b6104456004803603602081101561043e57600080fd5b5035610c6e565b604051808b6001600160a01b03166001600160a01b03168152602001806020018a81526020018981526020018881526020018781526020018681526020018581526020018481526020018060200183810383528c818151815260200191508051906020019060200280838360005b838110156104cb5781810151838201526020016104b3565b50505050905001838103825284818151815260200191508051906020019060200280838360005b8381101561050a5781810151838201526020016104f2565b505050509050019c5050505050505050505050505060405180910390f35b610530610fca565b6040805160ff9092168252519081900360200190f35b6103656004803603604081101561055c57600080fd5b506001600160a01b038135169060200135610fd3565b6103e0611027565b61059d6004803603604081101561059057600080fd5b508035906020013561102d565b005b61059d600480360360208110156105b557600080fd5b50356114a8565b6105d9600480360360208110156105d257600080fd5b5035611a65565b60408051602080825283518183015283519192839290830191858101910280838360005b838110156106155781810151838201526020016105fd565b505050509050019250505060405180910390f35b61059d6004803603602081101561063f57600080fd5b5035611ad1565b61059d6004803603602081101561065c57600080fd5b50356001600160a01b0316611bdd565b61059d611cff565b61059d6004803603602081101561068a57600080fd5b50356001600160a01b0316611d71565b6103e0600480360360208110156106b057600080fd5b50356001600160a01b0316611df5565b61059d611e10565b61059d600480360360808110156106de57600080fd5b5080359060208101359060408101359060600135611ec2565b6102a0611f38565b6102a0611f47565b61059d6004803603606081101561071d57600080fd5b6001600160a01b038235169190810190604081016020820135600160201b81111561074757600080fd5b82018360208201111561075957600080fd5b803590602001918460208302840111600160201b8311171561077a57600080fd5b919350915035611f5b565b610365612105565b6102c461210e565b6103e0600480360360408110156107ab57600080fd5b50803590602001356001600160a01b031661216f565b61059d612383565b610365600480360360408110156107df57600080fd5b506001600160a01b0381351690602001356123f4565b6103656004803603604081101561080b57600080fd5b506001600160a01b038135169060200135612462565b61059d612476565b61059d6004803603602081101561083f57600080fd5b50356001600160a01b03166124e4565b61059d6004803603604081101561086557600080fd5b81359190810190604081016020820135600160201b81111561088657600080fd5b82018360208201111561089857600080fd5b803590602001918460208302840111600160201b831117156108b957600080fd5b509092509050612696565b61059d600480360360208110156108da57600080fd5b50356001600160a01b031661272b565b6103e06128e6565b61059d6004803603602081101561090857600080fd5b50356001600160a01b03166128ec565b61059d6004803603606081101561092e57600080fd5b5080359060208101359060400135612970565b610949612a89565b604080516001600160a01b039485168152928416602084015292168183015290519081900360600190f35b61059d6004803603604081101561098a57600080fd5b5080359060200135612aa2565b6103e0600480360360408110156109ad57600080fd5b506001600160a01b0381358116916020013516612b74565b6102a0612b9f565b61059d600480360360408110156109e357600080fd5b5080359060200135612bb3565b6102a06130d8565b61059d600480360360a0811015610a0e57600080fd5b50803590602081013590604081013590606081013590608001356130e7565b61059d60048036036020811015610a4357600080fd5b50356001600160a01b0316613b69565b600c5460009060ff1615610aa5576040805162461bcd60e51b8152602060048201526014602482015273309036b4b3b930ba34b7b71034b99037b832b71760611b604482015290519081900360640190fd5b60078281548110610ab257fe5b60009182526020909120600990910201546001600160a01b031692915050565b60038054604080516020601f6002600019610100600188161502019095169490940493840181900481028201810190925282815260609390929091830182828015610b5e5780601f10610b3357610100808354040283529160200191610b5e565b820191906000526020600020905b815481529060010190602001808311610b4157829003601f168201915b505050505090505b90565b6000610b7d610b76613c77565b8484613c7b565b5060015b92915050565b6000918252600b602090815260408084206001600160a01b03939093168452919052902080546001820154600283015460038401546004909401549294919390929091565b600a546001600160a01b031690565b60025490565b6000610bee848484613d67565b610c6484610bfa613c77565b610c5f85604051806060016040528060288152602001614a5b602891396001600160a01b038a16600090815260016020526040812090610c38613c77565b6001600160a01b03168152602081019190915260400160002054919063ffffffff613ece16565b613c7b565b5060019392505050565b6000606081808080808080876007604051908082528060200260200182016040528015610ca5578160200160208202803683370190505b50905060078b81548110610cb557fe5b6000918252602090912060099091020154600780546001600160a01b039092169b50908c908110610ce257fe5b9060005260206000209060090201600101805480602002602001604051908101604052809291908181526020018280548015610d4757602002820191906000526020600020905b81546001600160a01b03168152600190910190602001808311610d29575b5050505050985060078b81548110610d5b57fe5b906000526020600020906009020160020154975060078b81548110610d7c57fe5b90600052602060002090600902016002015481600081518110610d9b57fe5b60200260200101818152505060078b81548110610db457fe5b906000526020600020906009020160030154965060078b81548110610dd557fe5b90600052602060002090600902016003015481600181518110610df457fe5b60200260200101818152505060078b81548110610e0d57fe5b906000526020600020906009020160040154955060078b81548110610e2e57fe5b90600052602060002090600902016004015481600281518110610e4d57fe5b60200260200101818152505060078b81548110610e6657fe5b906000526020600020906009020160050154945060078b81548110610e8757fe5b90600052602060002090600902016005015481600381518110610ea657fe5b60200260200101818152505060078b81548110610ebf57fe5b906000526020600020906009020160060154935060078b81548110610ee057fe5b90600052602060002090600902016006015481600481518110610eff57fe5b60200260200101818152505060078b81548110610f1857fe5b906000526020600020906009020160070154925060078b81548110610f3957fe5b90600052602060002090600902016007015481600581518110610f5857fe5b60200260200101818152505060078b81548110610f7157fe5b906000526020600020906009020160080154915060078b81548110610f9257fe5b90600052602060002090600902016008015481600681518110610fb157fe5b6020026020010181815250509193959799509193959799565b60055460ff1690565b6000610b7d610fe0613c77565b84610c5f8560016000610ff1613c77565b6001600160a01b03908116825260208083019390935260409182016000908120918c16815292529020549063ffffffff613f6516565b60095490565b600c5460ff161561107c576040805162461bcd60e51b8152602060048201526014602482015273309036b4b3b930ba34b7b71034b99037b832b71760611b604482015290519081900360640190fd5b6000828152600b60209081526040808320338452909152902080548211156110e0576040805162461bcd60e51b81526020600482015260126024820152711dda5d1a191c985dce881b9bdd0819dbdbd960721b604482015290519081900360640190fd5b6110e9836114a8565b6000600784815481106110f857fe5b9060005260206000209060090201905060006111518360020154611145670de0b6b3a764000061113986600301548860000154613fc690919063ffffffff16565b9063ffffffff61401f16565b9063ffffffff61408616565b9050801561139b57600a54600d54604080516370a0823160e01b81526001600160a01b039283166004820152905160009392909216916370a0823191602480820192602092909190829003018186803b1580156111ad57600080fd5b505afa1580156111c1573d6000803e3d6000fd5b505050506040513d60208110156111d757600080fd5b505190508181106112c0576000868152600b6020908152604080832033845290915290206004015461120f908363ffffffff613f6516565b6000878152600b60209081526040808320338452909152808220600490810193909355600d54600a5482516316d0077960e31b81526001600160a01b039182169581019590955260248501879052915191169263b6803bc892604480830193919282900301818387803b15801561128557600080fd5b505af1158015611299573d6000803e3d6000fd5b5050600a54600d546112bb93506001600160a01b0391821692501633856140e3565b611399565b6000868152600b602090815260408083203384529091529020600401546112ed908263ffffffff613f6516565b6000878152600b60209081526040808320338452909152808220600490810193909355600d54600a5482516316d0077960e31b81526001600160a01b039182169581019590955260248501869052915191169263b6803bc892604480830193919282900301818387803b15801561136357600080fd5b505af1158015611377573d6000803e3d6000fd5b5050600a54600d5461139993506001600160a01b0391821692501633846140e3565b505b83156114415782546113b3908563ffffffff61408616565b8355600f548254604080516316d0077960e31b81526001600160a01b039283166004820152602481018890529051919092169163b6803bc891604480830192600092919082900301818387803b15801561140c57600080fd5b505af1158015611420573d6000803e3d6000fd5b50508354600f5461144193506001600160a01b0391821692501633876140e3565b6003820154835461146591670de0b6b3a7640000916111399163ffffffff613fc616565b6002840155604080518581529051869133917ff279e6a1f5e320cca91135676d9cb6e44ca8a08c0b88342bcdb1144f6511b5689181900360200190a35050505050565b600c5460ff16156114f7576040805162461bcd60e51b8152602060048201526014602482015273309036b4b3b930ba34b7b71034b99037b832b71760611b604482015290519081900360640190fd5b60006007828154811061150657fe5b90600052602060002090600902019050806008015442116115275750611a62565b8054600f54604080516370a0823160e01b81526001600160a01b039283166004820152905160009392909216916370a0823191602480820192602092909190829003018186803b15801561157a57600080fd5b505afa15801561158e573d6000803e3d6000fd5b505050506040513d60208110156115a457600080fd5b50519050806115ba575042600890910155611a62565b60006116b6600a60009054906101000a90046001600160a01b03166001600160a01b03166318160ddd6040518163ffffffff1660e01b815260040160206040518083038186803b15801561160d57600080fd5b505afa158015611621573d6000803e3d6000fd5b505050506040513d602081101561163757600080fd5b5051600a5460408051633f6615ab60e11b815290516001600160a01b0390921691637ecc2b5691600480820192602092909190829003018186803b15801561167e57600080fd5b505afa158015611692573d6000803e3d6000fd5b505050506040513d60208110156116a857600080fd5b50519063ffffffff61408616565b905060006116d7600954611139866002015485613fc690919063ffffffff16565b905060006116f660155461113960145485613fc690919063ffffffff16565b9050600061171560155461113960125486613fc690919063ffffffff16565b9050600061173460155461113960135487613fc690919063ffffffff16565b9050600061175b670de0b6b3a76400006111398a6004015487613fc690919063ffffffff16565b90506000611782670de0b6b3a76400006111398b6005015488613fc690919063ffffffff16565b600a546010549192506001600160a01b03908116916340c10f1991166117af87600163ffffffff61408616565b6040518363ffffffff1660e01b815260040180836001600160a01b03166001600160a01b0316815260200182815260200192505050602060405180830381600087803b1580156117fe57600080fd5b505af1158015611812573d6000803e3d6000fd5b505050506040513d602081101561182857600080fd5b5050600a546011546001600160a01b03918216916340c10f19911661185486600163ffffffff61408616565b6040518363ffffffff1660e01b815260040180836001600160a01b03166001600160a01b0316815260200182815260200192505050602060405180830381600087803b1580156118a357600080fd5b505af11580156118b7573d6000803e3d6000fd5b505050506040513d60208110156118cd57600080fd5b5050600a54600d546001600160a01b03918216916340c10f1991166118f985600163ffffffff61408616565b6040518363ffffffff1660e01b815260040180836001600160a01b03166001600160a01b0316815260200182815260200192505050602060405180830381600087803b15801561194857600080fd5b505af115801561195c573d6000803e3d6000fd5b505050506040513d602081101561197257600080fd5b5050600a54600e546001600160a01b03918216916340c10f19911661199e84600163ffffffff61408616565b6040518363ffffffff1660e01b815260040180836001600160a01b03166001600160a01b0316815260200182815260200192505050602060405180830381600087803b1580156119ed57600080fd5b505af1158015611a01573d6000803e3d6000fd5b505050506040513d6020811015611a1757600080fd5b50611a4a9050611a398961113985670de0b6b3a764000063ffffffff613fc616565b60038b01549063ffffffff613f6516565b60038a01555050426008909701969096555050505050505b50565b600081815260086020908152604091829020805483518184028101840190945280845260609392830182828015611ac557602002820191906000526020600020905b81546001600160a01b03168152600190910190602001808311611aa7575b50505050509050919050565b600060078281548110611ae057fe5b60009182526020808320858452600b82526040808520338652909252818420805485825560028201869055600f546009909502909201805484516316d0077960e31b81526001600160a01b039182166004820152602481018590529451919750919592949091169263b6803bc892604480830193919282900301818387803b158015611b6b57600080fd5b505af1158015611b7f573d6000803e3d6000fd5b50508454600f54611ba093506001600160a01b0391821692501633846140e3565b604080518281529051859133917fbb757047c2b5f3974fe26b7c10f732e7bce710b0952a71082702781e62ae05959181900360200190a350505050565b611be5613c77565b6001600160a01b0316611bf6611f47565b6001600160a01b031614611c3f576040805162461bcd60e51b81526020600482018190526024820152600080516020614aa4833981519152604482015290519081900360640190fd5b600c5460ff16611c96576040805162461bcd60e51b815260206004820152601f60248201527f6f6e20616c6c6f77207768656e206d6967726174696f6e206973206f70656e00604482015290519081900360640190fd5b600a5460408051631832ce0560e21b81526001600160a01b038481166004830152915191909216916360cb381491602480830192600092919082900301818387803b158015611ce457600080fd5b505af1158015611cf8573d6000803e3d6000fd5b5050505050565b600c5460ff1615611d4e576040805162461bcd60e51b8152602060048201526014602482015273309036b4b3b930ba34b7b71034b99037b832b71760611b604482015290519081900360640190fd5b60075460005b81811015611d6d57611d65816114a8565b600101611d54565b5050565b611d79613c77565b6001600160a01b0316611d8a611f47565b6001600160a01b031614611dd3576040805162461bcd60e51b81526020600482018190526024820152600080516020614aa4833981519152604482015290519081900360640190fd5b601180546001600160a01b0319166001600160a01b0392909216919091179055565b6001600160a01b031660009081526020819052604090205490565b611e18613c77565b6001600160a01b0316611e29611f47565b6001600160a01b031614611e72576040805162461bcd60e51b81526020600482018190526024820152600080516020614aa4833981519152604482015290519081900360640190fd5b60055460405160009161010090046001600160a01b0316907f8be0079c531659141344cd1fd0a4f28419497f9722a3daafe3b4186f6b6457e0908390a360058054610100600160a81b0319169055565b611eca613c77565b6001600160a01b0316611edb611f47565b6001600160a01b031614611f24576040805162461bcd60e51b81526020600482018190526024820152600080516020614aa4833981519152604482015290519081900360640190fd5b601293909355601391909155601455601555565b6011546001600160a01b031690565b60055461010090046001600160a01b031690565b611f63613c77565b6001600160a01b0316611f74611f47565b6001600160a01b031614611fbd576040805162461bcd60e51b81526020600482018190526024820152600080516020614aa4833981519152604482015290519081900360640190fd5b600954611fd0908263ffffffff613f6516565b6009819055506007604051806101200160405280866001600160a01b0316815260200185858080602002602001604051908101604052809392919081815260200183836020028082843760009201829052509385525050506020808301869052604083018290526706f05b59d3b2000060608401819052608084015260a0830182905260c083018290524260e09093019290925283546001808201865594825290829020835160099092020180546001600160a01b0319166001600160a01b03909216919091178155828201518051939491936120b59392850192919091019061490f565b5060408201518160020155606082015181600301556080820151816004015560a0820151816005015560c0820151816006015560e082015181600701556101008201518160080155505050505050565b600c5460ff1690565b60048054604080516020601f6002600019610100600188161502019095169490940493840181900481028201810190925282815260609390929091830182828015610b5e5780601f10610b3357610100808354040283529160200191610b5e565b600c5460009060ff16156121c1576040805162461bcd60e51b8152602060048201526014602482015273309036b4b3b930ba34b7b71034b99037b832b71760611b604482015290519081900360640190fd5b6000600784815481106121d057fe5b60009182526020808320878452600b825260408085206001600160a01b03898116875290845281862060099590950290920160038101548154600f5484516370a0823160e01b8152908616600482015293519298509596909590949316926370a082319260248082019391829003018186803b15801561224f57600080fd5b505afa158015612263573d6000803e3d6000fd5b505050506040513d602081101561227957600080fd5b50519050801561234a5760006122d6600a60009054906101000a90046001600160a01b03166001600160a01b03166318160ddd6040518163ffffffff1660e01b815260040160206040518083038186803b15801561160d57600080fd5b90506000612317600954611139886002015461230b670de0b6b3a76400006111398c6004015489613fc690919063ffffffff16565b9063ffffffff613fc616565b90506123456123388461113984670de0b6b3a764000063ffffffff613fc616565b859063ffffffff613f6516565b935050505b60006123778460020154611145670de0b6b3a7640000611139878960000154613fc690919063ffffffff16565b98975050505050505050565b61238b613c77565b6001600160a01b031661239c611f47565b6001600160a01b0316146123e5576040805162461bcd60e51b81526020600482018190526024820152600080516020614aa4833981519152604482015290519081900360640190fd5b600c805460ff19166001179055565b6000610b7d612401613c77565b84610c5f85604051806060016040528060258152602001614b0d602591396001600061242b613c77565b6001600160a01b03908116825260208083019390935260409182016000908120918d1681529252902054919063ffffffff613ece16565b6000610b7d61246f613c77565b8484613d67565b61247e613c77565b6001600160a01b031661248f611f47565b6001600160a01b0316146124d8576040805162461bcd60e51b81526020600482018190526024820152600080516020614aa4833981519152604482015290519081900360640190fd5b600c805460ff19169055565b6124ec613c77565b6001600160a01b03166124fd611f47565b6001600160a01b031614612546576040805162461bcd60e51b81526020600482018190526024820152600080516020614aa4833981519152604482015290519081900360640190fd5b600a546040805163f366751760e01b815290516001600160a01b0392831692841691839163f366751791600480820192602092909190829003018186803b15801561259057600080fd5b505afa1580156125a4573d6000803e3d6000fd5b505050506040513d60208110156125ba57600080fd5b50516001600160a01b0316146126015760405162461bcd60e51b8152600401808060200182810382526028815260200180614b566028913960400191505060405180910390fd5b604080516370a0823160e01b815230600482015290516000916001600160a01b038416916370a0823191602480820192602092909190829003018186803b15801561264b57600080fd5b505afa15801561265f573d6000803e3d6000fd5b505050506040513d602081101561267557600080fd5b5051600a54909150612691906001600160a01b03168483614240565b505050565b61269e613c77565b6001600160a01b03166126af611f47565b6001600160a01b0316146126f8576040805162461bcd60e51b81526020600482018190526024820152600080516020614aa4833981519152604482015290519081900360640190fd5b81816007858154811061270757fe5b90600052602060002090600902016001019190612725929190614974565b50505050565b612733613c77565b6001600160a01b0316612744611f47565b6001600160a01b03161461278d576040805162461bcd60e51b81526020600482018190526024820152600080516020614aa4833981519152604482015290519081900360640190fd5b600c805460ff19166001179055604080516347cf98ff60e11b8152905182916001600160a01b03831691638f9f31fe91600480820192602092909190829003018186803b1580156127dd57600080fd5b505afa1580156127f1573d6000803e3d6000fd5b505050506040513d602081101561280757600080fd5b505161285a576040805162461bcd60e51b815260206004820152601a60248201527f66726f6d2773206d6967726174696f6e206e6f74206f70656e2e000000000000604482015290519081900360640190fd5b600c5461010090046001600160a01b0316156128b4576040805162461bcd60e51b815260206004820152601460248201527336b4b3b930ba34b7b71037b7363c9037b731b29760611b604482015290519081900360640190fd5b6128bd816143a3565b50600c80546001600160a01b0390921661010002610100600160a81b0319909216919091179055565b60075490565b6128f4613c77565b6001600160a01b0316612905611f47565b6001600160a01b03161461294e576040805162461bcd60e51b81526020600482018190526024820152600080516020614aa4833981519152604482015290519081900360640190fd5b601080546001600160a01b0319166001600160a01b0392909216919091179055565b612978613c77565b6001600160a01b0316612989611f47565b6001600160a01b0316146129d2576040805162461bcd60e51b81526020600482018190526024820152600080516020614aa4833981519152604482015290519081900360640190fd5b670de0b6b3a76400006129eb838363ffffffff613f6516565b1115612a3e576040805162461bcd60e51b815260206004820152601860248201527f73756d2072617465206c6f776572207468656e20313030250000000000000000604482015290519081900360640190fd5b8160078481548110612a4c57fe5b9060005260206000209060090201600401819055508060078481548110612a6f57fe5b906000526020600020906009020160050181905550505050565b600f54600e546001600160a01b03918216911681909192565b612aaa613c77565b6001600160a01b0316612abb611f47565b6001600160a01b031614612b04576040805162461bcd60e51b81526020600482018190526024820152600080516020614aa4833981519152604482015290519081900360640190fd5b612b4781612b3b60078581548110612b1857fe5b90600052602060002090600902016002015460095461408690919063ffffffff16565b9063ffffffff613f6516565b6009819055508060078381548110612b5b57fe5b9060005260206000209060090201600201819055505050565b6001600160a01b03918216600090815260016020908152604080832093909416825291909152205490565b600c5461010090046001600160a01b031690565b600c5460ff1615612c02576040805162461bcd60e51b8152602060048201526014602482015273309036b4b3b930ba34b7b71034b99037b832b71760611b604482015290519081900360640190fd5b6000828152600b60209081526040808320338452909152812090805b600085815260086020526040902054811015612c7d576000858152600860205260409020805433919083908110612c5157fe5b6000918252602090912001546001600160a01b03161415612c755760019150612c7d565b600101612c1e565b5080612cb25760008481526008602090815260408220805460018101825590835291200180546001600160a01b031916331790555b612cbb846114a8565b600060078581548110612cca57fe5b600091825260209091208454600990920201915015612f60576000612d148460020154611145670de0b6b3a764000061113986600301548960000154613fc690919063ffffffff16565b90508015612f5e57600a54600d54604080516370a0823160e01b81526001600160a01b039283166004820152905160009392909216916370a0823191602480820192602092909190829003018186803b158015612d7057600080fd5b505afa158015612d84573d6000803e3d6000fd5b505050506040513d6020811015612d9a57600080fd5b50519050818110612e83576000878152600b60209081526040808320338452909152902060040154612dd2908363ffffffff613f6516565b6000888152600b60209081526040808320338452909152808220600490810193909355600d54600a5482516316d0077960e31b81526001600160a01b039182169581019590955260248501879052915191169263b6803bc892604480830193919282900301818387803b158015612e4857600080fd5b505af1158015612e5c573d6000803e3d6000fd5b5050600a54600d54612e7e93506001600160a01b0391821692501633856140e3565b612f5c565b6000878152600b60209081526040808320338452909152902060040154612eb0908263ffffffff613f6516565b6000888152600b60209081526040808320338452909152808220600490810193909355600d54600a5482516316d0077960e31b81526001600160a01b039182169581019590955260248501869052915191169263b6803bc892604480830193919282900301818387803b158015612f2657600080fd5b505af1158015612f3a573d6000803e3d6000fd5b5050600a54600d54612f5c93506001600160a01b0391821692501633846140e3565b505b505b8315613071578054600f54604080516370a0823160e01b81526001600160a01b039283166004820152905160009392909216916370a0823191602480820192602092909190829003018186803b158015612fb957600080fd5b505afa158015612fcd573d6000803e3d6000fd5b505050506040513d6020811015612fe357600080fd5b50518254600f54919250613006916001600160a01b0391821691339116886140e3565b8154600f54604080516370a0823160e01b81526001600160a01b039283166004820152905161305893859316916370a08231916024808301926020929190829003018186803b15801561167e57600080fd5b845490955061306d908663ffffffff613f6516565b8455505b6003810154835461309591670de0b6b3a7640000916111399163ffffffff613fc616565b6002840155604080518581529051869133917f90890809c654f11d6e72a28fa60149770a0d11ec6c92319d6ceb2bb0a4ea1a159181900360200190a35050505050565b6010546001600160a01b031690565b6002600654141561313f576040805162461bcd60e51b815260206004820152601f60248201527f5265656e7472616e637947756172643a207265656e7472616e742063616c6c00604482015290519081900360640190fd5b6002600655600c5460ff1615613193576040805162461bcd60e51b8152602060048201526014602482015273309036b4b3b930ba34b7b71034b99037b832b71760611b604482015290519081900360640190fd5b60006001600160a01b0316600786815481106131ab57fe5b60009182526020909120600990910201546001600160a01b03161415613218576040805162461bcd60e51b815260206004820152601a60248201527f616464726573732830292063616e2774206265206120706f6f6c000000000000604482015290519081900360640190fd5b6000805b60008781526008602052604090205481101561327b57600087815260086020526040902080543391908390811061324f57fe5b6000918252602090912001546001600160a01b03161415613273576001915061327b565b60010161321c565b50806132b05760008681526008602090815260408220805460018101825590835291200180546001600160a01b031916331790555b6132b9866114a8565b6000600787815481106132c857fe5b906000526020600020906009020160010186815481106132e457fe5b60009182526020918290200154604080516370a0823160e01b815230600482015290516001600160a01b03909216926370a0823192602480840193829003018186803b15801561333357600080fd5b505afa158015613347573d6000803e3d6000fd5b505050506040513d602081101561335d57600080fd5b5051600780549192506133ad918990811061337457fe5b9060005260206000209060090201600101878154811061339057fe5b6000918252602090912001546001600160a01b03163330876140e3565b61342981600789815481106133be57fe5b906000526020600020906009020160010188815481106133da57fe5b60009182526020918290200154604080516370a0823160e01b815230600482015290516001600160a01b03909216926370a0823192602480840193829003018186803b15801561167e57600080fd5b935061349d6007888154811061343b57fe5b9060005260206000209060090201600101878154811061345757fe5b600091825260209091200154600780546001600160a01b03909216918a90811061347d57fe5b60009182526020909120600990910201546001600160a01b031686614240565b6000600788815481106134ac57fe5b906000526020600020906009020160010186815481106134c857fe5b60009182526020918290200154604080516370a0823160e01b815230600482015290516001600160a01b03909216926370a0823192602480840193829003018186803b15801561351757600080fd5b505afa15801561352b573d6000803e3d6000fd5b505050506040513d602081101561354157600080fd5b505160078054919250908990811061355557fe5b6000918252602082206009909102015460408051630b68372160e31b8152600481018b9052602481018a9052604481018990526064810188905290516001600160a01b0390921692635b41b9089260848084019382900301818387803b1580156135be57600080fd5b505af11580156135d2573d6000803e3d6000fd5b5050505060006136058260078b815481106135e957fe5b906000526020600020906009020160010189815481106133da57fe5b90506000811161364a576040805162461bcd60e51b815260206004820152600b60248201526a1b9bc818dbda5b881bdd5d60aa1b604482015290519081900360640190fd5b61368a61366187611139848063ffffffff613fc616565b60008b8152600b602090815260408083203384529091529020600101549063ffffffff613f6516565b60008a8152600b602090815260408083203384529091528120600101919091556136be87611139848063ffffffff613fc616565b11613709576040805162461bcd60e51b81526020600482015260166024820152750616363756d756c61746520706f696e747320697320360541b604482015290519081900360640190fd5b600a54600e54604080516370a0823160e01b81526001600160a01b039283166004820152905160009392909216916370a0823191602480820192602092909190829003018186803b15801561375d57600080fd5b505afa158015613771573d6000803e3d6000fd5b505050506040513d602081101561378757600080fd5b5051600780549192506000918291908d9081106137a057fe5b9060005260206000209060090201600601541180156137dd5750600060078c815481106137c957fe5b906000526020600020906009020160070154115b156138525761384b60078c815481106137f257fe5b90600052602060002090600902016006015461113961381e8b6111398889613fc690919063ffffffff16565b60078f8154811061382b57fe5b906000526020600020906009020160070154613fc690919063ffffffff16565b9050613866565b61386382600a63ffffffff61401f16565b90505b8181111561399e5760008b8152600b6020908152604080832033845290915290206003015461389b908363ffffffff613f6516565b60008c8152600b60209081526040808320338452909152902060030155600780546138ec9184918e9081106138cc57fe5b906000526020600020906009020160070154613f6590919063ffffffff16565b60078c815481106138f957fe5b60009182526020822060076009909202010191909155600e54600a54604080516316d0077960e31b81526001600160a01b039283166004820152602481018790529051919092169263b6803bc8926044808201939182900301818387803b15801561396357600080fd5b505af1158015613977573d6000803e3d6000fd5b5050600a54600e5461399993506001600160a01b0391821692501633856140e3565b613aa9565b60008b8152600b602090815260408083203384529091529020600301546139cb908263ffffffff613f6516565b60008c8152600b60209081526040808320338452909152902060030155600780546139fc9183918e9081106138cc57fe5b60078c81548110613a0957fe5b60009182526020822060076009909202010191909155600e54600a54604080516316d0077960e31b81526001600160a01b039283166004820152602481018690529051919092169263b6803bc8926044808201939182900301818387803b158015613a7357600080fd5b505af1158015613a87573d6000803e3d6000fd5b5050600a54600e54613aa993506001600160a01b0391821692501633846140e3565b613aed613ac089611139868063ffffffff613fc616565b60078d81548110613acd57fe5b906000526020600020906009020160060154613f6590919063ffffffff16565b60078c81548110613afa57fe5b906000526020600020906009020160060181905550613b5760078c81548110613b1f57fe5b90600052602060002090600902016001018a81548110613b3b57fe5b6000918252602090912001546001600160a01b031633856147ac565b50506001600655505050505050505050565b613b71613c77565b6001600160a01b0316613b82611f47565b6001600160a01b031614613bcb576040805162461bcd60e51b81526020600482018190526024820152600080516020614aa4833981519152604482015290519081900360640190fd5b6001600160a01b038116613c105760405162461bcd60e51b8152600401808060200182810382526026815260200180614a356026913960400191505060405180910390fd5b6005546040516001600160a01b0380841692610100900416907f8be0079c531659141344cd1fd0a4f28419497f9722a3daafe3b4186f6b6457e090600090a3600580546001600160a01b0390921661010002610100600160a81b0319909216919091179055565b3390565b6001600160a01b038316613cc05760405162461bcd60e51b8152600401808060200182810382526024815260200180614a116024913960400191505060405180910390fd5b6001600160a01b038216613d055760405162461bcd60e51b8152600401808060200182810382526022815260200180614b7e6022913960400191505060405180910390fd5b6001600160a01b03808416600081815260016020908152604080832094871680845294825291829020859055815185815291517f8c5be1e5ebec7d5bd14f71427d1e84f3dd0314c0f7b2291e5b200ac8c7c3b9259281900390910190a3505050565b6001600160a01b038316613dac5760405162461bcd60e51b81526004018080602001828103825260258152602001806149ec6025913960400191505060405180910390fd5b6001600160a01b038216613df15760405162461bcd60e51b8152600401808060200182810382526023815260200180614aea6023913960400191505060405180910390fd5b613dfc838383612691565b613e3f81604051806060016040528060268152602001614ac4602691396001600160a01b038616600090815260208190526040902054919063ffffffff613ece16565b6001600160a01b038085166000908152602081905260408082209390935590841681522054613e74908263ffffffff613f6516565b6001600160a01b038084166000818152602081815260409182902094909455805185815290519193928716927fddf252ad1be2c89b69c2b068fc378daa952ba7f163c4a11628f55a4df523b3ef92918290030190a3505050565b60008184841115613f5d5760405162461bcd60e51b81526004018080602001828103825283818151815260200191508051906020019080838360005b83811015613f22578181015183820152602001613f0a565b50505050905090810190601f168015613f4f5780820380516001836020036101000a031916815260200191505b509250505060405180910390fd5b505050900390565b600082820183811015613fbf576040805162461bcd60e51b815260206004820152601b60248201527f536166654d6174683a206164646974696f6e206f766572666c6f770000000000604482015290519081900360640190fd5b9392505050565b600082613fd557506000610b81565b82820282848281613fe257fe5b0414613fbf5760405162461bcd60e51b8152600401808060200182810382526021815260200180614a836021913960400191505060405180910390fd5b6000808211614075576040805162461bcd60e51b815260206004820152601a60248201527f536166654d6174683a206469766973696f6e206279207a65726f000000000000604482015290519081900360640190fd5b81838161407e57fe5b049392505050565b6000828211156140dd576040805162461bcd60e51b815260206004820152601e60248201527f536166654d6174683a207375627472616374696f6e206f766572666c6f770000604482015290519081900360640190fd5b50900390565b604080516001600160a01b0385811660248301528481166044830152606480830185905283518084039091018152608490920183526020820180516001600160e01b03166323b872dd60e01b17815292518251600094606094938a169392918291908083835b602083106141685780518252601f199092019160209182019101614149565b6001836020036101000a0380198251168184511680821785525050505050509050019150506000604051808303816000865af19150503d80600081146141ca576040519150601f19603f3d011682016040523d82523d6000602084013e6141cf565b606091505b50915091508180156141fd5750805115806141fd57508080602001905160208110156141fa57600080fd5b50515b6142385760405162461bcd60e51b8152600401808060200182810382526024815260200180614b326024913960400191505060405180910390fd5b505050505050565b604080516001600160a01b038481166024830152604480830185905283518084039091018152606490920183526020820180516001600160e01b031663095ea7b360e01b178152925182516000946060949389169392918291908083835b602083106142bd5780518252601f19909201916020918201910161429e565b6001836020036101000a0380198251168184511680821785525050505050509050019150506000604051808303816000865af19150503d806000811461431f576040519150601f19603f3d011682016040523d82523d6000602084013e614324565b606091505b5091509150818015614352575080511580614352575080806020019051602081101561434f57600080fd5b50515b611cf8576040805162461bcd60e51b815260206004820152601e60248201527f5472616e7366657248656c7065723a20415050524f56455f4641494c45440000604482015290519081900360640190fd5b6000606080825b846001600160a01b031663ce883cdb6040518163ffffffff1660e01b815260040160206040518083038186803b1580156143e357600080fd5b505afa1580156143f7573d6000803e3d6000fd5b505050506040513d602081101561440d57600080fd5b5051811015611cf857846001600160a01b0316632f380b35826040518263ffffffff1660e01b81526004018082815260200191505060006040518083038186803b15801561445a57600080fd5b505afa15801561446e573d6000803e3d6000fd5b505050506040513d6000823e601f3d908101601f1916820160405261014081101561449857600080fd5b815160208301805160405192949293830192919084600160201b8211156144be57600080fd5b9083019060208201858111156144d357600080fd5b82518660208202830111600160201b821117156144ef57600080fd5b82525081516020918201928201910280838360005b8381101561451c578181015183820152602001614504565b505050509190910160408181526020840151908401516060850151608086015160a087015160c088015160e08901516101009099018051969b959a94999398509196909592949093909290919084600160201b82111561457b57600080fd5b90830190602082018581111561459057600080fd5b82518660208202830111600160201b821117156145ac57600080fd5b82525081516020918201928201910280838360005b838110156145d95781810151838201526020016145c1565b5050505091909101604052505082519b9f50999d50909b50614626998c9950600098501515965061460d9550505050505057fe5b6020026020010151600954613f6590919063ffffffff16565b6009819055506007604051806101200160405280866001600160a01b031681526020018581526020018460008151811061465c57fe5b602002602001015181526020018460018151811061467657fe5b602002602001015181526020018460028151811061469057fe5b60200260200101518152602001846003815181106146aa57fe5b60200260200101518152602001846004815181106146c457fe5b60200260200101518152602001846005815181106146de57fe5b60200260200101518152602001846006815181106146f857fe5b602090810291909101810151909152825460018082018555600094855293829020835160099092020180546001600160a01b0319166001600160a01b039092169190911781558282015180519394919361475a9392850192919091019061490f565b5060408201516002820155606082015160038201556080820151600482015560a0820151600582015560c0820151600682015560e08201516007820155610100909101516008909101556001016143aa565b604080516001600160a01b038481166024830152604480830185905283518084039091018152606490920183526020820180516001600160e01b031663a9059cbb60e01b178152925182516000946060949389169392918291908083835b602083106148295780518252601f19909201916020918201910161480a565b6001836020036101000a0380198251168184511680821785525050505050509050019150506000604051808303816000865af19150503d806000811461488b576040519150601f19603f3d011682016040523d82523d6000602084013e614890565b606091505b50915091508180156148be5750805115806148be57508080602001905160208110156148bb57600080fd5b50515b611cf8576040805162461bcd60e51b815260206004820152601f60248201527f5472616e7366657248656c7065723a205452414e534645525f4641494c454400604482015290519081900360640190fd5b828054828255906000526020600020908101928215614964579160200282015b8281111561496457825182546001600160a01b0319166001600160a01b0390911617825560209092019160019091019061492f565b506149709291506149c7565b5090565b828054828255906000526020600020908101928215614964579160200282015b828111156149645781546001600160a01b0319166001600160a01b03843516178255602090920191600190910190614994565b610b6691905b808211156149705780546001600160a01b03191681556001016149cd56fe42455032303a207472616e736665722066726f6d20746865207a65726f206164647265737342455032303a20617070726f76652066726f6d20746865207a65726f20616464726573734f776e61626c653a206e6577206f776e657220697320746865207a65726f206164647265737342455032303a207472616e7366657220616d6f756e74206578636565647320616c6c6f77616e6365536166654d6174683a206d756c7469706c69636174696f6e206f766572666c6f774f776e61626c653a2063616c6c6572206973206e6f7420746865206f776e657242455032303a207472616e7366657220616d6f756e7420657863656564732062616c616e636542455032303a207472616e7366657220746f20746865207a65726f206164647265737342455032303a2064656372656173656420616c6c6f77616e63652062656c6f77207a65726f5472616e7366657248656c7065723a205452414e534645525f46524f4d5f4641494c45446f6e6c7920616c6c6f7720746f20617070726f766520746f6b656e20746f2061206d696e7465722e42455032303a20617070726f766520746f20746865207a65726f2061646472657373a2646970667358221220c9188c3d18003e4774e19e0e1c6d1255179548c8d4895ce725aad377341d2fb864736f6c6343000606003360806040523480156200001157600080fd5b506040516200145538038062001455833981810160405260808110156200003757600080fd5b81019080805160405193929190846401000000008211156200005857600080fd5b9083019060208201858111156200006e57600080fd5b82516401000000008111828201881017156200008957600080fd5b82525081516020918201929091019080838360005b83811015620000b85781810151838201526020016200009e565b50505050905090810190601f168015620000e65780820380516001836020036101000a031916815260200191505b50604052602001805160405193929190846401000000008211156200010a57600080fd5b9083019060208201858111156200012057600080fd5b82516401000000008111828201881017156200013b57600080fd5b82525081516020918201929091019080838360005b838110156200016a57818101518382015260200162000150565b50505050905090810190601f168015620001985780820380516001836020036101000a031916815260200191505b50604090815260208281015192909101518651929450925085918591620001c591600391850190620003c4565b508051620001db906004906020840190620003c4565b50506005805460ff19166012179055506000620002006001600160e01b036200028316565b60058054610100600160a81b0319166101006001600160a01b038416908102919091179091556040519192509060009060008051602062001435833981519152908290a35062000259816001600160e01b036200028816565b50600680546001600160a01b0319166001600160a01b039290921691909117905550620004669050565b335b90565b6200029b6001600160e01b036200028316565b6001600160a01b0316620002b76001600160e01b03620003b016565b6001600160a01b03161462000313576040805162461bcd60e51b815260206004820181905260248201527f4f776e61626c653a2063616c6c6572206973206e6f7420746865206f776e6572604482015290519081900360640190fd5b6001600160a01b0381166200035a5760405162461bcd60e51b81526004018080602001828103825260268152602001806200140f6026913960400191505060405180910390fd5b6005546040516001600160a01b0380841692610100900416906000805160206200143583398151915290600090a3600580546001600160a01b0390921661010002610100600160a81b0319909216919091179055565b60055461010090046001600160a01b031690565b828054600181600116156101000203166002900490600052602060002090601f016020900481019282601f106200040757805160ff191683800117855562000437565b8280016001018555821562000437579182015b82811115620004375782518255916020019190600101906200041a565b506200044592915062000449565b5090565b6200028591905b8082111562000445576000815560010162000450565b610f9980620004766000396000f3fe608060405234801561001057600080fd5b50600436106100f55760003560e01c8063715018a611610097578063a9059cbb11610066578063a9059cbb146102d9578063b6803bc814610305578063dd62ed3e14610331578063f2fde38b1461035f576100f5565b8063715018a6146102775780638da5cb5b1461028157806395d89b41146102a5578063a457c2d7146102ad576100f5565b806323b872dd116100d357806323b872dd146101d1578063313ce56714610207578063395093511461022557806370a0823114610251576100f5565b806306fdde03146100fa578063095ea7b31461017757806318160ddd146101b7575b600080fd5b610102610385565b6040805160208082528351818301528351919283929083019185019080838360005b8381101561013c578181015183820152602001610124565b50505050905090810190601f1680156101695780820380516001836020036101000a031916815260200191505b509250505060405180910390f35b6101a36004803603604081101561018d57600080fd5b506001600160a01b03813516906020013561041b565b604080519115158252519081900360200190f35b6101bf610438565b60408051918252519081900360200190f35b6101a3600480360360608110156101e757600080fd5b506001600160a01b0381358116916020810135909116906040013561043e565b61020f6104cb565b6040805160ff9092168252519081900360200190f35b6101a36004803603604081101561023b57600080fd5b506001600160a01b0381351690602001356104d4565b6101bf6004803603602081101561026757600080fd5b50356001600160a01b0316610528565b61027f610543565b005b610289610607565b604080516001600160a01b039092168252519081900360200190f35b61010261061b565b6101a3600480360360408110156102c357600080fd5b506001600160a01b03813516906020013561067c565b6101a3600480360360408110156102ef57600080fd5b506001600160a01b0381351690602001356106ea565b61027f6004803603604081101561031b57600080fd5b506001600160a01b0381351690602001356106fe565b6101bf6004803603604081101561034757600080fd5b506001600160a01b0381358116916020013516610833565b61027f6004803603602081101561037557600080fd5b50356001600160a01b031661085e565b60038054604080516020601f60026000196101006001881615020190951694909404938401819004810282018101909252828152606093909290918301828280156104115780601f106103e657610100808354040283529160200191610411565b820191906000526020600020905b8154815290600101906020018083116103f457829003601f168201915b5050505050905090565b600061042f61042861097e565b8484610982565b50600192915050565b60025490565b600061044b848484610a6e565b6104c18461045761097e565b6104bc85604051806060016040528060288152602001610eac602891396001600160a01b038a1660009081526001602052604081209061049561097e565b6001600160a01b03168152602081019190915260400160002054919063ffffffff610bd516565b610982565b5060019392505050565b60055460ff1690565b600061042f6104e161097e565b846104bc85600160006104f261097e565b6001600160a01b03908116825260208083019390935260409182016000908120918c16815292529020549063ffffffff610c6c16565b6001600160a01b031660009081526020819052604090205490565b61054b61097e565b6001600160a01b031661055c610607565b6001600160a01b0316146105b7576040805162461bcd60e51b815260206004820181905260248201527f4f776e61626c653a2063616c6c6572206973206e6f7420746865206f776e6572604482015290519081900360640190fd5b60055460405160009161010090046001600160a01b0316907f8be0079c531659141344cd1fd0a4f28419497f9722a3daafe3b4186f6b6457e0908390a360058054610100600160a81b0319169055565b60055461010090046001600160a01b031690565b60048054604080516020601f60026000196101006001881615020190951694909404938401819004810282018101909252828152606093909290918301828280156104115780601f106103e657610100808354040283529160200191610411565b600061042f61068961097e565b846104bc85604051806060016040528060258152602001610f1d60259139600160006106b361097e565b6001600160a01b03908116825260208083019390935260409182016000908120918d1681529252902054919063ffffffff610bd516565b600061042f6106f761097e565b8484610a6e565b61070661097e565b6001600160a01b0316610717610607565b6001600160a01b031614610772576040805162461bcd60e51b815260206004820181905260248201527f4f776e61626c653a2063616c6c6572206973206e6f7420746865206f776e6572604482015290519081900360640190fd5b6006546001600160a01b031633146107ca576040805162461bcd60e51b81526020600482015260166024820152756f6e6c792070726f78792063616e20646f207468697360501b604482015290519081900360640190fd5b6006546107e29083906001600160a01b031683610ccd565b600654604080516001600160a01b0380861682529092166020830152818101839052517fe64402cbdcb5b87b76594408c4410fd05d63b3e1f940145f732a1bb0ccbe54179181900360600190a15050565b6001600160a01b03918216600090815260016020908152604080832093909416825291909152205490565b61086661097e565b6001600160a01b0316610877610607565b6001600160a01b0316146108d2576040805162461bcd60e51b815260206004820181905260248201527f4f776e61626c653a2063616c6c6572206973206e6f7420746865206f776e6572604482015290519081900360640190fd5b6001600160a01b0381166109175760405162461bcd60e51b8152600401808060200182810382526026815260200180610e866026913960400191505060405180910390fd5b6005546040516001600160a01b0380841692610100900416907f8be0079c531659141344cd1fd0a4f28419497f9722a3daafe3b4186f6b6457e090600090a3600580546001600160a01b0390921661010002610100600160a81b0319909216919091179055565b3390565b6001600160a01b0383166109c75760405162461bcd60e51b8152600401808060200182810382526024815260200180610e626024913960400191505060405180910390fd5b6001600160a01b038216610a0c5760405162461bcd60e51b8152600401808060200182810382526022815260200180610f426022913960400191505060405180910390fd5b6001600160a01b03808416600081815260016020908152604080832094871680845294825291829020859055815185815291517f8c5be1e5ebec7d5bd14f71427d1e84f3dd0314c0f7b2291e5b200ac8c7c3b9259281900390910190a3505050565b6001600160a01b038316610ab35760405162461bcd60e51b8152600401808060200182810382526025815260200180610e3d6025913960400191505060405180910390fd5b6001600160a01b038216610af85760405162461bcd60e51b8152600401808060200182810382526023815260200180610efa6023913960400191505060405180910390fd5b610b03838383610e37565b610b4681604051806060016040528060268152602001610ed4602691396001600160a01b038616600090815260208190526040902054919063ffffffff610bd516565b6001600160a01b038085166000908152602081905260408082209390935590841681522054610b7b908263ffffffff610c6c16565b6001600160a01b038084166000818152602081815260409182902094909455805185815290519193928716927fddf252ad1be2c89b69c2b068fc378daa952ba7f163c4a11628f55a4df523b3ef92918290030190a3505050565b60008184841115610c645760405162461bcd60e51b81526004018080602001828103825283818151815260200191508051906020019080838360005b83811015610c29578181015183820152602001610c11565b50505050905090810190601f168015610c565780820380516001836020036101000a031916815260200191505b509250505060405180910390fd5b505050900390565b600082820183811015610cc6576040805162461bcd60e51b815260206004820152601b60248201527f536166654d6174683a206164646974696f6e206f766572666c6f770000000000604482015290519081900360640190fd5b9392505050565b604080516001600160a01b038481166024830152604480830185905283518084039091018152606490920183526020820180516001600160e01b031663095ea7b360e01b178152925182516000946060949389169392918291908083835b60208310610d4a5780518252601f199092019160209182019101610d2b565b6001836020036101000a0380198251168184511680821785525050505050509050019150506000604051808303816000865af19150503d8060008114610dac576040519150601f19603f3d011682016040523d82523d6000602084013e610db1565b606091505b5091509150818015610ddf575080511580610ddf5750808060200190516020811015610ddc57600080fd5b50515b610e30576040805162461bcd60e51b815260206004820152601e60248201527f5472616e7366657248656c7065723a20415050524f56455f4641494c45440000604482015290519081900360640190fd5b5050505050565b50505056fe42455032303a207472616e736665722066726f6d20746865207a65726f206164647265737342455032303a20617070726f76652066726f6d20746865207a65726f20616464726573734f776e61626c653a206e6577206f776e657220697320746865207a65726f206164647265737342455032303a207472616e7366657220616d6f756e74206578636565647320616c6c6f77616e636542455032303a207472616e7366657220616d6f756e7420657863656564732062616c616e636542455032303a207472616e7366657220746f20746865207a65726f206164647265737342455032303a2064656372656173656420616c6c6f77616e63652062656c6f77207a65726f42455032303a20617070726f766520746f20746865207a65726f2061646472657373a264697066735822122039c00461ee6ba2f61150734d0c1fdcb564c510b19a4fb46ac9ea5f163148786e64736f6c634300060600334f776e61626c653a206e6577206f776e657220697320746865207a65726f20616464726573738be0079c531659141344cd1fd0a4f28419497f9722a3daafe3b4186f6b6457e04f776e61626c653a206e6577206f776e657220697320746865207a65726f206164647265737342537461626c6520546f6b656e2057616c6c657420666f72204c50207374616b696e6742537461626c6520546f6b656e2057616c6c657420666f72204c50206661726d696e67207265776172648be0079c531659141344cd1fd0a4f28419497f9722a3daafe3b4186f6b6457e042537461626c6520546f6b656e2057616c6c657420666f72204c50207377617020726577617264",
  "immutableReferences": {},
  "source": "pragma solidity ^0.6.0;\n\nimport \"../BEP20.sol\";\nimport \"./BStableTokenWallet.sol\";\nimport \"../interfaces/IBEP20.sol\";\nimport \"../interfaces/IBStablePool.sol\";\nimport \"../interfaces/IBStableProxy.sol\";\nimport \"../interfaces/IBStableToken.sol\";\nimport \"@openzeppelin/contracts/access/Ownable.sol\";\nimport \"@openzeppelin/contracts/math/SafeMath.sol\";\nimport \"@openzeppelin/contracts/utils/ReentrancyGuard.sol\";\nimport \"../lib/TransferHelper.sol\";\n\n// Proxy\ncontract BStableProxy is IBStableProxy, BEP20, Ownable, ReentrancyGuard {\n    using SafeMath for uint256;\n\n    struct PoolInfo {\n        address poolAddress;\n        address[] coins;\n        uint256 allocPoint;\n        uint256 accTokenPerShare;\n        uint256 shareRewardRate; //  share reward percent of total release amount. wei\n        uint256 swapRewardRate; //  swap reward percent of total release amount.  wei\n        uint256 totalVolAccPoints; // total volume accumulate points. wei\n        uint256 totalVolReward; // total volume reword. wei \n        uint256 lastUpdateTime;\n    }\n    struct UserInfo {\n        uint256 amount; // How many LP tokens the user has provided.\n        uint256 volume; // swap volume.\n        uint256 rewardDebt; // Reward debt. See explanation below.\n        uint256 volReward;\n        uint256 farmingReward;\n    }\n\n    event Deposit(address indexed user, uint256 indexed pid, uint256 amount);\n    event Withdraw(address indexed user, uint256 indexed pid, uint256 amount);\n    event EmergencyWithdraw(\n        address indexed user,\n        uint256 indexed pid,\n        uint256 amount\n    );\n\n    // state data\n    PoolInfo[] pools;\n    mapping(uint256 => address[]) poolUsers;\n    uint256 totalAllocPoint = 0;\n    address tokenAddress;\n    mapping(uint256 => mapping(address => UserInfo)) userInfo;\n\n    bool _openMigration = false;\n    address migrateFrom;\n\n    BStableTokenWallet walletShare;\n    BStableTokenWallet walletSwap;\n    BStableTokenWallet walletLPStaking;\n\n    address devAddress;\n    address amcAddress;\n    uint256 devPoints = 10;\n    uint256 amcPoints = 15;\n    uint256 communityPoints = 72;\n    uint256 mintTotalPoints = 97;\n\n    modifier noOpenMigration() {\n        require(!_openMigration, \"a migration is open.\");\n        _;\n    }\n\n    constructor(\n        string memory _name,\n        string memory _symbol,\n        address _tokenAddress,\n        address _amcAddress,\n        address ownerAddress\n    ) public BEP20(_name, _symbol) {\n        tokenAddress = _tokenAddress;\n        createWallet();\n        devAddress = msg.sender;\n        amcAddress = _amcAddress;\n        transferOwnership(ownerAddress);\n    }\n\n    function getDevAddress() public view returns (address) {\n        return devAddress;\n    }\n\n    function getAmcAddress() public view returns (address) {\n        return amcAddress;\n    }\n\n    function createWallet() internal {\n        require(\n            address(walletShare) == address(0) &&\n                address(walletSwap) == address(0) &&\n                address(walletLPStaking) == address(0),\n            \"wallet not empty\"\n        );\n        walletShare = new BStableTokenWallet(\n            \"BStable Token Wallet for LP farming reward\",\n            \"BTWL\",\n            address(this),\n            address(this)\n        );\n        walletSwap = new BStableTokenWallet(\n            \"BStable Token Wallet for LP swap reward\",\n            \"BTWS\",\n            address(this),\n            address(this)\n        );\n        walletLPStaking = new BStableTokenWallet(\n            \"BStable Token Wallet for LP staking\",\n            \"BTWLP\",\n            address(this),\n            address(this)\n        );\n    }\n\n    function getWallets()\n        public\n        view\n        override\n        returns (\n            BStableTokenWallet wsAddress,\n            BStableTokenWallet weAddress,\n            BStableTokenWallet wstakingAddress\n        )\n    {\n        return (walletLPStaking, walletSwap, walletLPStaking);\n    }\n\n    function getPoolInfo(uint256 _pid)\n        public\n        view\n        override\n        returns (\n            address _poolAddress,\n            address[] memory _coins,\n            uint256 _allocPoint,\n            uint256 _accTokenPerShare,\n            uint256 _shareRewardRate,\n            uint256 _swapRewardRate,\n            uint256 _totalVolAccPoints,\n            uint256 _totalVolReward,\n            uint256 _lastUpdateTime,\n            uint256[] memory arrData\n        )\n    {\n        arrData = new uint256[](7);\n        _poolAddress = pools[_pid].poolAddress;\n        _coins = pools[_pid].coins;\n        _allocPoint = pools[_pid].allocPoint;\n        arrData[0] = pools[_pid].allocPoint;\n        _accTokenPerShare = pools[_pid].accTokenPerShare;\n        arrData[1] = pools[_pid].accTokenPerShare;\n        _shareRewardRate = pools[_pid].shareRewardRate;\n        arrData[2] = pools[_pid].shareRewardRate;\n        _swapRewardRate = pools[_pid].swapRewardRate;\n        arrData[3] = pools[_pid].swapRewardRate;\n        _totalVolAccPoints = pools[_pid].totalVolAccPoints;\n        arrData[4] = pools[_pid].totalVolAccPoints;\n        _totalVolReward = pools[_pid].totalVolReward;\n        arrData[5] = pools[_pid].totalVolReward;\n        _lastUpdateTime = pools[_pid].lastUpdateTime;\n        arrData[6] = pools[_pid].lastUpdateTime;\n    }\n\n    function getTokenAddress() public view override returns (address taddress) {\n        taddress = tokenAddress;\n    }\n\n    function getUserInfo(uint256 _pid, address user)\n        public\n        view\n        override\n        returns (\n            uint256 _amount,\n            uint256 _volume,\n            uint256 _rewardDebt,\n            uint256 _volReward,\n            uint256 _farmingReward\n        )\n    {\n        _amount = userInfo[_pid][user].amount;\n        _volume = userInfo[_pid][user].volume;\n        _rewardDebt = userInfo[_pid][user].rewardDebt;\n        _volReward = userInfo[_pid][user].volReward;\n        _farmingReward = userInfo[_pid][user].farmingReward;\n    }\n\n    function getPoolUsers(uint256 _pid)\n        public\n        view\n        override\n        returns (address[] memory _users)\n    {\n        _users = poolUsers[_pid];\n    }\n\n    function getPoolsLength() public view override returns (uint256 l) {\n        l = pools.length;\n    }\n\n    function getTotalAllocPoint() public view override returns (uint256 r) {\n        r = totalAllocPoint;\n    }\n\n    function isMigrationOpen() external view override returns (bool r) {\n        r = _openMigration;\n    }\n\n    function getMigrateFrom() public view override returns (address _a) {\n        _a = migrateFrom;\n    }\n\n    function exchange(\n        uint256 _pid,\n        uint256 i,\n        uint256 j,\n        uint256 dx,\n        uint256 min_dy\n    ) external nonReentrant noOpenMigration {\n        require(\n            pools[_pid].poolAddress != address(0),\n            \"address(0) can't be a pool\"\n        );\n        bool exists = false;\n        for (uint256 index = 0; index < poolUsers[_pid].length; index++) {\n            if (poolUsers[_pid][index] == msg.sender) {\n                exists = true;\n                break;\n            }\n        }\n        if (!exists) {\n            poolUsers[_pid].push(msg.sender);\n        }\n        updatePool(_pid);\n        uint256 bali = IBEP20(pools[_pid].coins[i]).balanceOf(address(this));\n        TransferHelper.safeTransferFrom(\n            pools[_pid].coins[i],\n            msg.sender,\n            address(this),\n            dx\n        );\n        dx = IBEP20(pools[_pid].coins[i]).balanceOf(address(this)).sub(bali);\n        TransferHelper.safeApprove(\n            pools[_pid].coins[i],\n            pools[_pid].poolAddress,\n            dx\n        );\n        uint256 balj = IBEP20(pools[_pid].coins[j]).balanceOf(address(this));\n        IBStablePool(pools[_pid].poolAddress).exchange(i, j, dx, min_dy);\n        uint256 dy =\n            IBEP20(pools[_pid].coins[j]).balanceOf(address(this)).sub(balj);\n        require(dy > 0, \"no coin out\");\n        userInfo[_pid][msg.sender].volume = userInfo[_pid][msg.sender]\n            .volume\n            .add(dy.mul(dy).div(dx));\n        require(dy.mul(dy).div(dx) > 0, \"accumulate points is 0\");\n        uint256 tokenAmt = IBEP20(tokenAddress).balanceOf(address(walletSwap));\n        uint256 rewardAmt;\n        if (\n            pools[_pid].totalVolAccPoints > 0 && pools[_pid].totalVolReward > 0\n        ) {\n            rewardAmt = pools[_pid].totalVolReward.mul(dy.mul(dy).div(dx)).div(\n                pools[_pid].totalVolAccPoints\n            );\n        } else {\n            rewardAmt = tokenAmt.div(10);\n        }\n        if (rewardAmt > tokenAmt) {\n            userInfo[_pid][msg.sender].volReward = userInfo[_pid][msg.sender]\n                .volReward\n                .add(tokenAmt);\n            pools[_pid].totalVolReward = pools[_pid].totalVolReward.add(\n                tokenAmt\n            );\n            walletSwap.approveTokenToProxy(tokenAddress, tokenAmt);\n            TransferHelper.safeTransferFrom(\n                tokenAddress,\n                address(walletSwap),\n                msg.sender,\n                tokenAmt\n            );\n        } else {\n            userInfo[_pid][msg.sender].volReward = userInfo[_pid][msg.sender]\n                .volReward\n                .add(rewardAmt);\n            pools[_pid].totalVolReward = pools[_pid].totalVolReward.add(\n                rewardAmt\n            );\n            walletSwap.approveTokenToProxy(tokenAddress, rewardAmt);\n            TransferHelper.safeTransferFrom(\n                tokenAddress,\n                address(walletSwap),\n                msg.sender,\n                rewardAmt\n            );\n        }\n        pools[_pid].totalVolAccPoints = pools[_pid].totalVolAccPoints.add(\n            dy.mul(dy).div(dx)\n        );\n        TransferHelper.safeTransfer(pools[_pid].coins[j], msg.sender, dy);\n    }\n\n    function getPoolAddress(uint256 _pid)\n        external\n        view\n        noOpenMigration\n        returns (address _poolAddress)\n    {\n        _poolAddress = pools[_pid].poolAddress;\n    }\n\n    function pendingReward(uint256 _pid, address _user)\n        external\n        view\n        noOpenMigration\n        returns (uint256)\n    {\n        PoolInfo storage pool = pools[_pid];\n        UserInfo storage user = userInfo[_pid][_user];\n        uint256 accSushiPerShare = pool.accTokenPerShare;\n        uint256 lpSupply =\n            IBEP20(pool.poolAddress).balanceOf(address(walletLPStaking));\n        if (lpSupply != 0) {\n            uint256 releaseAmt =\n                IBStableToken(tokenAddress).availableSupply().sub(\n                    IBStableToken(tokenAddress).totalSupply()\n                );\n            uint256 reward =\n                releaseAmt\n                    .mul(pool.shareRewardRate)\n                    .div(10**18)\n                    .mul(pool.allocPoint)\n                    .div(totalAllocPoint);\n            accSushiPerShare = accSushiPerShare.add(\n                reward.mul(10**18).div(lpSupply)\n            );\n        }\n        uint256 pending =\n            user.amount.mul(accSushiPerShare).div(10**18).sub(user.rewardDebt);\n        return pending;\n    }\n\n    function massUpdatePools() external noOpenMigration {\n        uint256 length = pools.length;\n        for (uint256 pid = 0; pid < length; ++pid) {\n            updatePool(pid);\n        }\n    }\n\n    function updatePool(uint256 _pid) public noOpenMigration {\n        PoolInfo storage pool = pools[_pid];\n        if (block.timestamp <= pool.lastUpdateTime) {\n            return;\n        }\n        uint256 lpSupply =\n            IBEP20(pool.poolAddress).balanceOf(address(walletLPStaking));\n        if (lpSupply == 0) {\n            pool.lastUpdateTime = block.timestamp;\n            return;\n        }\n        uint256 releaseAmt =\n            IBStableToken(tokenAddress).availableSupply().sub(\n                IBStableToken(tokenAddress).totalSupply()\n            );\n        uint256 mintAmt = releaseAmt.mul(pool.allocPoint).div(totalAllocPoint);\n        uint256 rewardTotal = mintAmt.mul(communityPoints).div(mintTotalPoints);\n        uint256 devAmt = mintAmt.mul(devPoints).div(mintTotalPoints);\n        uint256 amcAmt = mintAmt.mul(amcPoints).div(mintTotalPoints);\n        uint256 rewardShare = rewardTotal.mul(pool.shareRewardRate).div(10**18);\n        uint256 rewardSwap = rewardTotal.mul(pool.swapRewardRate).div(10**18);\n        IBStableToken(tokenAddress).mint(devAddress, devAmt.sub(1));\n        IBStableToken(tokenAddress).mint(amcAddress, amcAmt.sub(1));\n        IBStableToken(tokenAddress).mint(\n            address(walletShare),\n            rewardShare.sub(1)\n        );\n        IBStableToken(tokenAddress).mint(\n            address(walletSwap),\n            rewardSwap.sub(1)\n        );\n        pool.accTokenPerShare = pool.accTokenPerShare.add(\n            rewardShare.mul(10**18).div(lpSupply)\n        );\n        pool.lastUpdateTime = block.timestamp;\n    }\n\n    function deposit(uint256 _pid, uint256 _amount) external noOpenMigration {\n        UserInfo storage user = userInfo[_pid][msg.sender];\n        bool exists = false;\n        for (uint256 i = 0; i < poolUsers[_pid].length; i++) {\n            if (poolUsers[_pid][i] == msg.sender) {\n                exists = true;\n                break;\n            }\n        }\n        if (!exists) {\n            poolUsers[_pid].push(msg.sender);\n        }\n        updatePool(_pid);\n        PoolInfo storage pool = pools[_pid];\n        if (user.amount > 0) {\n            uint256 pending =\n                user.amount.mul(pool.accTokenPerShare).div(10**18).sub(\n                    user.rewardDebt\n                );\n            if (pending > 0) {\n                uint256 tokenBal =\n                    IBEP20(tokenAddress).balanceOf(address(walletShare));\n                if (tokenBal >= pending) {\n                    userInfo[_pid][msg.sender].farmingReward = userInfo[_pid][\n                        msg.sender\n                    ]\n                        .farmingReward\n                        .add(pending);\n                    walletShare.approveTokenToProxy(tokenAddress, pending);\n                    TransferHelper.safeTransferFrom(\n                        tokenAddress,\n                        address(walletShare),\n                        msg.sender,\n                        pending\n                    );\n                } else {\n                    userInfo[_pid][msg.sender].farmingReward = userInfo[_pid][\n                        msg.sender\n                    ]\n                        .farmingReward\n                        .add(tokenBal);\n                    walletShare.approveTokenToProxy(tokenAddress, tokenBal);\n                    TransferHelper.safeTransferFrom(\n                        tokenAddress,\n                        address(walletShare),\n                        msg.sender,\n                        tokenBal\n                    );\n                }\n            }\n        }\n        if (_amount > 0) {\n            uint256 lpBal =\n                IBEP20(pool.poolAddress).balanceOf(address(walletLPStaking));\n            TransferHelper.safeTransferFrom(\n                pool.poolAddress,\n                msg.sender,\n                address(walletLPStaking),\n                _amount\n            );\n            _amount = IBEP20(pool.poolAddress)\n                .balanceOf(address(walletLPStaking))\n                .sub(lpBal);\n            user.amount = user.amount.add(_amount);\n        }\n        user.rewardDebt = user.amount.mul(pool.accTokenPerShare).div(10**18);\n        emit Deposit(msg.sender, _pid, _amount);\n    }\n\n    function withdraw(uint256 _pid, uint256 _amount) external noOpenMigration {\n        UserInfo storage user = userInfo[_pid][msg.sender];\n        require(user.amount >= _amount, \"withdraw: not good\");\n        updatePool(_pid);\n        PoolInfo storage pool = pools[_pid];\n        uint256 pending =\n            user.amount.mul(pool.accTokenPerShare).div(10**18).sub(\n                user.rewardDebt\n            );\n        if (pending > 0) {\n            uint256 tokenBal =\n                IBEP20(tokenAddress).balanceOf(address(walletShare));\n            if (tokenBal >= pending) {\n                userInfo[_pid][msg.sender].farmingReward = userInfo[_pid][\n                    msg.sender\n                ]\n                    .farmingReward\n                    .add(pending);\n                walletShare.approveTokenToProxy(tokenAddress, pending);\n                TransferHelper.safeTransferFrom(\n                    tokenAddress,\n                    address(walletShare),\n                    msg.sender,\n                    pending\n                );\n            } else {\n                userInfo[_pid][msg.sender].farmingReward = userInfo[_pid][\n                    msg.sender\n                ]\n                    .farmingReward\n                    .add(tokenBal);\n                walletShare.approveTokenToProxy(tokenAddress, tokenBal);\n                TransferHelper.safeTransferFrom(\n                    tokenAddress,\n                    address(walletShare),\n                    msg.sender,\n                    tokenBal\n                );\n            }\n        }\n        if (_amount > 0) {\n            user.amount = user.amount.sub(_amount);\n            walletLPStaking.approveTokenToProxy(pool.poolAddress, _amount);\n            TransferHelper.safeTransferFrom(\n                pool.poolAddress,\n                address(walletLPStaking),\n                address(msg.sender),\n                _amount\n            );\n        }\n        user.rewardDebt = user.amount.mul(pool.accTokenPerShare).div(10**18);\n        emit Withdraw(msg.sender, _pid, _amount);\n    }\n\n    function emergencyWithdraw(uint256 _pid) external {\n        PoolInfo storage pool = pools[_pid];\n        UserInfo storage user = userInfo[_pid][msg.sender];\n        uint256 amount = user.amount;\n        user.amount = 0;\n        user.rewardDebt = 0;\n        walletLPStaking.approveTokenToProxy(pool.poolAddress, amount);\n        TransferHelper.safeTransferFrom(\n            pool.poolAddress,\n            address(walletLPStaking),\n            address(msg.sender),\n            amount\n        );\n        emit EmergencyWithdraw(msg.sender, _pid, amount);\n    }\n\n    function openMigration() external onlyOwner {\n        _openMigration = true;\n    }\n\n    function closeMigration() external onlyOwner {\n        _openMigration = false;\n    }\n\n    function addPool(\n        address _poolAddress,\n        address[] calldata _coins,\n        uint256 _allocPoint\n    ) external onlyOwner {\n        totalAllocPoint = totalAllocPoint.add(_allocPoint);\n        pools.push(\n            PoolInfo({\n                poolAddress: _poolAddress,\n                coins: _coins,\n                allocPoint: _allocPoint,\n                accTokenPerShare: 0,\n                shareRewardRate: 500_000_000_000_000_000,\n                swapRewardRate: 500_000_000_000_000_000,\n                totalVolAccPoints: 0,\n                totalVolReward: 0,\n                lastUpdateTime: block.timestamp\n            })\n        );\n    }\n\n    function setPoolRewardRate(\n        uint256 _pid,\n        uint256 shareRate,\n        uint256 swapRate\n    ) external onlyOwner {\n        require(\n            shareRate.add(swapRate) <= 1_000_000_000_000_000_000,\n            \"sum rate lower then 100%\"\n        );\n        pools[_pid].shareRewardRate = shareRate;\n        pools[_pid].swapRewardRate = swapRate;\n    }\n\n    function setPoolCoins(uint256 _pid, address[] calldata _coins)\n        external\n        onlyOwner\n    {\n        pools[_pid].coins = _coins;\n    }\n\n    function setPoolAllocPoint(uint256 _pid, uint256 _allocPoint)\n        external\n        onlyOwner\n    {\n        totalAllocPoint = totalAllocPoint.sub(pools[_pid].allocPoint).add(\n            _allocPoint\n        );\n        pools[_pid].allocPoint = _allocPoint;\n    }\n\n    function migratePoolInfo(IBStableProxy from) internal {\n        address _poolAddress;\n        address[] memory _coins;\n        uint256[] memory _data;\n        for (uint256 pid = 0; pid < from.getPoolsLength(); pid++) {\n            (_poolAddress, _coins, , , , , , , , _data) = from.getPoolInfo(pid);\n            totalAllocPoint = totalAllocPoint.add(_data[0]);\n            pools.push(\n                PoolInfo({\n                    poolAddress: _poolAddress,\n                    coins: _coins,\n                    allocPoint: _data[0],\n                    accTokenPerShare: _data[1],\n                    shareRewardRate: _data[2],\n                    swapRewardRate: _data[3],\n                    totalVolAccPoints: _data[4],\n                    totalVolReward: _data[5],\n                    lastUpdateTime: _data[6]\n                })\n            );\n        }\n    }\n\n    function transferMinterTo(address to) external override onlyOwner {\n        require(_openMigration, \"on allow when migration is open\");\n        IBStableToken(tokenAddress).transferMinterTo(to);\n    }\n\n    function approveTokenTo(address nMinter) external override onlyOwner {\n        IBStableToken token = IBStableToken(tokenAddress);\n        require(\n            token.getMinter() == nMinter,\n            \"only allow to approve token to a minter.\"\n        );\n        uint256 balance = token.balanceOf(address(this));\n        TransferHelper.safeApprove(tokenAddress, nMinter, balance);\n    }\n\n    function migrate(address _from) external onlyOwner {\n        _openMigration = true;\n        IBStableProxy from = IBStableProxy(_from);\n        require(from.isMigrationOpen(), \"from's migration not open.\");\n        require(migrateFrom == address(0), \"migration only once.\");\n        migratePoolInfo(from);\n        // tokenAddress = from.getTokenAddress();\n        // uint256 tokenBal = IBEP20(tokenAddress).balanceOf(_from);\n        // TransferHelper.safeTransferFrom(\n        //     tokenAddress,\n        //     _from,\n        //     address(this),\n        //     tokenBal\n        // );\n\n        migrateFrom = _from;\n    }\n\n    function setDevAddress(address nDevAddress) public onlyOwner {\n        devAddress = nDevAddress;\n    }\n\n    function setAmcAddress(address nAmcAddress) public onlyOwner {\n        amcAddress = nAmcAddress;\n    }\n\n    function setAllocPoints(\n        uint256 _devPoints,\n        uint256 _amcPoints,\n        uint256 _communityPoints,\n        uint256 _totalPoints\n    ) public onlyOwner {\n        devPoints = _devPoints;\n        amcPoints = _amcPoints;\n        communityPoints = _communityPoints;\n        mintTotalPoints = _totalPoints;\n    }\n}\n",
  "sourcePath": "/Users/zhangleping/github.com/0xa8c81519/bsc-contracts/contracts/v2_swap_farming/BStableProxy.sol",
  "compiler": {
    "name": "solc",
    "version": "0.6.6+commit.6c089d02.Emscripten.clang"
  },
  "schemaVersion": "3.4.0",
  "updatedAt": "2021-04-24T06:10:36.763Z",
  "devdoc": {
    "methods": {
      "allowance(address,address)": {
        "details": "See {IBEP20-allowance}."
      },
      "approve(address,uint256)": {
        "details": "See {IBEP20-approve}.     * Requirements:     * - `spender` cannot be the zero address."
      },
      "balanceOf(address)": {
        "details": "See {IBEP20-balanceOf}."
      },
      "decimals()": {
        "details": "Returns the number of decimals used to get its user representation. For example, if `decimals` equals `2`, a balance of `505` tokens should be displayed to a user as `5,05` (`505 / 10 ** 2`).     * Tokens usually opt for a value of 18, imitating the relationship between Ether and Wei. This is the value {BEP20} uses, unless {_setupDecimals} is called.     * NOTE: This information is only used for _display_ purposes: it in no way affects any of the arithmetic of the contract, including {IBEP20-balanceOf} and {IBEP20-transfer}."
      },
      "decreaseAllowance(address,uint256)": {
        "details": "Atomically decreases the allowance granted to `spender` by the caller.     * This is an alternative to {approve} that can be used as a mitigation for problems described in {IBEP20-approve}.     * Emits an {Approval} event indicating the updated allowance.     * Requirements:     * - `spender` cannot be the zero address. - `spender` must have allowance for the caller of at least `subtractedValue`."
      },
      "increaseAllowance(address,uint256)": {
        "details": "Atomically increases the allowance granted to `spender` by the caller.     * This is an alternative to {approve} that can be used as a mitigation for problems described in {IBEP20-approve}.     * Emits an {Approval} event indicating the updated allowance.     * Requirements:     * - `spender` cannot be the zero address."
      },
      "name()": {
        "details": "Returns the name of the token."
      },
      "owner()": {
        "details": "Returns the address of the current owner."
      },
      "renounceOwnership()": {
        "details": "Leaves the contract without owner. It will not be possible to call `onlyOwner` functions anymore. Can only be called by the current owner.     * NOTE: Renouncing ownership will leave the contract without an owner, thereby removing any functionality that is only available to the owner."
      },
      "symbol()": {
        "details": "Returns the symbol of the token, usually a shorter version of the name."
      },
      "totalSupply()": {
        "details": "See {IBEP20-totalSupply}."
      },
      "transfer(address,uint256)": {
        "details": "See {IBEP20-transfer}.     * Requirements:     * - `recipient` cannot be the zero address. - the caller must have a balance of at least `amount`."
      },
      "transferFrom(address,address,uint256)": {
        "details": "See {IBEP20-transferFrom}.     * Emits an {Approval} event indicating the updated allowance. This is not required by the EIP. See the note at the beginning of {BEP20};     * Requirements: - `sender` and `recipient` cannot be the zero address. - `sender` must have a balance of at least `amount`. - the caller must have allowance for ``sender``'s tokens of at least `amount`."
      },
      "transferOwnership(address)": {
        "details": "Transfers ownership of the contract to a new account (`newOwner`). Can only be called by the current owner."
      }
    }
  },
  "userdoc": {
    "methods": {}
  }
}